{
  "contractName": "ClaimElection",
  "abi": [
    {
      "constant": true,
      "inputs": [],
      "name": "awaitingConfirm",
      "outputs": [
        {
          "name": "",
          "type": "address"
        }
      ],
      "payable": false,
      "stateMutability": "view",
      "type": "function"
    },
    {
      "constant": false,
      "inputs": [
        {
          "name": "_newAuthorized",
          "type": "address"
        }
      ],
      "name": "transferAuth",
      "outputs": [
        {
          "name": "",
          "type": "bool"
        }
      ],
      "payable": false,
      "stateMutability": "nonpayable",
      "type": "function"
    },
    {
      "constant": false,
      "inputs": [],
      "name": "acceptAuth",
      "outputs": [
        {
          "name": "",
          "type": "bool"
        }
      ],
      "payable": false,
      "stateMutability": "nonpayable",
      "type": "function"
    },
    {
      "constant": true,
      "inputs": [],
      "name": "authorized",
      "outputs": [
        {
          "name": "",
          "type": "address"
        }
      ],
      "payable": false,
      "stateMutability": "view",
      "type": "function"
    },
    {
      "constant": true,
      "inputs": [],
      "name": "pQueue",
      "outputs": [
        {
          "name": "",
          "type": "address"
        }
      ],
      "payable": false,
      "stateMutability": "view",
      "type": "function"
    },
    {
      "constant": true,
      "inputs": [],
      "name": "token",
      "outputs": [
        {
          "name": "",
          "type": "address"
        }
      ],
      "payable": false,
      "stateMutability": "view",
      "type": "function"
    },
    {
      "inputs": [],
      "payable": false,
      "stateMutability": "nonpayable",
      "type": "constructor"
    },
    {
      "constant": false,
      "inputs": [
        {
          "name": "_t",
          "type": "address"
        }
      ],
      "name": "setToken",
      "outputs": [],
      "payable": false,
      "stateMutability": "nonpayable",
      "type": "function"
    },
    {
      "constant": false,
      "inputs": [
        {
          "name": "_amt",
          "type": "uint256"
        },
        {
          "name": "_pos",
          "type": "bytes8"
        }
      ],
      "name": "joinQueue",
      "outputs": [
        {
          "name": "success",
          "type": "bool"
        }
      ],
      "payable": false,
      "stateMutability": "nonpayable",
      "type": "function"
    },
    {
      "constant": true,
      "inputs": [
        {
          "name": "_tn",
          "type": "address"
        }
      ],
      "name": "getNumBonds",
      "outputs": [
        {
          "name": "",
          "type": "uint256"
        }
      ],
      "payable": false,
      "stateMutability": "view",
      "type": "function"
    },
    {
      "constant": true,
      "inputs": [
        {
          "name": "_tn",
          "type": "address"
        },
        {
          "name": "_num",
          "type": "uint256"
        }
      ],
      "name": "getBond",
      "outputs": [
        {
          "name": "",
          "type": "uint256"
        }
      ],
      "payable": false,
      "stateMutability": "view",
      "type": "function"
    },
    {
      "constant": false,
      "inputs": [],
      "name": "getNext",
      "outputs": [
        {
          "name": "",
          "type": "address"
        }
      ],
      "payable": false,
      "stateMutability": "nonpayable",
      "type": "function"
    },
    {
      "constant": true,
      "inputs": [],
      "name": "isEmpty",
      "outputs": [
        {
          "name": "",
          "type": "bool"
        }
      ],
      "payable": false,
      "stateMutability": "view",
      "type": "function"
    }
  ],
  "bytecode": "0x6060604052341561000f57600080fd5b336000806101000a81548173ffffffffffffffffffffffffffffffffffffffff021916908373ffffffffffffffffffffffffffffffffffffffff1602179055506100576100b2565b604051809103906000f080151561006d57600080fd5b600260006101000a81548173ffffffffffffffffffffffffffffffffffffffff021916908373ffffffffffffffffffffffffffffffffffffffff1602179055506100c2565b60405161321380610ed083390190565b610dff806100d16000396000f3006060604052600436106100ba576000357c0100000000000000000000000000000000000000000000000000000000900463ffffffff16806308a7c40f146100bf578063144fa6d71461010c57806318044b9a146101455780631e8b07091461019a5780632eeb1326146101f95780633a652d271461024a578063456cb7c614610277578063681fe70c146102cc578063c36d549d146102f9578063db8ca4261461034e578063f3638f78146103a4578063fc0c546a146103f9575b600080fd5b34156100ca57600080fd5b6100f6600480803573ffffffffffffffffffffffffffffffffffffffff1690602001909190505061044e565b6040518082815260200191505060405180910390f35b341561011757600080fd5b610143600480803573ffffffffffffffffffffffffffffffffffffffff16906020019091905050610497565b005b341561015057600080fd5b610158610536565b604051808273ffffffffffffffffffffffffffffffffffffffff1673ffffffffffffffffffffffffffffffffffffffff16815260200191505060405180910390f35b34156101a557600080fd5b6101df600480803590602001909190803577ffffffffffffffffffffffffffffffffffffffffffffffff191690602001909190505061055c565b604051808215151515815260200191505060405180910390f35b341561020457600080fd5b610230600480803573ffffffffffffffffffffffffffffffffffffffff16906020019091905050610938565b604051808215151515815260200191505060405180910390f35b341561025557600080fd5b61025d6109df565b604051808215151515815260200191505060405180910390f35b341561028257600080fd5b61028a610aa9565b604051808273ffffffffffffffffffffffffffffffffffffffff1673ffffffffffffffffffffffffffffffffffffffff16815260200191505060405180910390f35b34156102d757600080fd5b6102df610ace565b604051808215151515815260200191505060405180910390f35b341561030457600080fd5b61030c610b71565b604051808273ffffffffffffffffffffffffffffffffffffffff1673ffffffffffffffffffffffffffffffffffffffff16815260200191505060405180910390f35b341561035957600080fd5b61038e600480803573ffffffffffffffffffffffffffffffffffffffff16906020019091908035906020019091905050610b97565b6040518082815260200191505060405180910390f35b34156103af57600080fd5b6103b7610bf5565b604051808273ffffffffffffffffffffffffffffffffffffffff1673ffffffffffffffffffffffffffffffffffffffff16815260200191505060405180910390f35b341561040457600080fd5b61040c610dad565b604051808273ffffffffffffffffffffffffffffffffffffffff1673ffffffffffffffffffffffffffffffffffffffff16815260200191505060405180910390f35b6000600560008373ffffffffffffffffffffffffffffffffffffffff1673ffffffffffffffffffffffffffffffffffffffff168152602001908152602001600020549050919050565b6000809054906101000a900473ffffffffffffffffffffffffffffffffffffffff1673ffffffffffffffffffffffffffffffffffffffff163373ffffffffffffffffffffffffffffffffffffffff161415156104f257600080fd5b80600360006101000a81548173ffffffffffffffffffffffffffffffffffffffff021916908373ffffffffffffffffffffffffffffffffffffffff16021790555050565b600160009054906101000a900473ffffffffffffffffffffffffffffffffffffffff1681565b6000806000600360009054906101000a900473ffffffffffffffffffffffffffffffffffffffff1673ffffffffffffffffffffffffffffffffffffffff166370a08231336040518263ffffffff167c0100000000000000000000000000000000000000000000000000000000028152600401808273ffffffffffffffffffffffffffffffffffffffff1673ffffffffffffffffffffffffffffffffffffffff168152602001915050602060405180830381600087803b151561061d57600080fd5b5af1151561062a57600080fd5b50505060405180519050915084821015151561064557600080fd5b600360009054906101000a900473ffffffffffffffffffffffffffffffffffffffff1673ffffffffffffffffffffffffffffffffffffffff166323b872dd3330886040518463ffffffff167c0100000000000000000000000000000000000000000000000000000000028152600401808473ffffffffffffffffffffffffffffffffffffffff1673ffffffffffffffffffffffffffffffffffffffff1681526020018373ffffffffffffffffffffffffffffffffffffffff1673ffffffffffffffffffffffffffffffffffffffff1681526020018281526020019350505050602060405180830381600087803b151561073d57600080fd5b5af1151561074a57600080fd5b5050506040518051905050600560003373ffffffffffffffffffffffffffffffffffffffff1673ffffffffffffffffffffffffffffffffffffffff168152602001908152602001600020600081548092919060010191905055905060206040519081016040528086815250600460003373ffffffffffffffffffffffffffffffffffffffff1673ffffffffffffffffffffffffffffffffffffffff168152602001908152602001600020600083815260200190815260200160002060008201518160000155905050600260009054906101000a900473ffffffffffffffffffffffffffffffffffffffff1673ffffffffffffffffffffffffffffffffffffffff16632a0c0dbb8587336040518463ffffffff167c0100000000000000000000000000000000000000000000000000000000028152600401808477ffffffffffffffffffffffffffffffffffffffffffffffff191677ffffffffffffffffffffffffffffffffffffffffffffffff191681526020018381526020018273ffffffffffffffffffffffffffffffffffffffff1673ffffffffffffffffffffffffffffffffffffffff1681526020019350505050602060405180830381600087803b151561091457600080fd5b5af1151561092157600080fd5b505050604051805190505060019250505092915050565b60008060009054906101000a900473ffffffffffffffffffffffffffffffffffffffff1673ffffffffffffffffffffffffffffffffffffffff163373ffffffffffffffffffffffffffffffffffffffff1614151561099557600080fd5b81600160006101000a81548173ffffffffffffffffffffffffffffffffffffffff021916908373ffffffffffffffffffffffffffffffffffffffff16021790555060019050919050565b6000600160009054906101000a900473ffffffffffffffffffffffffffffffffffffffff1673ffffffffffffffffffffffffffffffffffffffff163373ffffffffffffffffffffffffffffffffffffffff16141515610a3d57600080fd5b600160006101000a81549073ffffffffffffffffffffffffffffffffffffffff0219169055336000806101000a81548173ffffffffffffffffffffffffffffffffffffffff021916908373ffffffffffffffffffffffffffffffffffffffff1602179055506001905090565b6000809054906101000a900473ffffffffffffffffffffffffffffffffffffffff1681565b6000600260009054906101000a900473ffffffffffffffffffffffffffffffffffffffff1673ffffffffffffffffffffffffffffffffffffffff1663681fe70c6040518163ffffffff167c0100000000000000000000000000000000000000000000000000000000028152600401602060405180830381600087803b1515610b5557600080fd5b5af11515610b6257600080fd5b50505060405180519050905090565b600260009054906101000a900473ffffffffffffffffffffffffffffffffffffffff1681565b6000600460008473ffffffffffffffffffffffffffffffffffffffff1673ffffffffffffffffffffffffffffffffffffffff168152602001908152602001600020600083815260200190815260200160002060000154905092915050565b60008060008060009054906101000a900473ffffffffffffffffffffffffffffffffffffffff1673ffffffffffffffffffffffffffffffffffffffff163373ffffffffffffffffffffffffffffffffffffffff16141515610c5557600080fd5b600260009054906101000a900473ffffffffffffffffffffffffffffffffffffffff1673ffffffffffffffffffffffffffffffffffffffff1663681fe70c6040518163ffffffff167c0100000000000000000000000000000000000000000000000000000000028152600401602060405180830381600087803b1515610cda57600080fd5b5af11515610ce757600080fd5b5050506040518051905015610cff5760009250610da8565b600260009054906101000a900473ffffffffffffffffffffffffffffffffffffffff1673ffffffffffffffffffffffffffffffffffffffff1663a4ece52c6040518163ffffffff167c01000000000000000000000000000000000000000000000000000000000281526004016040805180830381600087803b1515610d8357600080fd5b5af11515610d9057600080fd5b50505060405180519060200180519050915091508092505b505090565b600360009054906101000a900473ffffffffffffffffffffffffffffffffffffffff16815600a165627a7a723058207cce13e5a6a915fb9b4d35a7871447a23b654dd7a011a0e06c605b69359483fd00296060604052336000806101000a81548173ffffffffffffffffffffffffffffffffffffffff021916908373ffffffffffffffffffffffffffffffffffffffff1602179055506131c0806100536000396000f3006060604052600436106100fc576000357c0100000000000000000000000000000000000000000000000000000000900463ffffffff16806318044b9a14610101578063200fc3ff1461015657806329fc1419146101b55780632a0c0dbb146102225780632eeb1326146102a05780633a652d27146102f1578063456cb7c61461031e578063549ffbd91461037357806359e02dd7146103f8578063681fe70c1461045457806370d2392914610481578063a4ece52c146105bd578063a5eae8c114610619578063ab70da8e14610678578063b52a5d76146106d7578063bae6c2ad14610820578063be51986214610849578063c2571a0a146108b6575b600080fd5b341561010c57600080fd5b610114610923565b604051808273ffffffffffffffffffffffffffffffffffffffff1673ffffffffffffffffffffffffffffffffffffffff16815260200191505060405180910390f35b341561016157600080fd5b610169610949565b604051808277ffffffffffffffffffffffffffffffffffffffffffffffff191677ffffffffffffffffffffffffffffffffffffffffffffffff1916815260200191505060405180910390f35b34156101c057600080fd5b6101d6600480803590602001909190505061097b565b604051808277ffffffffffffffffffffffffffffffffffffffffffffffff191677ffffffffffffffffffffffffffffffffffffffffffffffff1916815260200191505060405180910390f35b341561022d57600080fd5b610286600480803577ffffffffffffffffffffffffffffffffffffffffffffffff191690602001909190803590602001909190803573ffffffffffffffffffffffffffffffffffffffff16906020019091905050610a38565b604051808215151515815260200191505060405180910390f35b34156102ab57600080fd5b6102d7600480803573ffffffffffffffffffffffffffffffffffffffff1690602001909190505061129a565b604051808215151515815260200191505060405180910390f35b34156102fc57600080fd5b610304611341565b604051808215151515815260200191505060405180910390f35b341561032957600080fd5b61033161140b565b604051808273ffffffffffffffffffffffffffffffffffffffff1673ffffffffffffffffffffffffffffffffffffffff16815260200191505060405180910390f35b341561037e57600080fd5b6103af600480803577ffffffffffffffffffffffffffffffffffffffffffffffff1916906020019091905050611430565b604051808381526020018273ffffffffffffffffffffffffffffffffffffffff1673ffffffffffffffffffffffffffffffffffffffff1681526020019250505060405180910390f35b341561040357600080fd5b61040b611590565b604051808381526020018273ffffffffffffffffffffffffffffffffffffffff1673ffffffffffffffffffffffffffffffffffffffff1681526020019250505060405180910390f35b341561045f57600080fd5b6104676116c3565b604051808215151515815260200191505060405180910390f35b341561048c57600080fd5b6104bd600480803577ffffffffffffffffffffffffffffffffffffffffffffffff19169060200190919050506116d2565b604051808677ffffffffffffffffffffffffffffffffffffffffffffffff191677ffffffffffffffffffffffffffffffffffffffffffffffff191681526020018577ffffffffffffffffffffffffffffffffffffffffffffffff191677ffffffffffffffffffffffffffffffffffffffffffffffff191681526020018477ffffffffffffffffffffffffffffffffffffffffffffffff191677ffffffffffffffffffffffffffffffffffffffffffffffff191681526020018373ffffffffffffffffffffffffffffffffffffffff1673ffffffffffffffffffffffffffffffffffffffff1681526020018281526020019550505050505060405180910390f35b34156105c857600080fd5b6105d061190c565b604051808381526020018273ffffffffffffffffffffffffffffffffffffffff1673ffffffffffffffffffffffffffffffffffffffff1681526020019250505060405180910390f35b341561062457600080fd5b61065e600480803577ffffffffffffffffffffffffffffffffffffffffffffffff1916906020019091908035906020019091905050611a24565b604051808215151515815260200191505060405180910390f35b341561068357600080fd5b61068b611d06565b604051808277ffffffffffffffffffffffffffffffffffffffffffffffff191677ffffffffffffffffffffffffffffffffffffffffffffffff1916815260200191505060405180910390f35b34156106e257600080fd5b6106ea611d38565b6040518086815260200180602001806020018060200180602001858103855289818151815260200191508051906020019060200280838360005b8381101561073f578082015181840152602081019050610724565b50505050905001858103845288818151815260200191508051906020019060200280838360005b83811015610781578082015181840152602081019050610766565b50505050905001858103835287818151815260200191508051906020019060200280838360005b838110156107c35780820151818401526020810190506107a8565b50505050905001858103825286818151815260200191508051906020019060200280838360005b838110156108055780820151818401526020810190506107ea565b50505050905001995050505050505050505060405180910390f35b341561082b57600080fd5b6108336121c0565b6040518082815260200191505060405180910390f35b341561085457600080fd5b61086a60048080359060200190919050506121cd565b604051808277ffffffffffffffffffffffffffffffffffffffffffffffff191677ffffffffffffffffffffffffffffffffffffffffffffffff1916815260200191505060405180910390f35b34156108c157600080fd5b6108d760048080359060200190919050506123e1565b604051808277ffffffffffffffffffffffffffffffffffffffffffffffff191677ffffffffffffffffffffffffffffffffffffffffffffffff1916815260200191505060405180910390f35b600160009054906101000a900473ffffffffffffffffffffffffffffffffffffffff1681565b6000600260000160089054906101000a9004780100000000000000000000000000000000000000000000000002905090565b6000806002600301548311156109af5760007801000000000000000000000000000000000000000000000000029150610a32565b6002800154831115156109ee57600260000160089054906101000a90047801000000000000000000000000000000000000000000000000029150610a32565b6002806002015460026003015403811515610a0557fe5b04905082600280015482011115610a2657610a1f836123e1565b9150610a32565b610a2f836121cd565b91505b50919050565b60008060008060009054906101000a900473ffffffffffffffffffffffffffffffffffffffff1673ffffffffffffffffffffffffffffffffffffffff163373ffffffffffffffffffffffffffffffffffffffff16141515610a9857600080fd5b610aa28686611a24565b1515610aad57600080fd5b838542604051808473ffffffffffffffffffffffffffffffffffffffff1673ffffffffffffffffffffffffffffffffffffffff166c010000000000000000000000000281526014018381526020018281526020019350505050604051809103902091506000600260040160008477ffffffffffffffffffffffffffffffffffffffffffffffff191677ffffffffffffffffffffffffffffffffffffffffffffffff1916815260200190815260200160002060000160009054906101000a900473ffffffffffffffffffffffffffffffffffffffff1673ffffffffffffffffffffffffffffffffffffffff16141515610ba157fe5b60007801000000000000000000000000000000000000000000000000028677ffffffffffffffffffffffffffffffffffffffffffffffff19161415610c1257600260000160009054906101000a90047801000000000000000000000000000000000000000000000000029050610c8a565b600260040160008777ffffffffffffffffffffffffffffffffffffffffffffffff191677ffffffffffffffffffffffffffffffffffffffffffffffff1916815260200190815260200160002060010160089054906101000a900478010000000000000000000000000000000000000000000000000290505b60a0604051908101604052808573ffffffffffffffffffffffffffffffffffffffff1681526020018377ffffffffffffffffffffffffffffffffffffffffffffffff191681526020018777ffffffffffffffffffffffffffffffffffffffffffffffff191681526020018277ffffffffffffffffffffffffffffffffffffffffffffffff1916815260200186815250600260040160008477ffffffffffffffffffffffffffffffffffffffffffffffff191677ffffffffffffffffffffffffffffffffffffffffffffffff1916815260200190815260200160002060008201518160000160006101000a81548173ffffffffffffffffffffffffffffffffffffffff021916908373ffffffffffffffffffffffffffffffffffffffff16021790555060208201518160000160146101000a81548167ffffffffffffffff021916908378010000000000000000000000000000000000000000000000009004021790555060408201518160010160006101000a81548167ffffffffffffffff021916908378010000000000000000000000000000000000000000000000009004021790555060608201518160010160086101000a81548167ffffffffffffffff0219169083780100000000000000000000000000000000000000000000000090040217905550608082015181600201559050506002600101600081548092919060010191905055506000780100000000000000000000000000000000000000000000000002600260040160008477ffffffffffffffffffffffffffffffffffffffffffffffff191677ffffffffffffffffffffffffffffffffffffffffffffffff1916815260200190815260200160002060010160009054906101000a900478010000000000000000000000000000000000000000000000000277ffffffffffffffffffffffffffffffffffffffffffffffff1916141515610fd25781600260040160008877ffffffffffffffffffffffffffffffffffffffffffffffff191677ffffffffffffffffffffffffffffffffffffffffffffffff1916815260200190815260200160002060010160086101000a81548167ffffffffffffffff021916908378010000000000000000000000000000000000000000000000009004021790555061101b565b81600260000160006101000a81548167ffffffffffffffff0219169083780100000000000000000000000000000000000000000000000090040217905550846002600301819055505b6000780100000000000000000000000000000000000000000000000002600260040160008477ffffffffffffffffffffffffffffffffffffffffffffffff191677ffffffffffffffffffffffffffffffffffffffffffffffff1916815260200190815260200160002060010160089054906101000a900478010000000000000000000000000000000000000000000000000277ffffffffffffffffffffffffffffffffffffffffffffffff19161415156111d0578160026004016000600260040160008677ffffffffffffffffffffffffffffffffffffffffffffffff191677ffffffffffffffffffffffffffffffffffffffffffffffff1916815260200190815260200160002060010160089054906101000a900478010000000000000000000000000000000000000000000000000277ffffffffffffffffffffffffffffffffffffffffffffffff191677ffffffffffffffffffffffffffffffffffffffffffffffff1916815260200190815260200160002060010160006101000a81548167ffffffffffffffff0219169083780100000000000000000000000000000000000000000000000090040217905550611218565b81600260000160086101000a81548167ffffffffffffffff02191690837801000000000000000000000000000000000000000000000000900402179055508460028001819055505b7f929d6b4043c9fd9060e58506916e0cf11f4b277614e1a03a4c61cde6e284880e8286604051808377ffffffffffffffffffffffffffffffffffffffffffffffff191677ffffffffffffffffffffffffffffffffffffffffffffffff191681526020018281526020019250505060405180910390a16001925050509392505050565b60008060009054906101000a900473ffffffffffffffffffffffffffffffffffffffff1673ffffffffffffffffffffffffffffffffffffffff163373ffffffffffffffffffffffffffffffffffffffff161415156112f757600080fd5b81600160006101000a81548173ffffffffffffffffffffffffffffffffffffffff021916908373ffffffffffffffffffffffffffffffffffffffff16021790555060019050919050565b6000600160009054906101000a900473ffffffffffffffffffffffffffffffffffffffff1673ffffffffffffffffffffffffffffffffffffffff163373ffffffffffffffffffffffffffffffffffffffff1614151561139f57600080fd5b600160006101000a81549073ffffffffffffffffffffffffffffffffffffffff0219169055336000806101000a81548173ffffffffffffffffffffffffffffffffffffffff021916908373ffffffffffffffffffffffffffffffffffffffff1602179055506001905090565b6000809054906101000a900473ffffffffffffffffffffffffffffffffffffffff1681565b6000806000600260040160008577ffffffffffffffffffffffffffffffffffffffffffffffff191677ffffffffffffffffffffffffffffffffffffffffffffffff1916815260200190815260200160002060000160009054906101000a900473ffffffffffffffffffffffffffffffffffffffff1673ffffffffffffffffffffffffffffffffffffffff1614156114c65761158b565b600260040160008477ffffffffffffffffffffffffffffffffffffffffffffffff191677ffffffffffffffffffffffffffffffffffffffffffffffff1916815260200190815260200160002060020154600260040160008577ffffffffffffffffffffffffffffffffffffffffffffffff191677ffffffffffffffffffffffffffffffffffffffffffffffff1916815260200190815260200160002060000160009054906101000a900473ffffffffffffffffffffffffffffffffffffffff16915091505b915091565b60008061159b6116c3565b1515156115a757600080fd5b60026004016000600260000160009054906101000a900478010000000000000000000000000000000000000000000000000277ffffffffffffffffffffffffffffffffffffffffffffffff191677ffffffffffffffffffffffffffffffffffffffffffffffff191681526020019081526020016000206002015460026004016000600260000160009054906101000a900478010000000000000000000000000000000000000000000000000277ffffffffffffffffffffffffffffffffffffffffffffffff191677ffffffffffffffffffffffffffffffffffffffffffffffff1916815260200190815260200160002060000160009054906101000a900473ffffffffffffffffffffffffffffffffffffffff16915091509091565b60008060026001015414905090565b6000806000806000600260040160008777ffffffffffffffffffffffffffffffffffffffffffffffff191677ffffffffffffffffffffffffffffffffffffffffffffffff1916815260200190815260200160002060000160149054906101000a9004780100000000000000000000000000000000000000000000000002600260040160008877ffffffffffffffffffffffffffffffffffffffffffffffff191677ffffffffffffffffffffffffffffffffffffffffffffffff1916815260200190815260200160002060010160009054906101000a9004780100000000000000000000000000000000000000000000000002600260040160008977ffffffffffffffffffffffffffffffffffffffffffffffff191677ffffffffffffffffffffffffffffffffffffffffffffffff1916815260200190815260200160002060010160089054906101000a9004780100000000000000000000000000000000000000000000000002600260040160008a77ffffffffffffffffffffffffffffffffffffffffffffffff191677ffffffffffffffffffffffffffffffffffffffffffffffff1916815260200190815260200160002060000160009054906101000a900473ffffffffffffffffffffffffffffffffffffffff16600260040160008b77ffffffffffffffffffffffffffffffffffffffffffffffff191677ffffffffffffffffffffffffffffffffffffffffffffffff19168152602001908152602001600020600201549450945094509450945091939590929450565b6000806000809054906101000a900473ffffffffffffffffffffffffffffffffffffffff1673ffffffffffffffffffffffffffffffffffffffff163373ffffffffffffffffffffffffffffffffffffffff1614151561196a57600080fd5b611972611590565b80925081935050506119ad600260000160009054906101000a90047801000000000000000000000000000000000000000000000000026125eb565b15156119b557fe5b7f8175128bf72be3b46137e66611ba18df872ce4e830958a09bffce026b9902ab58282604051808381526020018273ffffffffffffffffffffffffffffffffffffffff1673ffffffffffffffffffffffffffffffffffffffff1681526020019250505060405180910390a19091565b60008060007801000000000000000000000000000000000000000000000000028477ffffffffffffffffffffffffffffffffffffffffffffffff1916141515611c085782600260040160008677ffffffffffffffffffffffffffffffffffffffffffffffff191677ffffffffffffffffffffffffffffffffffffffffffffffff191681526020019081526020016000206002015410151515611ac557600080fd5b600260000160089054906101000a900478010000000000000000000000000000000000000000000000000277ffffffffffffffffffffffffffffffffffffffffffffffff19168477ffffffffffffffffffffffffffffffffffffffffffffffff1916141515611c0357600260040160008577ffffffffffffffffffffffffffffffffffffffffffffffff191677ffffffffffffffffffffffffffffffffffffffffffffffff1916815260200190815260200160002060010160089054906101000a9004780100000000000000000000000000000000000000000000000002905082600260040160008377ffffffffffffffffffffffffffffffffffffffffffffffff191677ffffffffffffffffffffffffffffffffffffffffffffffff1916815260200190815260200160002060020154101515611c0257600080fd5b5b611cfb565b6000780100000000000000000000000000000000000000000000000002600260000160009054906101000a900478010000000000000000000000000000000000000000000000000277ffffffffffffffffffffffffffffffffffffffffffffffff1916141515611cfa578260026004016000600260000160009054906101000a900478010000000000000000000000000000000000000000000000000277ffffffffffffffffffffffffffffffffffffffffffffffff191677ffffffffffffffffffffffffffffffffffffffffffffffff1916815260200190815260200160002060020154101515611cf957600080fd5b5b5b600191505092915050565b6000600260000160009054906101000a9004780100000000000000000000000000000000000000000000000002905090565b6000611d4261316c565b611d4a61316c565b611d5261316c565b611d5a613180565b611d6261316c565b611d6a61316c565b611d7261316c565b611d7a613180565b600080600260010154604051805910611d905750595b90808252806020026020018201604052509550600260010154604051805910611db65750595b90808252806020026020018201604052509450600260010154604051805910611ddc5750595b90808252806020026020018201604052509350600260010154604051805910611e025750595b90808252806020026020018201604052509250600260000160009054906101000a90047801000000000000000000000000000000000000000000000000029150600090505b60026001015481101561219f57600260040160008377ffffffffffffffffffffffffffffffffffffffffffffffff191677ffffffffffffffffffffffffffffffffffffffffffffffff1916815260200190815260200160002060000160149054906101000a90047801000000000000000000000000000000000000000000000000028682815181101515611ed757fe5b9060200190602002019077ffffffffffffffffffffffffffffffffffffffffffffffff1916908177ffffffffffffffffffffffffffffffffffffffffffffffff191681525050600260040160008377ffffffffffffffffffffffffffffffffffffffffffffffff191677ffffffffffffffffffffffffffffffffffffffffffffffff1916815260200190815260200160002060010160009054906101000a90047801000000000000000000000000000000000000000000000000028582815181101515611fa057fe5b9060200190602002019077ffffffffffffffffffffffffffffffffffffffffffffffff1916908177ffffffffffffffffffffffffffffffffffffffffffffffff191681525050600260040160008377ffffffffffffffffffffffffffffffffffffffffffffffff191677ffffffffffffffffffffffffffffffffffffffffffffffff1916815260200190815260200160002060010160089054906101000a9004780100000000000000000000000000000000000000000000000002848281518110151561206957fe5b9060200190602002019077ffffffffffffffffffffffffffffffffffffffffffffffff1916908177ffffffffffffffffffffffffffffffffffffffffffffffff191681525050600260040160008377ffffffffffffffffffffffffffffffffffffffffffffffff191677ffffffffffffffffffffffffffffffffffffffffffffffff1916815260200190815260200160002060020154838281518110151561210d57fe5b9060200190602002018181525050600260040160008377ffffffffffffffffffffffffffffffffffffffffffffffff191677ffffffffffffffffffffffffffffffffffffffffffffffff1916815260200190815260200160002060010160089054906101000a900478010000000000000000000000000000000000000000000000000291508080600101915050611e47565b600260010154868686869a509a509a509a509a505050505050509091929394565b6000600260010154905090565b6000806000600260000160009054906101000a90047801000000000000000000000000000000000000000000000000029150600090505b6002600101548110156123d95760007801000000000000000000000000000000000000000000000000028277ffffffffffffffffffffffffffffffffffffffffffffffff1916141561228257600260000160089054906101000a900478010000000000000000000000000000000000000000000000000292506123da565b83600260040160008477ffffffffffffffffffffffffffffffffffffffffffffffff191677ffffffffffffffffffffffffffffffffffffffffffffffff1916815260200190815260200160002060020154101561235557600260040160008377ffffffffffffffffffffffffffffffffffffffffffffffff191677ffffffffffffffffffffffffffffffffffffffffffffffff1916815260200190815260200160002060010160009054906101000a900478010000000000000000000000000000000000000000000000000292506123da565b600260040160008377ffffffffffffffffffffffffffffffffffffffffffffffff191677ffffffffffffffffffffffffffffffffffffffffffffffff1916815260200190815260200160002060010160089054906101000a900478010000000000000000000000000000000000000000000000000291508080600101915050612204565b5b5050919050565b600080600060026004016000600260000160089054906101000a900478010000000000000000000000000000000000000000000000000277ffffffffffffffffffffffffffffffffffffffffffffffff191677ffffffffffffffffffffffffffffffffffffffffffffffff1916815260200190815260200160002060010160009054906101000a90047801000000000000000000000000000000000000000000000000029150600280600101540390505b60008111156125e35760007801000000000000000000000000000000000000000000000000028277ffffffffffffffffffffffffffffffffffffffffffffffff191614156124fe57600078010000000000000000000000000000000000000000000000000292506125e4565b83600260040160008477ffffffffffffffffffffffffffffffffffffffffffffffff191677ffffffffffffffffffffffffffffffffffffffffffffffff191681526020019081526020016000206002015410151561255e578192506125e4565b600260040160008377ffffffffffffffffffffffffffffffffffffffffffffffff191677ffffffffffffffffffffffffffffffffffffffffffffffff1916815260200190815260200160002060010160009054906101000a90047801000000000000000000000000000000000000000000000000029150808060019003915050612492565b5b5050919050565b60008060007801000000000000000000000000000000000000000000000000028377ffffffffffffffffffffffffffffffffffffffffffffffff191614156126365760019150613166565b600260040160008477ffffffffffffffffffffffffffffffffffffffffffffffff191677ffffffffffffffffffffffffffffffffffffffffffffffff191681526020019081526020016000206002015490506000780100000000000000000000000000000000000000000000000002600260040160008577ffffffffffffffffffffffffffffffffffffffffffffffff191677ffffffffffffffffffffffffffffffffffffffffffffffff1916815260200190815260200160002060010160009054906101000a900478010000000000000000000000000000000000000000000000000277ffffffffffffffffffffffffffffffffffffffffffffffff191614156129d757600260040160008477ffffffffffffffffffffffffffffffffffffffffffffffff191677ffffffffffffffffffffffffffffffffffffffffffffffff1916815260200190815260200160002060010160089054906101000a9004780100000000000000000000000000000000000000000000000002600260000160006101000a81548167ffffffffffffffff021916908378010000000000000000000000000000000000000000000000009004021790555060026004016000600260040160008677ffffffffffffffffffffffffffffffffffffffffffffffff191677ffffffffffffffffffffffffffffffffffffffffffffffff1916815260200190815260200160002060010160089054906101000a900478010000000000000000000000000000000000000000000000000277ffffffffffffffffffffffffffffffffffffffffffffffff191677ffffffffffffffffffffffffffffffffffffffffffffffff1916815260200190815260200160002060020154600260030181905550600078010000000000000000000000000000000000000000000000000260026004016000600260040160008777ffffffffffffffffffffffffffffffffffffffffffffffff191677ffffffffffffffffffffffffffffffffffffffffffffffff1916815260200190815260200160002060010160089054906101000a900478010000000000000000000000000000000000000000000000000277ffffffffffffffffffffffffffffffffffffffffffffffff191677ffffffffffffffffffffffffffffffffffffffffffffffff1916815260200190815260200160002060010160006101000a81548167ffffffffffffffff0219169083780100000000000000000000000000000000000000000000000090040217905550612b48565b600260040160008477ffffffffffffffffffffffffffffffffffffffffffffffff191677ffffffffffffffffffffffffffffffffffffffffffffffff1916815260200190815260200160002060010160089054906101000a900478010000000000000000000000000000000000000000000000000260026004016000600260040160008777ffffffffffffffffffffffffffffffffffffffffffffffff191677ffffffffffffffffffffffffffffffffffffffffffffffff1916815260200190815260200160002060010160009054906101000a900478010000000000000000000000000000000000000000000000000277ffffffffffffffffffffffffffffffffffffffffffffffff191677ffffffffffffffffffffffffffffffffffffffffffffffff1916815260200190815260200160002060010160086101000a81548167ffffffffffffffff02191690837801000000000000000000000000000000000000000000000000900402179055505b6000780100000000000000000000000000000000000000000000000002600260040160008577ffffffffffffffffffffffffffffffffffffffffffffffff191677ffffffffffffffffffffffffffffffffffffffffffffffff1916815260200190815260200160002060010160089054906101000a900478010000000000000000000000000000000000000000000000000277ffffffffffffffffffffffffffffffffffffffffffffffff19161415612e9657600260040160008477ffffffffffffffffffffffffffffffffffffffffffffffff191677ffffffffffffffffffffffffffffffffffffffffffffffff1916815260200190815260200160002060010160009054906101000a9004780100000000000000000000000000000000000000000000000002600260000160086101000a81548167ffffffffffffffff021916908378010000000000000000000000000000000000000000000000009004021790555060026004016000600260040160008677ffffffffffffffffffffffffffffffffffffffffffffffff191677ffffffffffffffffffffffffffffffffffffffffffffffff1916815260200190815260200160002060010160009054906101000a900478010000000000000000000000000000000000000000000000000277ffffffffffffffffffffffffffffffffffffffffffffffff191677ffffffffffffffffffffffffffffffffffffffffffffffff19168152602001908152602001600020600201546002800181905550600078010000000000000000000000000000000000000000000000000260026004016000600260040160008777ffffffffffffffffffffffffffffffffffffffffffffffff191677ffffffffffffffffffffffffffffffffffffffffffffffff1916815260200190815260200160002060010160009054906101000a900478010000000000000000000000000000000000000000000000000277ffffffffffffffffffffffffffffffffffffffffffffffff191677ffffffffffffffffffffffffffffffffffffffffffffffff1916815260200190815260200160002060010160086101000a81548167ffffffffffffffff0219169083780100000000000000000000000000000000000000000000000090040217905550613007565b600260040160008477ffffffffffffffffffffffffffffffffffffffffffffffff191677ffffffffffffffffffffffffffffffffffffffffffffffff1916815260200190815260200160002060010160009054906101000a900478010000000000000000000000000000000000000000000000000260026004016000600260040160008777ffffffffffffffffffffffffffffffffffffffffffffffff191677ffffffffffffffffffffffffffffffffffffffffffffffff1916815260200190815260200160002060010160089054906101000a900478010000000000000000000000000000000000000000000000000277ffffffffffffffffffffffffffffffffffffffffffffffff191677ffffffffffffffffffffffffffffffffffffffffffffffff1916815260200190815260200160002060010160006101000a81548167ffffffffffffffff02191690837801000000000000000000000000000000000000000000000000900402179055505b600260040160008477ffffffffffffffffffffffffffffffffffffffffffffffff191677ffffffffffffffffffffffffffffffffffffffffffffffff19168152602001908152602001600020600080820160006101000a81549073ffffffffffffffffffffffffffffffffffffffff02191690556000820160146101000a81549067ffffffffffffffff02191690556001820160006101000a81549067ffffffffffffffff02191690556001820160086101000a81549067ffffffffffffffff021916905560028201600090555050600260010160008154809291906001900391905055507f99aa1dd495a32ebf4bc11bd7117f3b34467068008b748a7b8683c95dba2366458382604051808377ffffffffffffffffffffffffffffffffffffffffffffffff191677ffffffffffffffffffffffffffffffffffffffffffffffff191681526020018281526020019250505060405180910390a1600191505b50919050565b602060405190810160405280600081525090565b6020604051908101604052806000815250905600a165627a7a72305820edf2e3517e17dc6a479618e22bb461876c1b2d62f9a718cb61c256ac90948c630029",
  "source": "pragma solidity ^0.4.21;\n\nimport \"./Auth.sol\";\nimport \"../chronologic/contracts/DayToken.sol\";\nimport \"./PriorityQueue.sol\";\n\ncontract ClaimElection is Auth {\n    PriorityQueue public pQueue;\n    DayToken public token;\n\n    //constructor\n    function ClaimElection() public {\n        pQueue = new PriorityQueue();\n    }\n\n    function setToken(address _t) public auth {\n        token = DayToken(_t);\n    }\n\n    struct Bond {\n        uint256 value;\n        // uint256 depositedAt;\n    }\n\n    mapping (address => mapping(uint256 => Bond)) bonds;\n    mapping (address => uint256) numBonds;\n\n    // Timenode cooldown\n    mapping (address => uint256) cooldown;\n\n    function joinQueue(uint256 _amt, bytes8 _pos)\n        public returns (bool success)\n    {\n        uint256 tokenBal = token.balanceOf(msg.sender);\n        require(tokenBal >= _amt);\n\n        token.transferFrom(msg.sender, address(this), _amt);\n        uint256 nextBond = numBonds[msg.sender]++;\n        bonds[msg.sender][nextBond] = Bond({\n            value: _amt\n        });\n\n        pQueue.insert(_pos, _amt, msg.sender);\n\n        // startCooldown(msg.sender);\n        return true;\n    }\n\n    function getNumBonds(address _tn)\n        public view returns (uint256)\n    {\n        return numBonds[_tn];\n    }\n\n    function getBond(address _tn, uint256 _num)\n        public view returns (uint256)\n    {\n        return bonds[_tn][_num].value;\n    }\n\n    function getNext()\n        auth\n        public returns (address)\n    {\n        if (pQueue.isEmpty()) {\n            return address(0x0);\n        }\n\n        var (_, next) = pQueue.pop();\n\n        return next;\n    }\n\n    function isEmpty()\n        public view returns (bool)\n    {\n        return pQueue.isEmpty();\n    }\n}\n",
  "sourcePath": "/home/logan/Work/v2/chronos/contracts/ClaimElection.sol",
  "compiler": {
    "name": "solc",
    "version": "0.4.21+commit.dfe3193c.Emscripten.clang"
  },
  "schemaVersion": "2.0.0",
  "updatedAt": "2018-05-15T13:38:54.626Z"
}