{
  "contractName": "ConditionalTransaction",
  "abi": [
    {
      "constant": true,
      "inputs": [
        {
          "name": "",
          "type": "uint256"
        }
      ],
      "name": "checkCallData",
      "outputs": [
        {
          "name": "",
          "type": "bytes"
        }
      ],
      "payable": false,
      "stateMutability": "view",
      "type": "function"
    },
    {
      "constant": true,
      "inputs": [],
      "name": "callData",
      "outputs": [
        {
          "name": "",
          "type": "bytes"
        }
      ],
      "payable": false,
      "stateMutability": "view",
      "type": "function"
    },
    {
      "constant": true,
      "inputs": [
        {
          "name": "",
          "type": "uint256"
        }
      ],
      "name": "checkReceivers",
      "outputs": [
        {
          "name": "",
          "type": "address"
        }
      ],
      "payable": false,
      "stateMutability": "view",
      "type": "function"
    },
    {
      "constant": true,
      "inputs": [],
      "name": "receiver",
      "outputs": [
        {
          "name": "",
          "type": "address"
        }
      ],
      "payable": false,
      "stateMutability": "view",
      "type": "function"
    },
    {
      "inputs": [
        {
          "name": "_receiver",
          "type": "address"
        },
        {
          "name": "_callData",
          "type": "bytes"
        },
        {
          "name": "_checkReceivers",
          "type": "address[]"
        },
        {
          "name": "_checkCallData",
          "type": "bytes[]"
        }
      ],
      "payable": false,
      "stateMutability": "nonpayable",
      "type": "constructor"
    },
    {
      "constant": true,
      "inputs": [],
      "name": "canExecute",
      "outputs": [
        {
          "name": "",
          "type": "bool"
        }
      ],
      "payable": false,
      "stateMutability": "view",
      "type": "function"
    }
  ],
  "bytecode": "0x606060405234156200001057600080fd5b60405162000dba38038062000dba833981016040526200003a90678000000000000000906200059e565b836000806101000a81548173ffffffffffffffffffffffffffffffffffffffff021916908373ffffffffffffffffffffffffffffffffffffffff160217905550826001908051906020019062000092929190620000cf565b508160029080519060200190620000ab92919062000156565b508060039080519060200190620000c4929190620001e5565b505050505062000785565b828054600181600116156101000203166002900490600052602060002090601f016020900481019282601f106200011257805160ff191683800117855562000143565b8280016001018555821562000143579182015b828111156200014257825182559160200191906001019062000125565b5b5090506200015291906200024c565b5090565b828054828255906000526020600020908101928215620001d2579160200282015b82811115620001d15782518260006101000a81548173ffffffffffffffffffffffffffffffffffffffff021916908373ffffffffffffffffffffffffffffffffffffffff1602179055509160200191906001019062000177565b5b509050620001e1919062000274565b5090565b82805482825590600052602060002090810192821562000239579160200282015b828111156200023857825182908051906020019062000227929190620002ba565b509160200191906001019062000206565b5b50905062000248919062000341565b5090565b6200027191905b808211156200026d57600081600090555060010162000253565b5090565b90565b620002b791905b80821115620002b357600081816101000a81549073ffffffffffffffffffffffffffffffffffffffff0219169055506001016200027b565b5090565b90565b828054600181600116156101000203166002900490600052602060002090601f016020900481019282601f10620002fd57805160ff19168380011785556200032e565b828001600101855582156200032e579182015b828111156200032d57825182559160200191906001019062000310565b5b5090506200033d91906200024c565b5090565b6200036f91905b808211156200036b576000818162000361919062000372565b5060010162000348565b5090565b90565b50805460018160011615610100020316600290046000825580601f106200039a5750620003bb565b601f016020900490600052602060002090810190620003ba91906200024c565b5b50565b6000620003cc82516200072f565b905092915050565b600082601f8301121515620003e857600080fd5b8151620003ff620003f98262000683565b62000655565b915081818352602084019350602081019050838560208402820111156200042557600080fd5b60005b838110156200045957816200043e8882620003be565b84526020840193506020830192505060018101905062000428565b5050505092915050565b600082601f83011215156200047757600080fd5b81516200048e6200048882620006ac565b62000655565b9150818183526020840193506020810190508360005b83811015620004d85781518601620004bd8882620004e2565b845260208401935060208301925050600181019050620004a4565b5050505092915050565b600082601f8301121515620004f657600080fd5b81516200050d6200050782620006d5565b62000655565b915080825260208301602083018583830111156200052a57600080fd5b620005378382846200074f565b50505092915050565b600082601f83011215156200055457600080fd5b81516200056b620005658262000702565b62000655565b915080825260208301602083018583830111156200058857600080fd5b620005958382846200074f565b50505092915050565b60008060008060808587031215620005b557600080fd5b6000620005c587828801620003be565b945050602085015167ffffffffffffffff811115620005e357600080fd5b620005f18782880162000540565b935050604085015167ffffffffffffffff8111156200060f57600080fd5b6200061d87828801620003d4565b925050606085015167ffffffffffffffff8111156200063b57600080fd5b620006498782880162000463565b91505092959194509250565b6000604051905081810181811067ffffffffffffffff821117156200067957600080fd5b8060405250919050565b600067ffffffffffffffff8211156200069b57600080fd5b602082029050602081019050919050565b600067ffffffffffffffff821115620006c457600080fd5b602082029050602081019050919050565b600067ffffffffffffffff821115620006ed57600080fd5b601f19601f8301169050602081019050919050565b600067ffffffffffffffff8211156200071a57600080fd5b601f19601f8301169050602081019050919050565b600073ffffffffffffffffffffffffffffffffffffffff82169050919050565b60005b838110156200076f57808201518184015260208101905062000752565b838111156200077f576000848401525b50505050565b61062580620007956000396000f30060606040526004361061006d576000357c0100000000000000000000000000000000000000000000000000000000900463ffffffff1680632e868531146100725780634e417a98146100a857806354d3bcff146100d157806378b9033714610107578063f7260d3e14610130575b600080fd5b341561007d57600080fd5b610092600461008d903690610491565b610159565b60405161009f9190610544565b60405180910390f35b34156100b357600080fd5b6100bb610215565b6040516100c89190610544565b60405180910390f35b34156100dc57600080fd5b6100f160046100ec903690610491565b6102b3565b6040516100fe919061050e565b60405180910390f35b341561011257600080fd5b61011a6102f2565b6040516101279190610529565b60405180910390f35b341561013b57600080fd5b610143610430565b604051610150919061050e565b60405180910390f35b60038181548110151561016857fe5b90600052602060002090016000915090508054600181600116156101000203166002900480601f01602080910402602001604051908101604052809291908181526020018280546001816001161561010002031660029004801561020d5780601f106101e25761010080835404028352916020019161020d565b820191906000526020600020905b8154815290600101906020018083116101f057829003601f168201915b505050505081565b60018054600181600116156101000203166002900480601f0160208091040260200160405190810160405280929190818152602001828054600181600116156101000203166002900480156102ab5780601f10610280576101008083540402835291602001916102ab565b820191906000526020600020905b81548152906001019060200180831161028e57829003601f168201915b505050505081565b6002818154811015156102c257fe5b90600052602060002090016000915054906101000a900473ffffffffffffffffffffffffffffffffffffffff1681565b60008060008091505b600280549050821015610426576103fe60028381548110151561031a57fe5b906000526020600020900160009054906101000a900473ffffffffffffffffffffffffffffffffffffffff1660038481548110151561035557fe5b90600052602060002090018054600181600116156101000203166002900480601f0160208091040260200160405190810160405280929190818152602001828054600181600116156101000203166002900480156103f45780601f106103c9576101008083540402835291602001916103f4565b820191906000526020600020905b8154815290600101906020018083116103d757829003601f168201915b5050505050610455565b9050600060010281600019161415610419576000925061042b565b81806001019250506102fb565b600192505b505090565b6000809054906101000a900473ffffffffffffffffffffffffffffffffffffffff1681565b6000604051602081845160208601600088611388f15080519150602081016040525092915050565b6000610489823561059d565b905092915050565b6000602082840312156104a357600080fd5b60006104b18482850161047d565b91505092915050565b6104c381610571565b82525050565b6104d281610591565b82525050565b60006104e382610566565b8084526104f78160208601602086016105a7565b610500816105da565b602085010191505092915050565b600060208201905061052360008301846104ba565b92915050565b600060208201905061053e60008301846104c9565b92915050565b6000602082019050818103600083015261055e81846104d8565b905092915050565b600081519050919050565b600073ffffffffffffffffffffffffffffffffffffffff82169050919050565b60008115159050919050565b6000819050919050565b60005b838110156105c55780820151818401526020810190506105aa565b838111156105d4576000848401525b50505050565b6000601f19601f83011690509190505600a265627a7a7230582051130d48124d2d40fc83373707870b3bbea9ed8ba9b9cb647840672da71b9a756c6578706572696d656e74616cf50037",
  "source": "pragma experimental ABIEncoderV2;\n\ncontract ConditionalTransaction {\n    address public receiver;\n    bytes public callData;\n    \n    address[] public checkReceivers;\n    bytes[] public checkCallData;\n\n    function ConditionalTransaction(address _receiver, bytes _callData, address[] _checkReceivers, bytes[] _checkCallData) {\n        receiver = _receiver;\n        callData = _callData;\n        \n        checkReceivers = _checkReceivers;\n        checkCallData = _checkCallData;\n    }\n    \n    function canExecute() public constant returns(bool) {\n        for (uint i=0; i<checkReceivers.length; i++) {\n            bytes32 res = callWithData(checkReceivers[i], checkCallData[i]);\n            if (res==0) return false;\n        }\n        return true;\n    }\n    \n    function callWithData(address dest, bytes data) private returns (bytes32 c) {\n        assembly {\n            let freemem := mload(0x40)\n            \n            pop(\n            call(      \n                5000, //5k gas\n                dest, //To addr\n                0,    //No value\n                add(data, 0x20),    //Inputs are stored at location x\n                mload(data),\n                freemem,    //Store output over input (saves space)\n                0x20 //Outputs are 32 bytes long\n            )\n            )\n    \n            c := mload(freemem) //Assign output value to c\n            mstore(0x40, add(freemem, 0x20)) // Set storage pointer to empty space\n        }\n    }\n}",
  "sourcePath": "/home/logan/Work/v2/chronos/contracts/ConditionalExecution.sol",
  "compiler": {
    "name": "solc",
    "version": "0.4.21+commit.dfe3193c.Emscripten.clang"
  },
  "schemaVersion": "2.0.0",
  "updatedAt": "2018-05-15T13:38:54.628Z"
}