{
  "contractName": "ConditionDestination",
  "abi": [
    {
      "constant": true,
      "inputs": [
        {
          "name": "a",
          "type": "uint256"
        },
        {
          "name": "b",
          "type": "uint256"
        }
      ],
      "name": "isGreater",
      "outputs": [
        {
          "name": "",
          "type": "bool"
        }
      ],
      "payable": false,
      "stateMutability": "pure",
      "type": "function"
    },
    {
      "constant": true,
      "inputs": [
        {
          "name": "value",
          "type": "uint256"
        },
        {
          "name": "l",
          "type": "uint256"
        },
        {
          "name": "r",
          "type": "uint256"
        }
      ],
      "name": "inRange",
      "outputs": [
        {
          "name": "",
          "type": "bool"
        }
      ],
      "payable": false,
      "stateMutability": "pure",
      "type": "function"
    }
  ],
  "bytecode": "0x6060604052341561000f57600080fd5b6101368061001e6000396000f30060606040526004361061004c576000357c0100000000000000000000000000000000000000000000000000000000900463ffffffff16806322800a8114610051578063705f669d14610095575b600080fd5b341561005c57600080fd5b61007b60048080359060200190919080359060200190919050506100e2565b604051808215151515815260200191505060405180910390f35b34156100a057600080fd5b6100c860048080359060200190919080359060200190919080359060200190919050506100ef565b604051808215151515815260200191505060405180910390f35b6000818311905092915050565b60008383111580156101015750818411155b905093925050505600a165627a7a723058206c0a64c6b5c4a00e8766b0abf90ea41c9c9edd51da64436c811a0236cf6c918f0029",
  "source": "pragma solidity ^0.4.21;\n\ncontract ConditionDestination {\n  function isGreater(uint a, uint b)\n    public pure returns (bool)\n  {\n    return a > b;\n  }\n\n  function inRange(uint value, uint l, uint r)\n    public pure returns (bool)\n  {\n    return l <= value && value <= r;\n  }\n}",
  "sourcePath": "/home/logan/Work/v2/chronos/contracts/helpers/ConditionDestination.sol",
  "compiler": {
    "name": "solc",
    "version": "0.4.21+commit.dfe3193c.Emscripten.clang"
  },
  "schemaVersion": "2.0.0",
  "updatedAt": "2018-05-15T13:38:54.637Z"
}