{
  "contractName": "DayToken",
  "abi": [
    {
      "constant": false,
      "inputs": [
        {
          "name": "addr",
          "type": "address"
        },
        {
          "name": "state",
          "type": "bool"
        }
      ],
      "name": "setTransferAgent",
      "outputs": [],
      "payable": false,
      "stateMutability": "nonpayable",
      "type": "function"
    },
    {
      "constant": true,
      "inputs": [],
      "name": "totalNormalContributorIdsAllocated",
      "outputs": [
        {
          "name": "",
          "type": "uint256"
        }
      ],
      "payable": false,
      "stateMutability": "view",
      "type": "function"
    },
    {
      "constant": true,
      "inputs": [],
      "name": "mintingFinished",
      "outputs": [
        {
          "name": "",
          "type": "bool"
        }
      ],
      "payable": false,
      "stateMutability": "view",
      "type": "function"
    },
    {
      "constant": true,
      "inputs": [],
      "name": "name",
      "outputs": [
        {
          "name": "",
          "type": "string"
        }
      ],
      "payable": false,
      "stateMutability": "view",
      "type": "function"
    },
    {
      "constant": false,
      "inputs": [
        {
          "name": "_spender",
          "type": "address"
        },
        {
          "name": "_value",
          "type": "uint256"
        }
      ],
      "name": "approve",
      "outputs": [
        {
          "name": "success",
          "type": "bool"
        }
      ],
      "payable": false,
      "stateMutability": "nonpayable",
      "type": "function"
    },
    {
      "constant": true,
      "inputs": [],
      "name": "teamLockPeriodInSec",
      "outputs": [
        {
          "name": "",
          "type": "uint256"
        }
      ],
      "payable": false,
      "stateMutability": "view",
      "type": "function"
    },
    {
      "constant": true,
      "inputs": [],
      "name": "firstTeamContributorId",
      "outputs": [
        {
          "name": "",
          "type": "uint256"
        }
      ],
      "payable": false,
      "stateMutability": "view",
      "type": "function"
    },
    {
      "constant": true,
      "inputs": [],
      "name": "totalSupply",
      "outputs": [
        {
          "name": "",
          "type": "uint256"
        }
      ],
      "payable": false,
      "stateMutability": "view",
      "type": "function"
    },
    {
      "constant": true,
      "inputs": [],
      "name": "totalPostIcoContributorIdsAllocated",
      "outputs": [
        {
          "name": "",
          "type": "uint256"
        }
      ],
      "payable": false,
      "stateMutability": "view",
      "type": "function"
    },
    {
      "constant": false,
      "inputs": [
        {
          "name": "addr",
          "type": "address"
        }
      ],
      "name": "setReleaseAgent",
      "outputs": [],
      "payable": false,
      "stateMutability": "nonpayable",
      "type": "function"
    },
    {
      "constant": true,
      "inputs": [],
      "name": "decimals",
      "outputs": [
        {
          "name": "",
          "type": "uint8"
        }
      ],
      "payable": false,
      "stateMutability": "view",
      "type": "function"
    },
    {
      "constant": true,
      "inputs": [
        {
          "name": "",
          "type": "uint256"
        }
      ],
      "name": "contributors",
      "outputs": [
        {
          "name": "adr",
          "type": "address"
        },
        {
          "name": "initialContributionDay",
          "type": "uint256"
        },
        {
          "name": "lastUpdatedOn",
          "type": "uint256"
        },
        {
          "name": "mintingPower",
          "type": "uint256"
        },
        {
          "name": "expiryBlockNumber",
          "type": "uint256"
        },
        {
          "name": "minPriceInDay",
          "type": "uint256"
        },
        {
          "name": "status",
          "type": "uint8"
        }
      ],
      "payable": false,
      "stateMutability": "view",
      "type": "function"
    },
    {
      "constant": false,
      "inputs": [
        {
          "name": "receiver",
          "type": "address"
        },
        {
          "name": "amount",
          "type": "uint256"
        }
      ],
      "name": "mint",
      "outputs": [],
      "payable": false,
      "stateMutability": "nonpayable",
      "type": "function"
    },
    {
      "constant": true,
      "inputs": [
        {
          "name": "",
          "type": "address"
        }
      ],
      "name": "mintAgents",
      "outputs": [
        {
          "name": "",
          "type": "bool"
        }
      ],
      "payable": false,
      "stateMutability": "view",
      "type": "function"
    },
    {
      "constant": false,
      "inputs": [
        {
          "name": "addr",
          "type": "address"
        },
        {
          "name": "state",
          "type": "bool"
        }
      ],
      "name": "setMintAgent",
      "outputs": [],
      "payable": false,
      "stateMutability": "nonpayable",
      "type": "function"
    },
    {
      "constant": false,
      "inputs": [
        {
          "name": "value",
          "type": "uint256"
        }
      ],
      "name": "upgrade",
      "outputs": [],
      "payable": false,
      "stateMutability": "nonpayable",
      "type": "function"
    },
    {
      "constant": true,
      "inputs": [],
      "name": "halvingCycle",
      "outputs": [
        {
          "name": "",
          "type": "uint256"
        }
      ],
      "payable": false,
      "stateMutability": "view",
      "type": "function"
    },
    {
      "constant": true,
      "inputs": [],
      "name": "DayInSecs",
      "outputs": [
        {
          "name": "",
          "type": "uint256"
        }
      ],
      "payable": false,
      "stateMutability": "view",
      "type": "function"
    },
    {
      "constant": true,
      "inputs": [
        {
          "name": "",
          "type": "address"
        }
      ],
      "name": "teamIssuedTimestamp",
      "outputs": [
        {
          "name": "",
          "type": "uint256"
        }
      ],
      "payable": false,
      "stateMutability": "view",
      "type": "function"
    },
    {
      "constant": true,
      "inputs": [],
      "name": "initialBlockTimestamp",
      "outputs": [
        {
          "name": "",
          "type": "uint256"
        }
      ],
      "payable": false,
      "stateMutability": "view",
      "type": "function"
    },
    {
      "constant": true,
      "inputs": [],
      "name": "mintingDec",
      "outputs": [
        {
          "name": "",
          "type": "uint256"
        }
      ],
      "payable": false,
      "stateMutability": "view",
      "type": "function"
    },
    {
      "constant": true,
      "inputs": [],
      "name": "maxMintingPower",
      "outputs": [
        {
          "name": "",
          "type": "uint256"
        }
      ],
      "payable": false,
      "stateMutability": "view",
      "type": "function"
    },
    {
      "constant": true,
      "inputs": [
        {
          "name": "",
          "type": "address"
        }
      ],
      "name": "soldAddresses",
      "outputs": [
        {
          "name": "",
          "type": "bool"
        }
      ],
      "payable": false,
      "stateMutability": "view",
      "type": "function"
    },
    {
      "constant": true,
      "inputs": [],
      "name": "minMintingPower",
      "outputs": [
        {
          "name": "",
          "type": "uint256"
        }
      ],
      "payable": false,
      "stateMutability": "view",
      "type": "function"
    },
    {
      "constant": true,
      "inputs": [],
      "name": "upgradeAgent",
      "outputs": [
        {
          "name": "",
          "type": "address"
        }
      ],
      "payable": false,
      "stateMutability": "view",
      "type": "function"
    },
    {
      "constant": true,
      "inputs": [],
      "name": "upgradeMaster",
      "outputs": [
        {
          "name": "",
          "type": "address"
        }
      ],
      "payable": false,
      "stateMutability": "view",
      "type": "function"
    },
    {
      "constant": true,
      "inputs": [],
      "name": "totalTeamContributorIdsAllocated",
      "outputs": [
        {
          "name": "",
          "type": "uint256"
        }
      ],
      "payable": false,
      "stateMutability": "view",
      "type": "function"
    },
    {
      "constant": false,
      "inputs": [],
      "name": "acceptOwnership",
      "outputs": [],
      "payable": false,
      "stateMutability": "nonpayable",
      "type": "function"
    },
    {
      "constant": true,
      "inputs": [],
      "name": "getUpgradeState",
      "outputs": [
        {
          "name": "",
          "type": "uint8"
        }
      ],
      "payable": false,
      "stateMutability": "view",
      "type": "function"
    },
    {
      "constant": true,
      "inputs": [
        {
          "name": "",
          "type": "address"
        }
      ],
      "name": "transferAgents",
      "outputs": [
        {
          "name": "",
          "type": "bool"
        }
      ],
      "payable": false,
      "stateMutability": "view",
      "type": "function"
    },
    {
      "constant": true,
      "inputs": [],
      "name": "owner",
      "outputs": [
        {
          "name": "",
          "type": "address"
        }
      ],
      "payable": false,
      "stateMutability": "view",
      "type": "function"
    },
    {
      "constant": true,
      "inputs": [
        {
          "name": "",
          "type": "address"
        }
      ],
      "name": "sellingPriceInDayOf",
      "outputs": [
        {
          "name": "",
          "type": "uint256"
        }
      ],
      "payable": false,
      "stateMutability": "view",
      "type": "function"
    },
    {
      "constant": true,
      "inputs": [],
      "name": "totalPostIcoContributorIds",
      "outputs": [
        {
          "name": "",
          "type": "uint256"
        }
      ],
      "payable": false,
      "stateMutability": "view",
      "type": "function"
    },
    {
      "constant": true,
      "inputs": [],
      "name": "maxAddresses",
      "outputs": [
        {
          "name": "",
          "type": "uint256"
        }
      ],
      "payable": false,
      "stateMutability": "view",
      "type": "function"
    },
    {
      "constant": true,
      "inputs": [],
      "name": "symbol",
      "outputs": [
        {
          "name": "",
          "type": "string"
        }
      ],
      "payable": false,
      "stateMutability": "view",
      "type": "function"
    },
    {
      "constant": true,
      "inputs": [],
      "name": "released",
      "outputs": [
        {
          "name": "",
          "type": "bool"
        }
      ],
      "payable": false,
      "stateMutability": "view",
      "type": "function"
    },
    {
      "constant": true,
      "inputs": [],
      "name": "isInitialBlockTimestampSet",
      "outputs": [
        {
          "name": "",
          "type": "bool"
        }
      ],
      "payable": false,
      "stateMutability": "view",
      "type": "function"
    },
    {
      "constant": true,
      "inputs": [],
      "name": "firstPostIcoContributorId",
      "outputs": [
        {
          "name": "",
          "type": "uint256"
        }
      ],
      "payable": false,
      "stateMutability": "view",
      "type": "function"
    },
    {
      "constant": true,
      "inputs": [
        {
          "name": "a",
          "type": "uint256"
        },
        {
          "name": "b",
          "type": "uint256"
        }
      ],
      "name": "safeSub",
      "outputs": [
        {
          "name": "",
          "type": "uint256"
        }
      ],
      "payable": false,
      "stateMutability": "view",
      "type": "function"
    },
    {
      "constant": true,
      "inputs": [],
      "name": "maxMintingDays",
      "outputs": [
        {
          "name": "",
          "type": "uint256"
        }
      ],
      "payable": false,
      "stateMutability": "view",
      "type": "function"
    },
    {
      "constant": true,
      "inputs": [],
      "name": "totalNormalContributorIds",
      "outputs": [
        {
          "name": "",
          "type": "uint256"
        }
      ],
      "payable": false,
      "stateMutability": "view",
      "type": "function"
    },
    {
      "constant": true,
      "inputs": [],
      "name": "totalTeamContributorIds",
      "outputs": [
        {
          "name": "",
          "type": "uint256"
        }
      ],
      "payable": false,
      "stateMutability": "view",
      "type": "function"
    },
    {
      "constant": true,
      "inputs": [],
      "name": "totalUpgraded",
      "outputs": [
        {
          "name": "",
          "type": "uint256"
        }
      ],
      "payable": false,
      "stateMutability": "view",
      "type": "function"
    },
    {
      "constant": true,
      "inputs": [],
      "name": "firstContributorId",
      "outputs": [
        {
          "name": "",
          "type": "uint256"
        }
      ],
      "payable": false,
      "stateMutability": "view",
      "type": "function"
    },
    {
      "constant": true,
      "inputs": [
        {
          "name": "a",
          "type": "uint256"
        },
        {
          "name": "b",
          "type": "uint256"
        }
      ],
      "name": "safeMul",
      "outputs": [
        {
          "name": "",
          "type": "uint256"
        }
      ],
      "payable": false,
      "stateMutability": "view",
      "type": "function"
    },
    {
      "constant": true,
      "inputs": [],
      "name": "releaseAgent",
      "outputs": [
        {
          "name": "",
          "type": "address"
        }
      ],
      "payable": false,
      "stateMutability": "view",
      "type": "function"
    },
    {
      "constant": true,
      "inputs": [],
      "name": "minBalanceToSell",
      "outputs": [
        {
          "name": "",
          "type": "uint256"
        }
      ],
      "payable": false,
      "stateMutability": "view",
      "type": "function"
    },
    {
      "constant": true,
      "inputs": [],
      "name": "newOwner",
      "outputs": [
        {
          "name": "",
          "type": "address"
        }
      ],
      "payable": false,
      "stateMutability": "view",
      "type": "function"
    },
    {
      "constant": false,
      "inputs": [
        {
          "name": "agent",
          "type": "address"
        }
      ],
      "name": "setUpgradeAgent",
      "outputs": [],
      "payable": false,
      "stateMutability": "nonpayable",
      "type": "function"
    },
    {
      "constant": true,
      "inputs": [
        {
          "name": "",
          "type": "address"
        }
      ],
      "name": "idOf",
      "outputs": [
        {
          "name": "",
          "type": "uint256"
        }
      ],
      "payable": false,
      "stateMutability": "view",
      "type": "function"
    },
    {
      "constant": true,
      "inputs": [
        {
          "name": "_owner",
          "type": "address"
        },
        {
          "name": "_spender",
          "type": "address"
        }
      ],
      "name": "allowance",
      "outputs": [
        {
          "name": "remaining",
          "type": "uint256"
        }
      ],
      "payable": false,
      "stateMutability": "view",
      "type": "function"
    },
    {
      "constant": true,
      "inputs": [
        {
          "name": "a",
          "type": "uint256"
        },
        {
          "name": "b",
          "type": "uint256"
        }
      ],
      "name": "safeAdd",
      "outputs": [
        {
          "name": "",
          "type": "uint256"
        }
      ],
      "payable": false,
      "stateMutability": "view",
      "type": "function"
    },
    {
      "constant": false,
      "inputs": [
        {
          "name": "_newOwner",
          "type": "address"
        }
      ],
      "name": "transferOwnership",
      "outputs": [],
      "payable": false,
      "stateMutability": "nonpayable",
      "type": "function"
    },
    {
      "constant": false,
      "inputs": [
        {
          "name": "master",
          "type": "address"
        }
      ],
      "name": "setUpgradeMaster",
      "outputs": [],
      "payable": false,
      "stateMutability": "nonpayable",
      "type": "function"
    },
    {
      "inputs": [
        {
          "name": "_name",
          "type": "string"
        },
        {
          "name": "_symbol",
          "type": "string"
        },
        {
          "name": "_initialSupply",
          "type": "uint256"
        },
        {
          "name": "_decimals",
          "type": "uint8"
        },
        {
          "name": "_mintable",
          "type": "bool"
        },
        {
          "name": "_maxAddresses",
          "type": "uint256"
        },
        {
          "name": "_firstTeamContributorId",
          "type": "uint256"
        },
        {
          "name": "_totalTeamContributorIds",
          "type": "uint256"
        },
        {
          "name": "_totalPostIcoContributorIds",
          "type": "uint256"
        },
        {
          "name": "_minMintingPower",
          "type": "uint256"
        },
        {
          "name": "_maxMintingPower",
          "type": "uint256"
        },
        {
          "name": "_halvingCycle",
          "type": "uint256"
        },
        {
          "name": "_minBalanceToSell",
          "type": "uint256"
        },
        {
          "name": "_dayInSecs",
          "type": "uint256"
        },
        {
          "name": "_teamLockPeriodInSec",
          "type": "uint256"
        }
      ],
      "payable": false,
      "stateMutability": "nonpayable",
      "type": "constructor"
    },
    {
      "anonymous": false,
      "inputs": [
        {
          "indexed": false,
          "name": "newName",
          "type": "string"
        },
        {
          "indexed": false,
          "name": "newSymbol",
          "type": "string"
        }
      ],
      "name": "UpdatedTokenInformation",
      "type": "event"
    },
    {
      "anonymous": false,
      "inputs": [
        {
          "indexed": false,
          "name": "id",
          "type": "uint256"
        },
        {
          "indexed": false,
          "name": "from",
          "type": "address"
        },
        {
          "indexed": false,
          "name": "to",
          "type": "address"
        }
      ],
      "name": "MintingAdrTransferred",
      "type": "event"
    },
    {
      "anonymous": false,
      "inputs": [
        {
          "indexed": false,
          "name": "adr",
          "type": "address"
        },
        {
          "indexed": false,
          "name": "id",
          "type": "uint256"
        }
      ],
      "name": "ContributorAdded",
      "type": "event"
    },
    {
      "anonymous": false,
      "inputs": [
        {
          "indexed": false,
          "name": "id",
          "type": "uint256"
        },
        {
          "indexed": false,
          "name": "seller",
          "type": "address"
        },
        {
          "indexed": false,
          "name": "minPriceInDay",
          "type": "uint256"
        },
        {
          "indexed": false,
          "name": "expiryBlockNumber",
          "type": "uint256"
        }
      ],
      "name": "TimeMintOnSale",
      "type": "event"
    },
    {
      "anonymous": false,
      "inputs": [
        {
          "indexed": false,
          "name": "id",
          "type": "uint256"
        },
        {
          "indexed": false,
          "name": "buyer",
          "type": "address"
        },
        {
          "indexed": false,
          "name": "offerInDay",
          "type": "uint256"
        }
      ],
      "name": "TimeMintSold",
      "type": "event"
    },
    {
      "anonymous": false,
      "inputs": [
        {
          "indexed": false,
          "name": "investor",
          "type": "address"
        },
        {
          "indexed": false,
          "name": "weiAmount",
          "type": "uint256"
        },
        {
          "indexed": false,
          "name": "tokenAmount",
          "type": "uint256"
        },
        {
          "indexed": false,
          "name": "customerId",
          "type": "uint256"
        },
        {
          "indexed": false,
          "name": "contributorId",
          "type": "uint256"
        }
      ],
      "name": "PostInvested",
      "type": "event"
    },
    {
      "anonymous": false,
      "inputs": [
        {
          "indexed": false,
          "name": "teamAddress",
          "type": "address"
        },
        {
          "indexed": false,
          "name": "id",
          "type": "uint256"
        }
      ],
      "name": "TeamAddressAdded",
      "type": "event"
    },
    {
      "anonymous": false,
      "inputs": [
        {
          "indexed": false,
          "name": "receiver",
          "type": "address"
        },
        {
          "indexed": false,
          "name": "weiAmount",
          "type": "uint256"
        },
        {
          "indexed": false,
          "name": "tokenAmount",
          "type": "uint256"
        },
        {
          "indexed": false,
          "name": "customerId",
          "type": "uint256"
        },
        {
          "indexed": false,
          "name": "contributorId",
          "type": "uint256"
        }
      ],
      "name": "Invested",
      "type": "event"
    },
    {
      "anonymous": false,
      "inputs": [
        {
          "indexed": true,
          "name": "_from",
          "type": "address"
        },
        {
          "indexed": true,
          "name": "_to",
          "type": "address"
        },
        {
          "indexed": false,
          "name": "_value",
          "type": "uint256"
        }
      ],
      "name": "Upgrade",
      "type": "event"
    },
    {
      "anonymous": false,
      "inputs": [
        {
          "indexed": false,
          "name": "agent",
          "type": "address"
        }
      ],
      "name": "UpgradeAgentSet",
      "type": "event"
    },
    {
      "anonymous": false,
      "inputs": [
        {
          "indexed": false,
          "name": "addr",
          "type": "address"
        },
        {
          "indexed": false,
          "name": "state",
          "type": "bool"
        }
      ],
      "name": "MintingAgentChanged",
      "type": "event"
    },
    {
      "anonymous": false,
      "inputs": [
        {
          "indexed": true,
          "name": "_from",
          "type": "address"
        },
        {
          "indexed": true,
          "name": "_to",
          "type": "address"
        }
      ],
      "name": "OwnershipTransferred",
      "type": "event"
    },
    {
      "anonymous": false,
      "inputs": [
        {
          "indexed": false,
          "name": "receiver",
          "type": "address"
        },
        {
          "indexed": false,
          "name": "amount",
          "type": "uint256"
        }
      ],
      "name": "Minted",
      "type": "event"
    },
    {
      "anonymous": false,
      "inputs": [
        {
          "indexed": true,
          "name": "_owner",
          "type": "address"
        },
        {
          "indexed": true,
          "name": "_spender",
          "type": "address"
        },
        {
          "indexed": false,
          "name": "_value",
          "type": "uint256"
        }
      ],
      "name": "Approval",
      "type": "event"
    },
    {
      "anonymous": false,
      "inputs": [
        {
          "indexed": true,
          "name": "_from",
          "type": "address"
        },
        {
          "indexed": true,
          "name": "_to",
          "type": "address"
        },
        {
          "indexed": false,
          "name": "_value",
          "type": "uint256"
        }
      ],
      "name": "Transfer",
      "type": "event"
    },
    {
      "constant": true,
      "inputs": [],
      "name": "isDayTokenActivated",
      "outputs": [
        {
          "name": "isActivated",
          "type": "bool"
        }
      ],
      "payable": false,
      "stateMutability": "view",
      "type": "function"
    },
    {
      "constant": true,
      "inputs": [
        {
          "name": "_id",
          "type": "uint256"
        }
      ],
      "name": "isValidContributorId",
      "outputs": [
        {
          "name": "isValidContributor",
          "type": "bool"
        }
      ],
      "payable": false,
      "stateMutability": "view",
      "type": "function"
    },
    {
      "constant": true,
      "inputs": [
        {
          "name": "_address",
          "type": "address"
        }
      ],
      "name": "isValidContributorAddress",
      "outputs": [
        {
          "name": "isValidContributor",
          "type": "bool"
        }
      ],
      "payable": false,
      "stateMutability": "view",
      "type": "function"
    },
    {
      "constant": true,
      "inputs": [
        {
          "name": "_address",
          "type": "address"
        }
      ],
      "name": "isTeamLockInPeriodOverIfTeamAddress",
      "outputs": [
        {
          "name": "isLockInPeriodOver",
          "type": "bool"
        }
      ],
      "payable": false,
      "stateMutability": "view",
      "type": "function"
    },
    {
      "constant": false,
      "inputs": [
        {
          "name": "_mintingDec",
          "type": "uint256"
        }
      ],
      "name": "setMintingDec",
      "outputs": [],
      "payable": false,
      "stateMutability": "nonpayable",
      "type": "function"
    },
    {
      "constant": false,
      "inputs": [],
      "name": "releaseTokenTransfer",
      "outputs": [],
      "payable": false,
      "stateMutability": "nonpayable",
      "type": "function"
    },
    {
      "constant": true,
      "inputs": [],
      "name": "canUpgrade",
      "outputs": [
        {
          "name": "",
          "type": "bool"
        }
      ],
      "payable": false,
      "stateMutability": "view",
      "type": "function"
    },
    {
      "constant": false,
      "inputs": [
        {
          "name": "_name",
          "type": "string"
        },
        {
          "name": "_symbol",
          "type": "string"
        }
      ],
      "name": "setTokenInformation",
      "outputs": [],
      "payable": false,
      "stateMutability": "nonpayable",
      "type": "function"
    },
    {
      "constant": true,
      "inputs": [
        {
          "name": "_day",
          "type": "uint256"
        }
      ],
      "name": "getPhaseCount",
      "outputs": [
        {
          "name": "phase",
          "type": "uint256"
        }
      ],
      "payable": false,
      "stateMutability": "view",
      "type": "function"
    },
    {
      "constant": true,
      "inputs": [],
      "name": "getDayCount",
      "outputs": [
        {
          "name": "daySinceMintingEpoch",
          "type": "uint256"
        }
      ],
      "payable": false,
      "stateMutability": "view",
      "type": "function"
    },
    {
      "constant": true,
      "inputs": [
        {
          "name": "_id",
          "type": "uint256"
        }
      ],
      "name": "getMintingPowerById",
      "outputs": [
        {
          "name": "mintingPower",
          "type": "uint256"
        }
      ],
      "payable": false,
      "stateMutability": "view",
      "type": "function"
    },
    {
      "constant": true,
      "inputs": [
        {
          "name": "_adr",
          "type": "address"
        }
      ],
      "name": "getMintingPowerByAddress",
      "outputs": [
        {
          "name": "mintingPower",
          "type": "uint256"
        }
      ],
      "payable": false,
      "stateMutability": "view",
      "type": "function"
    },
    {
      "constant": true,
      "inputs": [
        {
          "name": "_adr",
          "type": "address"
        }
      ],
      "name": "balanceOf",
      "outputs": [
        {
          "name": "balance",
          "type": "uint256"
        }
      ],
      "payable": false,
      "stateMutability": "view",
      "type": "function"
    },
    {
      "constant": true,
      "inputs": [
        {
          "name": "_id",
          "type": "uint256"
        }
      ],
      "name": "balanceById",
      "outputs": [
        {
          "name": "balance",
          "type": "uint256"
        }
      ],
      "payable": false,
      "stateMutability": "view",
      "type": "function"
    },
    {
      "constant": true,
      "inputs": [],
      "name": "getTotalSupply",
      "outputs": [
        {
          "name": "",
          "type": "uint256"
        }
      ],
      "payable": false,
      "stateMutability": "view",
      "type": "function"
    },
    {
      "constant": false,
      "inputs": [
        {
          "name": "_id",
          "type": "uint256"
        }
      ],
      "name": "updateTimeMintBalance",
      "outputs": [
        {
          "name": "",
          "type": "bool"
        }
      ],
      "payable": false,
      "stateMutability": "nonpayable",
      "type": "function"
    },
    {
      "constant": false,
      "inputs": [],
      "name": "updateMyTimeMintBalance",
      "outputs": [
        {
          "name": "",
          "type": "bool"
        }
      ],
      "payable": false,
      "stateMutability": "nonpayable",
      "type": "function"
    },
    {
      "constant": false,
      "inputs": [
        {
          "name": "_to",
          "type": "address"
        },
        {
          "name": "_value",
          "type": "uint256"
        }
      ],
      "name": "transfer",
      "outputs": [
        {
          "name": "success",
          "type": "bool"
        }
      ],
      "payable": false,
      "stateMutability": "nonpayable",
      "type": "function"
    },
    {
      "constant": false,
      "inputs": [
        {
          "name": "_from",
          "type": "address"
        },
        {
          "name": "_to",
          "type": "address"
        },
        {
          "name": "_value",
          "type": "uint256"
        }
      ],
      "name": "transferFrom",
      "outputs": [
        {
          "name": "success",
          "type": "bool"
        }
      ],
      "payable": false,
      "stateMutability": "nonpayable",
      "type": "function"
    },
    {
      "constant": false,
      "inputs": [
        {
          "name": "_minPriceInDay",
          "type": "uint256"
        },
        {
          "name": "_expiryBlockNumber",
          "type": "uint256"
        }
      ],
      "name": "sellMintingAddress",
      "outputs": [
        {
          "name": "",
          "type": "bool"
        }
      ],
      "payable": false,
      "stateMutability": "nonpayable",
      "type": "function"
    },
    {
      "constant": false,
      "inputs": [],
      "name": "cancelSaleOfMintingAddress",
      "outputs": [],
      "payable": false,
      "stateMutability": "nonpayable",
      "type": "function"
    },
    {
      "constant": true,
      "inputs": [],
      "name": "getOnSaleIds",
      "outputs": [
        {
          "name": "",
          "type": "uint256[]"
        }
      ],
      "payable": false,
      "stateMutability": "view",
      "type": "function"
    },
    {
      "constant": true,
      "inputs": [
        {
          "name": "_id",
          "type": "uint256"
        }
      ],
      "name": "getSellingStatus",
      "outputs": [
        {
          "name": "status",
          "type": "uint8"
        }
      ],
      "payable": false,
      "stateMutability": "view",
      "type": "function"
    },
    {
      "constant": false,
      "inputs": [
        {
          "name": "_offerId",
          "type": "uint256"
        },
        {
          "name": "_offerInDay",
          "type": "uint256"
        }
      ],
      "name": "buyMintingAddress",
      "outputs": [
        {
          "name": "",
          "type": "bool"
        }
      ],
      "payable": false,
      "stateMutability": "nonpayable",
      "type": "function"
    },
    {
      "constant": false,
      "inputs": [],
      "name": "fetchSuccessfulSaleProceed",
      "outputs": [
        {
          "name": "",
          "type": "bool"
        }
      ],
      "payable": false,
      "stateMutability": "nonpayable",
      "type": "function"
    },
    {
      "constant": false,
      "inputs": [],
      "name": "refundFailedAuctionAmount",
      "outputs": [
        {
          "name": "",
          "type": "bool"
        }
      ],
      "payable": false,
      "stateMutability": "nonpayable",
      "type": "function"
    },
    {
      "constant": false,
      "inputs": [
        {
          "name": "_adr",
          "type": "address"
        },
        {
          "name": "_id",
          "type": "uint256"
        },
        {
          "name": "_tokens",
          "type": "uint256"
        },
        {
          "name": "_isTest",
          "type": "bool"
        }
      ],
      "name": "addTeamTimeMints",
      "outputs": [],
      "payable": false,
      "stateMutability": "nonpayable",
      "type": "function"
    },
    {
      "constant": false,
      "inputs": [
        {
          "name": "_receiver",
          "type": "address"
        },
        {
          "name": "_customerId",
          "type": "uint256"
        },
        {
          "name": "_id",
          "type": "uint256"
        }
      ],
      "name": "postAllocateAuctionTimeMints",
      "outputs": [],
      "payable": false,
      "stateMutability": "nonpayable",
      "type": "function"
    },
    {
      "constant": false,
      "inputs": [
        {
          "name": "_receiver",
          "type": "address"
        },
        {
          "name": "_customerId",
          "type": "uint256"
        },
        {
          "name": "_id",
          "type": "uint256"
        },
        {
          "name": "_tokens",
          "type": "uint256"
        },
        {
          "name": "_weiAmount",
          "type": "uint256"
        }
      ],
      "name": "allocateNormalTimeMints",
      "outputs": [],
      "payable": false,
      "stateMutability": "nonpayable",
      "type": "function"
    },
    {
      "constant": false,
      "inputs": [
        {
          "name": "_initialBlockTimestamp",
          "type": "uint256"
        }
      ],
      "name": "releaseToken",
      "outputs": [],
      "payable": false,
      "stateMutability": "nonpayable",
      "type": "function"
    }
  ],
  "bytecode": "0x60606040526000600560146101000a81548160ff0219169083151502179055506000600760006101000a81548160ff021916908315150217905550610447600c55600060145560006017556000601a5534156200005b57600080fd5b60405162005dfe38038062005dfe833981016040528080518201919060200180518201919060200180519060200190919080519060200190919080519060200190919080519060200190919080519060200190919080519060200190919080519060200190919080519060200190919080519060200190919080519060200190919080519060200190919080519060200190919080519060200190919050503333600360006101000a81548173ffffffffffffffffffffffffffffffffffffffff021916908373ffffffffffffffffffffffffffffffffffffffff16021790555080600960006101000a81548173ffffffffffffffffffffffffffffffffffffffff021916908373ffffffffffffffffffffffffffffffffffffffff1602179055505033600360006101000a81548173ffffffffffffffffffffffffffffffffffffffff021916908373ffffffffffffffffffffffffffffffffffffffff1602179055508e60259080519060200190620001d79291906200041f565b508d60269080519060200190620001f09291906200041f565b508c6000819055508b602760006101000a81548160ff021916908360ff16021790555060005460016000600360009054906101000a900473ffffffffffffffffffffffffffffffffffffffff1673ffffffffffffffffffffffffffffffffffffffff1673ffffffffffffffffffffffffffffffffffffffff1681526020019081526020016000208190555089601b819055506001601b541115156200029457600080fd5b60016012819055508688601b540303601381905550600160135410151515620002bc57600080fd5b8860158190555087601681905550866019819055506001601954601b54030160188190555085601c8190555084601d8190555083601e81905550635e0be100601f819055506000602060006101000a81548160ff0219169083151502179055506013602181905550826022819055508160248190555080602381905550600080541115620003d4577f30385c845b448a36257a6a1716e6ad2e1bc2cbe333cde1e69fe849ad6511adfe600360009054906101000a900473ffffffffffffffffffffffffffffffffffffffff16600054604051808373ffffffffffffffffffffffffffffffffffffffff1673ffffffffffffffffffffffffffffffffffffffff1681526020018281526020019250505060405180910390a15b8a15156200040a576001600760006101000a81548160ff02191690831515021790555060008054141515156200040957600080fd5b5b505050505050505050505050505050620004ce565b828054600181600116156101000203166002900490600052602060002090601f016020900481019282601f106200046257805160ff191683800117855562000493565b8280016001018555821562000493579182015b828111156200049257825182559160200191906001019062000475565b5b509050620004a29190620004a6565b5090565b620004cb91905b80821115620004c7576000816000905550600101620004ad565b5090565b90565b61592080620004de6000396000f3006060604052600436106103d2576000357c0100000000000000000000000000000000000000000000000000000000900463ffffffff16806302f652a3146103d757806304d414741461041b57806305d2035b1461044457806306fdde0314610471578063095ea7b3146104ff5780630a402742146105595780630c58062b146105b657806310f1726d146105df578063128e37611461060c57806318160ddd146106355780631bf2a90a1461065e57806323b872dd1461068757806329ff4f53146107005780632f83f78114610739578063313ce56714610766578063331c55b414610795578063335494a4146107eb57806335995022146108225780633cb5d100146108595780633ed66d3d146108f457806340c10f191461093857806342c1867b1461097a57806343214675146109cb57806345977d0314610a0f5780634778dfb814610a325780634813e3e514610a69578063485d5dd214610a9257806348bb406714610abb5780634b3d81b614610b085780634eee966f14610b31578063534439a314610bd157806354f6310514610bfa5780635956b85314610c235780635d444ffb14610c745780635de4ccb014610c9d5780635df34ff214610cf25780635f412d4f14610d36578063600440cb14610d4b57806370a0823114610da0578063718228fa14610ded578063740707cf14610e1657806379ba509714610e2b5780638444b39114610e405780638526d09214610e77578063867c285714610ec85780638da5cb5b14610f195780638f7b7bce14610f6e578063928e659214610fbf578063936bbf9a1461100c57806393e5365f1461103557806395d89b411461105e57806396132521146110ec57806396a80699146111195780639738968c146111645780639aaac864146111915780639bc8e9ee146111be578063a222a52f146111e1578063a293d1e81461120a578063a41ff1e51461124a578063a5f2676014611273578063a6661901146112ae578063a9059cbb146112d7578063b19b216214611331578063b54d62381461135e578063b6033daf14611381578063bef17ed0146113ce578063c392f118146113f7578063c4e41b221461143c578063c59513a414611465578063c752ff6214611492578063c96e83db146114bb578063d05c78da146114e4578063d1f276d314611524578063d49dbb5c14611579578063d4ee1d90146115a2578063d7e7088a146115f7578063d94fe83214611630578063dd62ed3e1461167d578063df30e592146116e9578063e0faf0a814611724578063e6cb90131461178e578063eb60764f146117ce578063f2fde38b146117f7578063ffeb7d7514611830575b600080fd5b34156103e257600080fd5b610419600480803573ffffffffffffffffffffffffffffffffffffffff169060200190919080351515906020019091905050611869565b005b341561042657600080fd5b61042e611944565b6040518082815260200191505060405180910390f35b341561044f57600080fd5b61045761194a565b604051808215151515815260200191505060405180910390f35b341561047c57600080fd5b61048461195d565b6040518080602001828103825283818151815260200191508051906020019080838360005b838110156104c45780820151818401526020810190506104a9565b50505050905090810190601f1680156104f15780820380516001836020036101000a031916815260200191505b509250505060405180910390f35b341561050a57600080fd5b61053f600480803573ffffffffffffffffffffffffffffffffffffffff169060200190919080359060200190919050506119fb565b604051808215151515815260200191505060405180910390f35b341561056457600080fd5b6105b4600480803573ffffffffffffffffffffffffffffffffffffffff16906020019091908035906020019091908035906020019091908035906020019091908035906020019091905050611b82565b005b34156105c157600080fd5b6105c9611cc0565b6040518082815260200191505060405180910390f35b34156105ea57600080fd5b6105f2611cc6565b604051808215151515815260200191505060405180910390f35b341561061757600080fd5b61061f611cd3565b6040518082815260200191505060405180910390f35b341561064057600080fd5b610648611cd9565b6040518082815260200191505060405180910390f35b341561066957600080fd5b610671611cdf565b6040518082815260200191505060405180910390f35b341561069257600080fd5b6106e6600480803573ffffffffffffffffffffffffffffffffffffffff1690602001909190803573ffffffffffffffffffffffffffffffffffffffff16906020019091908035906020019091905050611ce5565b604051808215151515815260200191505060405180910390f35b341561070b57600080fd5b610737600480803573ffffffffffffffffffffffffffffffffffffffff16906020019091905050612063565b005b341561074457600080fd5b61074c612127565b604051808215151515815260200191505060405180910390f35b341561077157600080fd5b6107796123b3565b604051808260ff1660ff16815260200191505060405180910390f35b34156107a057600080fd5b6107e9600480803573ffffffffffffffffffffffffffffffffffffffff1690602001909190803590602001909190803590602001909190803515159060200190919050506123c6565b005b34156107f657600080fd5b61080c600480803590602001909190505061253b565b6040518082815260200191505060405180910390f35b341561082d57600080fd5b610843600480803590602001909190505061257b565b6040518082815260200191505060405180910390f35b341561086457600080fd5b61087a6004808035906020019091905050612598565b604051808873ffffffffffffffffffffffffffffffffffffffff1673ffffffffffffffffffffffffffffffffffffffff1681526020018781526020018681526020018581526020018481526020018381526020018260028111156108da57fe5b60ff16815260200197505050505050505060405180910390f35b34156108ff57600080fd5b61091e6004808035906020019091908035906020019091905050612607565b604051808215151515815260200191505060405180910390f35b341561094357600080fd5b610978600480803573ffffffffffffffffffffffffffffffffffffffff169060200190919080359060200190919050506129c6565b005b341561098557600080fd5b6109b1600480803573ffffffffffffffffffffffffffffffffffffffff16906020019091905050612b2c565b604051808215151515815260200191505060405180910390f35b34156109d657600080fd5b610a0d600480803573ffffffffffffffffffffffffffffffffffffffff169060200190919080351515906020019091905050612b4c565b005b3415610a1a57600080fd5b610a306004808035906020019091905050612c8e565b005b3415610a3d57600080fd5b610a536004808035906020019091905050612efe565b6040518082815260200191505060405180910390f35b3415610a7457600080fd5b610a7c612fb7565b6040518082815260200191505060405180910390f35b3415610a9d57600080fd5b610aa5612fbd565b6040518082815260200191505060405180910390f35b3415610ac657600080fd5b610af2600480803573ffffffffffffffffffffffffffffffffffffffff16906020019091905050612fc3565b6040518082815260200191505060405180910390f35b3415610b1357600080fd5b610b1b612fdb565b6040518082815260200191505060405180910390f35b3415610b3c57600080fd5b610bcf600480803590602001908201803590602001908080601f0160208091040260200160405190810160405280939291908181526020018383808284378201915050505050509190803590602001908201803590602001908080601f01602080910402602001604051908101604052809392919081815260200183838082843782019150505050505091905050612fe1565b005b3415610bdc57600080fd5b610be46131b4565b6040518082815260200191505060405180910390f35b3415610c0557600080fd5b610c0d6131ba565b6040518082815260200191505060405180910390f35b3415610c2e57600080fd5b610c5a600480803573ffffffffffffffffffffffffffffffffffffffff169060200190919050506131c0565b604051808215151515815260200191505060405180910390f35b3415610c7f57600080fd5b610c876131e0565b6040518082815260200191505060405180910390f35b3415610ca857600080fd5b610cb06131e6565b604051808273ffffffffffffffffffffffffffffffffffffffff1673ffffffffffffffffffffffffffffffffffffffff16815260200191505060405180910390f35b3415610cfd57600080fd5b610d1c600480803590602001909190803590602001909190505061320c565b604051808215151515815260200191505060405180910390f35b3415610d4157600080fd5b610d49613664565b005b3415610d5657600080fd5b610d5e613700565b604051808273ffffffffffffffffffffffffffffffffffffffff1673ffffffffffffffffffffffffffffffffffffffff16815260200191505060405180910390f35b3415610dab57600080fd5b610dd7600480803573ffffffffffffffffffffffffffffffffffffffff16906020019091905050613726565b6040518082815260200191505060405180910390f35b3415610df857600080fd5b610e006137ce565b6040518082815260200191505060405180910390f35b3415610e2157600080fd5b610e296137d4565b005b3415610e3657600080fd5b610e3e6138ef565b005b3415610e4b57600080fd5b610e53613a4e565b60405180826004811115610e6357fe5b60ff16815260200191505060405180910390f35b3415610e8257600080fd5b610eae600480803573ffffffffffffffffffffffffffffffffffffffff16906020019091905050613acd565b604051808215151515815260200191505060405180910390f35b3415610ed357600080fd5b610eff600480803573ffffffffffffffffffffffffffffffffffffffff16906020019091905050613b1e565b604051808215151515815260200191505060405180910390f35b3415610f2457600080fd5b610f2c613b3e565b604051808273ffffffffffffffffffffffffffffffffffffffff1673ffffffffffffffffffffffffffffffffffffffff16815260200191505060405180910390f35b3415610f7957600080fd5b610fa5600480803573ffffffffffffffffffffffffffffffffffffffff16906020019091905050613b64565b604051808215151515815260200191505060405180910390f35b3415610fca57600080fd5b610ff6600480803573ffffffffffffffffffffffffffffffffffffffff16906020019091905050613c0c565b6040518082815260200191505060405180910390f35b341561101757600080fd5b61101f613c24565b6040518082815260200191505060405180910390f35b341561104057600080fd5b611048613c2a565b6040518082815260200191505060405180910390f35b341561106957600080fd5b611071613c30565b6040518080602001828103825283818151815260200191508051906020019080838360005b838110156110b1578082015181840152602081019050611096565b50505050905090810190601f1680156110de5780820380516001836020036101000a031916815260200191505b509250505060405180910390f35b34156110f757600080fd5b6110ff613cce565b604051808215151515815260200191505060405180910390f35b341561112457600080fd5b611162600480803573ffffffffffffffffffffffffffffffffffffffff16906020019091908035906020019091908035906020019091905050613ce1565b005b341561116f57600080fd5b611177613e3a565b604051808215151515815260200191505060405180910390f35b341561119c57600080fd5b6111a4613e61565b604051808215151515815260200191505060405180910390f35b34156111c957600080fd5b6111df6004808035906020019091905050613e74565b005b34156111ec57600080fd5b6111f4613ef6565b6040518082815260200191505060405180910390f35b341561121557600080fd5b6112346004808035906020019091908035906020019091905050613efc565b6040518082815260200191505060405180910390f35b341561125557600080fd5b61125d613f15565b6040518082815260200191505060405180910390f35b341561127e57600080fd5b6112946004808035906020019091905050613f1b565b604051808215151515815260200191505060405180910390f35b34156112b957600080fd5b6112c1613f40565b6040518082815260200191505060405180910390f35b34156112e257600080fd5b611317600480803573ffffffffffffffffffffffffffffffffffffffff16906020019091908035906020019091905050613f46565b604051808215151515815260200191505060405180910390f35b341561133c57600080fd5b6113446141ac565b604051808215151515815260200191505060405180910390f35b341561136957600080fd5b61137f600480803590602001909190505061452e565b005b341561138c57600080fd5b6113b8600480803573ffffffffffffffffffffffffffffffffffffffff169060200190919050506145ba565b6040518082815260200191505060405180910390f35b34156113d957600080fd5b6113e161460b565b6040518082815260200191505060405180910390f35b341561140257600080fd5b6114186004808035906020019091905050614611565b6040518082600281111561142857fe5b60ff16815260200191505060405180910390f35b341561144757600080fd5b61144f614699565b6040518082815260200191505060405180910390f35b341561147057600080fd5b6114786146a2565b604051808215151515815260200191505060405180910390f35b341561149d57600080fd5b6114a5614704565b6040518082815260200191505060405180910390f35b34156114c657600080fd5b6114ce61470a565b6040518082815260200191505060405180910390f35b34156114ef57600080fd5b61150e6004808035906020019091908035906020019091905050614710565b6040518082815260200191505060405180910390f35b341561152f57600080fd5b611537614743565b604051808273ffffffffffffffffffffffffffffffffffffffff1673ffffffffffffffffffffffffffffffffffffffff16815260200191505060405180910390f35b341561158457600080fd5b61158c614769565b6040518082815260200191505060405180910390f35b34156115ad57600080fd5b6115b561476f565b604051808273ffffffffffffffffffffffffffffffffffffffff1673ffffffffffffffffffffffffffffffffffffffff16815260200191505060405180910390f35b341561160257600080fd5b61162e600480803573ffffffffffffffffffffffffffffffffffffffff16906020019091905050614795565b005b341561163b57600080fd5b611667600480803573ffffffffffffffffffffffffffffffffffffffff16906020019091905050614a71565b6040518082815260200191505060405180910390f35b341561168857600080fd5b6116d3600480803573ffffffffffffffffffffffffffffffffffffffff1690602001909190803573ffffffffffffffffffffffffffffffffffffffff16906020019091905050614a89565b6040518082815260200191505060405180910390f35b34156116f457600080fd5b61170a6004808035906020019091905050614b10565b604051808215151515815260200191505060405180910390f35b341561172f57600080fd5b611737614c03565b6040518080602001828103825283818151815260200191508051906020019060200280838360005b8381101561177a57808201518184015260208101905061175f565b505050509050019250505060405180910390f35b341561179957600080fd5b6117b86004808035906020019091908035906020019091905050614cfd565b6040518082815260200191505060405180910390f35b34156117d957600080fd5b6117e1614d1b565b6040518082815260200191505060405180910390f35b341561180257600080fd5b61182e600480803573ffffffffffffffffffffffffffffffffffffffff16906020019091905050614d48565b005b341561183b57600080fd5b611867600480803573ffffffffffffffffffffffffffffffffffffffff16906020019091905050614de8565b005b600360009054906101000a900473ffffffffffffffffffffffffffffffffffffffff1673ffffffffffffffffffffffffffffffffffffffff163373ffffffffffffffffffffffffffffffffffffffff161415156118c557600080fd5b6000600560149054906101000a900460ff1615158115151415156118e857600080fd5b81600660008573ffffffffffffffffffffffffffffffffffffffff1673ffffffffffffffffffffffffffffffffffffffff16815260200190815260200160002060006101000a81548160ff021916908315150217905550505050565b60145481565b600760009054906101000a900460ff1681565b60258054600181600116156101000203166002900480601f0160208091040260200160405190810160405280929190818152602001828054600181600116156101000203166002900480156119f35780601f106119c8576101008083540402835291602001916119f3565b820191906000526020600020905b8154815290600101906020018083116119d657829003601f168201915b505050505081565b600080821480611a8757506000600260003373ffffffffffffffffffffffffffffffffffffffff1673ffffffffffffffffffffffffffffffffffffffff16815260200190815260200160002060008573ffffffffffffffffffffffffffffffffffffffff1673ffffffffffffffffffffffffffffffffffffffff16815260200190815260200160002054145b1515611a9257600080fd5b81600260003373ffffffffffffffffffffffffffffffffffffffff1673ffffffffffffffffffffffffffffffffffffffff16815260200190815260200160002060008573ffffffffffffffffffffffffffffffffffffffff1673ffffffffffffffffffffffffffffffffffffffff168152602001908152602001600020819055508273ffffffffffffffffffffffffffffffffffffffff163373ffffffffffffffffffffffffffffffffffffffff167f8c5be1e5ebec7d5bd14f71427d1e84f3dd0314c0f7b2291e5b200ac8c7c3b925846040518082815260200191505060405180910390a36001905092915050565b600360009054906101000a900473ffffffffffffffffffffffffffffffffffffffff1673ffffffffffffffffffffffffffffffffffffffff163373ffffffffffffffffffffffffffffffffffffffff16141515611bde57600080fd5b6012548310158015611bf257506013548311155b1515611bfd57600080fd5b601354601454101515611c0f57600080fd5b611c1a838684614eae565b601460008154809291906001019190505550611c3685836129c6565b7f6bd11c91e66ab57411c3d72828f939eac4446988c1c1f5862442bf7fa9884e238582848787604051808673ffffffffffffffffffffffffffffffffffffffff1673ffffffffffffffffffffffffffffffffffffffff1681526020018581526020018481526020018381526020018281526020019550505050505060405180910390a15050505050565b60235481565b6000601f54421015905090565b60155481565b60005481565b601a5481565b600080611cf0611cc6565b1515611cfb57600080fd5b611d0485613b64565b1515611d0f57600080fd5b600260008673ffffffffffffffffffffffffffffffffffffffff1673ffffffffffffffffffffffffffffffffffffffff16815260200190815260200160002060003373ffffffffffffffffffffffffffffffffffffffff1673ffffffffffffffffffffffffffffffffffffffff168152602001908152602001600020549050611dd6600d60008773ffffffffffffffffffffffffffffffffffffffff1673ffffffffffffffffffffffffffffffffffffffff168152602001908152602001600020546150cc565b5082611de186613726565b10158015611df0575060008314155b8015611dfc5750808311155b1515611e0757600080fd5b611e4f600d60008673ffffffffffffffffffffffffffffffffffffffff1673ffffffffffffffffffffffffffffffffffffffff168152602001908152602001600020546150cc565b50611e5a8184613efc565b600260008773ffffffffffffffffffffffffffffffffffffffff1673ffffffffffffffffffffffffffffffffffffffff16815260200190815260200160002060003373ffffffffffffffffffffffffffffffffffffffff1673ffffffffffffffffffffffffffffffffffffffff16815260200190815260200160002081905550611f23600160008773ffffffffffffffffffffffffffffffffffffffff1673ffffffffffffffffffffffffffffffffffffffff1681526020019081526020016000205484613efc565b600160008773ffffffffffffffffffffffffffffffffffffffff1673ffffffffffffffffffffffffffffffffffffffff16815260200190815260200160002081905550611faf600160008673ffffffffffffffffffffffffffffffffffffffff1673ffffffffffffffffffffffffffffffffffffffff1681526020019081526020016000205484614cfd565b600160008673ffffffffffffffffffffffffffffffffffffffff1673ffffffffffffffffffffffffffffffffffffffff168152602001908152602001600020819055508373ffffffffffffffffffffffffffffffffffffffff168573ffffffffffffffffffffffffffffffffffffffff167fddf252ad1be2c89b69c2b068fc378daa952ba7f163c4a11628f55a4df523b3ef856040518082815260200191505060405180910390a360019150509392505050565b600360009054906101000a900473ffffffffffffffffffffffffffffffffffffffff1673ffffffffffffffffffffffffffffffffffffffff163373ffffffffffffffffffffffffffffffffffffffff161415156120bf57600080fd5b6000600560149054906101000a900460ff1615158115151415156120e257600080fd5b81600560006101000a81548173ffffffffffffffffffffffffffffffffffffffff021916908373ffffffffffffffffffffffffffffffffffffffff1602179055505050565b60008060011515601060003373ffffffffffffffffffffffffffffffffffffffff1673ffffffffffffffffffffffffffffffffffffffff16815260200190815260200160002060009054906101000a900460ff16151514151561218957600080fd5b6000601060003373ffffffffffffffffffffffffffffffffffffffff1673ffffffffffffffffffffffffffffffffffffffff16815260200190815260200160002060006101000a81548160ff02191690831515021790555061222c602254601160003373ffffffffffffffffffffffffffffffffffffffff1673ffffffffffffffffffffffffffffffffffffffff16815260200190815260200160002054614cfd565b9050612277600160003073ffffffffffffffffffffffffffffffffffffffff1673ffffffffffffffffffffffffffffffffffffffff1681526020019081526020016000205482613efc565b600160003073ffffffffffffffffffffffffffffffffffffffff1673ffffffffffffffffffffffffffffffffffffffff16815260200190815260200160002081905550612303600160003373ffffffffffffffffffffffffffffffffffffffff1673ffffffffffffffffffffffffffffffffffffffff1681526020019081526020016000205482614cfd565b600160003373ffffffffffffffffffffffffffffffffffffffff1673ffffffffffffffffffffffffffffffffffffffff168152602001908152602001600020819055503373ffffffffffffffffffffffffffffffffffffffff163073ffffffffffffffffffffffffffffffffffffffff167fddf252ad1be2c89b69c2b068fc378daa952ba7f163c4a11628f55a4df523b3ef836040518082815260200191505060405180910390a3600191505090565b602760009054906101000a900460ff1681565b600360009054906101000a900473ffffffffffffffffffffffffffffffffffffffff1673ffffffffffffffffffffffffffffffffffffffff163373ffffffffffffffffffffffffffffffffffffffff1614151561242257600080fd5b601554831015801561243957506016546015540183105b151561244457600080fd5b60165460175410151561245657600080fd5b61246283856000614eae565b6017600081548092919060010191905055508015156124c05742600f60008673ffffffffffffffffffffffffffffffffffffffff1673ffffffffffffffffffffffffffffffffffffffff168152602001908152602001600020819055505b6124ca84836129c6565b7fe79fec6463e59273a1da7bc924872b8b35b64c591ce527b6329f0db8d6be71fd8484604051808373ffffffffffffffffffffffffffffffffffffffff1673ffffffffffffffffffffffffffffffffffffffff1681526020018281526020019250505060405180910390a150505050565b6000600161254f61254a614d1b565b61257b565b0360020a600e60008481526020019081526020016000206003015481151561257357fe5b049050919050565b60006001601e548381151561258c57fe5b04019050809050919050565b600e6020528060005260406000206000915090508060000160009054906101000a900473ffffffffffffffffffffffffffffffffffffffff16908060010154908060020154908060030154908060040154908060050154908060060160009054906101000a900460ff16905087565b600080612612611cc6565b151561261d57600080fd5b438311151561262b57600080fd5b61263433613b64565b151561263f57600080fd5b600d60003373ffffffffffffffffffffffffffffffffffffffff1673ffffffffffffffffffffffffffffffffffffffff1681526020019081526020016000205490506000600281111561268e57fe5b600e600083815260200190815260200160002060060160009054906101000a900460ff1660028111156126bd57fe5b1415156126c957600080fd5b6126d2816150cc565b50602254600160003373ffffffffffffffffffffffffffffffffffffffff1673ffffffffffffffffffffffffffffffffffffffff168152602001908152602001600020541015151561272357600080fd5b83600e60008381526020019081526020016000206005018190555082600e6000838152602001908152602001600020600401819055506002600e600083815260200190815260200160002060060160006101000a81548160ff0219169083600281111561278c57fe5b02179055506127dc600160003373ffffffffffffffffffffffffffffffffffffffff1673ffffffffffffffffffffffffffffffffffffffff16815260200190815260200160002054602254613efc565b600160003373ffffffffffffffffffffffffffffffffffffffff1673ffffffffffffffffffffffffffffffffffffffff1681526020019081526020016000208190555061286a600160003073ffffffffffffffffffffffffffffffffffffffff1673ffffffffffffffffffffffffffffffffffffffff16815260200190815260200160002054602254614cfd565b600160003073ffffffffffffffffffffffffffffffffffffffff1673ffffffffffffffffffffffffffffffffffffffff168152602001908152602001600020819055503073ffffffffffffffffffffffffffffffffffffffff163373ffffffffffffffffffffffffffffffffffffffff167fddf252ad1be2c89b69c2b068fc378daa952ba7f163c4a11628f55a4df523b3ef6022546040518082815260200191505060405180910390a37f789864ab03bca8d309c9bec6804307cfc416db24eab7873ba7f3df79797b09178133600e600085815260200190815260200160002060050154600e600086815260200190815260200160002060040154604051808581526020018473ffffffffffffffffffffffffffffffffffffffff1673ffffffffffffffffffffffffffffffffffffffff16815260200183815260200182815260200194505050505060405180910390a1600191505092915050565b600860003373ffffffffffffffffffffffffffffffffffffffff1673ffffffffffffffffffffffffffffffffffffffff16815260200190815260200160002060009054906101000a900460ff161515612a1e57600080fd5b600760009054906101000a900460ff16151515612a3a57600080fd5b612a4660005482614cfd565b600081905550612a95600160008473ffffffffffffffffffffffffffffffffffffffff1673ffffffffffffffffffffffffffffffffffffffff1681526020019081526020016000205482614cfd565b600160008473ffffffffffffffffffffffffffffffffffffffff1673ffffffffffffffffffffffffffffffffffffffff168152602001908152602001600020819055508173ffffffffffffffffffffffffffffffffffffffff1660007fddf252ad1be2c89b69c2b068fc378daa952ba7f163c4a11628f55a4df523b3ef836040518082815260200191505060405180910390a35050565b60086020528060005260406000206000915054906101000a900460ff1681565b600360009054906101000a900473ffffffffffffffffffffffffffffffffffffffff1673ffffffffffffffffffffffffffffffffffffffff163373ffffffffffffffffffffffffffffffffffffffff16141515612ba857600080fd5b600760009054906101000a900460ff16151515612bc457600080fd5b80600860008473ffffffffffffffffffffffffffffffffffffffff1673ffffffffffffffffffffffffffffffffffffffff16815260200190815260200160002060006101000a81548160ff0219169083151502179055507f4b0adf6c802794c7dde28a08a4e07131abcff3bf9603cd71f14f90bec7865efa8282604051808373ffffffffffffffffffffffffffffffffffffffff1673ffffffffffffffffffffffffffffffffffffffff168152602001821515151581526020019250505060405180910390a15050565b6000612c98613a4e565b905060036004811115612ca757fe5b816004811115612cb357fe5b1480612cd45750600480811115612cc657fe5b816004811115612cd257fe5b145b1515612cdf57600080fd5b60008214151515612cef57600080fd5b612d38600160003373ffffffffffffffffffffffffffffffffffffffff1673ffffffffffffffffffffffffffffffffffffffff1681526020019081526020016000205483613efc565b600160003373ffffffffffffffffffffffffffffffffffffffff1673ffffffffffffffffffffffffffffffffffffffff16815260200190815260200160002081905550612d8760005483613efc565b600081905550612d99600b5483614cfd565b600b81905550600a60009054906101000a900473ffffffffffffffffffffffffffffffffffffffff1673ffffffffffffffffffffffffffffffffffffffff1663753e88e533846040518363ffffffff167c0100000000000000000000000000000000000000000000000000000000028152600401808373ffffffffffffffffffffffffffffffffffffffff1673ffffffffffffffffffffffffffffffffffffffff16815260200182815260200192505050600060405180830381600087803b1515612e6357600080fd5b5af11515612e7057600080fd5b505050600a60009054906101000a900473ffffffffffffffffffffffffffffffffffffffff1673ffffffffffffffffffffffffffffffffffffffff163373ffffffffffffffffffffffffffffffffffffffff167f7e5c344a8141a805725cb476f76c6953b842222b967edd1f78ddb6e8b3f397ac846040518082815260200191505060405180910390a35050565b600080600e600084815260200190815260200160002060000160009054906101000a900473ffffffffffffffffffffffffffffffffffffffff169050612f42611cc6565b15612f6e57612f5083614b10565b15612f6d57612f6683612f61614d1b565b6152a2565b9150612fb1565b5b600160008273ffffffffffffffffffffffffffffffffffffffff1673ffffffffffffffffffffffffffffffffffffffff1681526020019081526020016000205491505b50919050565b601e5481565b60245481565b600f6020528060005260406000206000915090505481565b601f5481565b600360009054906101000a900473ffffffffffffffffffffffffffffffffffffffff1673ffffffffffffffffffffffffffffffffffffffff163373ffffffffffffffffffffffffffffffffffffffff1614151561303d57600080fd5b816025908051906020019061305392919061583b565b50806026908051906020019061306a92919061583b565b507fd131ab1e6f279deea74e13a18477e13e2107deb6dc8ae955648948be5841fb466025602660405180806020018060200183810383528581815460018160011615610100020316600290048152602001915080546001816001161561010002031660029004801561311d5780601f106130f25761010080835404028352916020019161311d565b820191906000526020600020905b81548152906001019060200180831161310057829003601f168201915b50508381038252848181546001816001161561010002031660029004815260200191508054600181600116156101000203166002900480156131a05780601f10613175576101008083540402835291602001916131a0565b820191906000526020600020905b81548152906001019060200180831161318357829003601f168201915b505094505050505060405180910390a15050565b60215481565b601d5481565b60106020528060005260406000206000915054906101000a900460ff1681565b601c5481565b600a60009054906101000a900473ffffffffffffffffffffffffffffffffffffffff1681565b60008060028081111561321b57fe5b600e600086815260200190815260200160002060060160009054906101000a900460ff16600281111561324a57fe5b14801561326c5750600e60008581526020019081526020016000206004015443115b156132aa576001600e600086815260200190815260200160002060060160006101000a81548160ff021916908360028111156132a457fe5b02179055505b600e600085815260200190815260200160002060000160009054906101000a900473ffffffffffffffffffffffffffffffffffffffff1690506002808111156132ef57fe5b600e600086815260200190815260200160002060060160009054906101000a900460ff16600281111561331e57fe5b14151561332a57600080fd5b600e600085815260200190815260200160002060050154831015151561334f57600080fd5b6000600e600086815260200190815260200160002060060160006101000a81548160ff0219169083600281111561338257fe5b02179055506133d0600160003373ffffffffffffffffffffffffffffffffffffffff1673ffffffffffffffffffffffffffffffffffffffff1681526020019081526020016000205484613efc565b600160003373ffffffffffffffffffffffffffffffffffffffff1673ffffffffffffffffffffffffffffffffffffffff1681526020019081526020016000208190555061345c600160003073ffffffffffffffffffffffffffffffffffffffff1673ffffffffffffffffffffffffffffffffffffffff1681526020019081526020016000205484614cfd565b600160003073ffffffffffffffffffffffffffffffffffffffff1673ffffffffffffffffffffffffffffffffffffffff168152602001908152602001600020819055503073ffffffffffffffffffffffffffffffffffffffff163373ffffffffffffffffffffffffffffffffffffffff167fddf252ad1be2c89b69c2b068fc378daa952ba7f163c4a11628f55a4df523b3ef856040518082815260200191505060405180910390a3613544600e600086815260200190815260200160002060000160009054906101000a900473ffffffffffffffffffffffffffffffffffffffff16336153ff565b156136595782601160008373ffffffffffffffffffffffffffffffffffffffff1673ffffffffffffffffffffffffffffffffffffffff168152602001908152602001600020819055506001601060008373ffffffffffffffffffffffffffffffffffffffff1673ffffffffffffffffffffffffffffffffffffffff16815260200190815260200160002060006101000a81548160ff0219169083151502179055507f72760e46b3824807567c13ec75882de5d9c789a91517ae7b474d2e6b62d3771e843385604051808481526020018373ffffffffffffffffffffffffffffffffffffffff1673ffffffffffffffffffffffffffffffffffffffff168152602001828152602001935050505060405180910390a15b600191505092915050565b600360009054906101000a900473ffffffffffffffffffffffffffffffffffffffff1673ffffffffffffffffffffffffffffffffffffffff163373ffffffffffffffffffffffffffffffffffffffff161415156136c057600080fd5b602060009054906101000a900460ff1615156136db57600080fd5b6001600760006101000a81548160ff0219169083151502179055506136fe6156c9565b565b600960009054906101000a900473ffffffffffffffffffffffffffffffffffffffff1681565b600080600d60008473ffffffffffffffffffffffffffffffffffffffff1673ffffffffffffffffffffffffffffffffffffffff1681526020019081526020016000205490506000811415156137855761377e81612efe565b91506137c8565b600160008473ffffffffffffffffffffffffffffffffffffffff1673ffffffffffffffffffffffffffffffffffffffff1681526020019081526020016000205491505b50919050565b60175481565b6000600d60003373ffffffffffffffffffffffffffffffffffffffff1673ffffffffffffffffffffffffffffffffffffffff1681526020019081526020016000205461381f81614b10565b151561382a57600080fd5b600d60003373ffffffffffffffffffffffffffffffffffffffff1673ffffffffffffffffffffffffffffffffffffffff16815260200190815260200160002054915060028081111561387857fe5b600e600084815260200190815260200160002060060160009054906101000a900460ff1660028111156138a757fe5b1415156138b357600080fd5b6001600e600084815260200190815260200160002060060160006101000a81548160ff021916908360028111156138e657fe5b02179055505050565b600460009054906101000a900473ffffffffffffffffffffffffffffffffffffffff1673ffffffffffffffffffffffffffffffffffffffff163373ffffffffffffffffffffffffffffffffffffffff1614151561394b57600080fd5b600460009054906101000a900473ffffffffffffffffffffffffffffffffffffffff1673ffffffffffffffffffffffffffffffffffffffff16600360009054906101000a900473ffffffffffffffffffffffffffffffffffffffff1673ffffffffffffffffffffffffffffffffffffffff167f8be0079c531659141344cd1fd0a4f28419497f9722a3daafe3b4186f6b6457e060405160405180910390a3600460009054906101000a900473ffffffffffffffffffffffffffffffffffffffff16600360006101000a81548173ffffffffffffffffffffffffffffffffffffffff021916908373ffffffffffffffffffffffffffffffffffffffff160217905550565b6000613a58613e3a565b1515613a675760019050613aca565b6000600a60009054906101000a900473ffffffffffffffffffffffffffffffffffffffff1673ffffffffffffffffffffffffffffffffffffffff161415613ab15760029050613aca565b6000600b541415613ac55760039050613aca565b600490505b90565b6000613b17600d60008473ffffffffffffffffffffffffffffffffffffffff1673ffffffffffffffffffffffffffffffffffffffff16815260200190815260200160002054614b10565b9050919050565b60066020528060005260406000206000915054906101000a900460ff1681565b600360009054906101000a900473ffffffffffffffffffffffffffffffffffffffff1681565b6000600190506000600f60008473ffffffffffffffffffffffffffffffffffffffff1673ffffffffffffffffffffffffffffffffffffffff16815260200190815260200160002054141515613c0457602354600f60008473ffffffffffffffffffffffffffffffffffffffff1673ffffffffffffffffffffffffffffffffffffffff1681526020019081526020016000205442031015613c0357600090505b5b809050919050565b60116020528060005260406000206000915090505481565b60195481565b601b5481565b60268054600181600116156101000203166002900480601f016020809104026020016040519081016040528092919081815260200182805460018160011615610100020316600290048015613cc65780601f10613c9b57610100808354040283529160200191613cc6565b820191906000526020600020905b815481529060010190602001808311613ca957829003601f168201915b505050505081565b600560149054906101000a900460ff1681565b600360009054906101000a900473ffffffffffffffffffffffffffffffffffffffff1673ffffffffffffffffffffffffffffffffffffffff163373ffffffffffffffffffffffffffffffffffffffff16141515613d3d57600080fd5b6018548110158015613d5457506019546018540181105b1515613d5f57600080fd5b601954601a54101515613d7157600080fd5b60011515600560149054906101000a900460ff161515141515613d9357600080fd5b613d9f81846000614eae565b601a600081548092919060010191905055507f5da87a24d5db985862dc335ff32e322d9588ae9b4a971bd1526a58051c8cbaa4836000808585604051808673ffffffffffffffffffffffffffffffffffffffff1673ffffffffffffffffffffffffffffffffffffffff1681526020018581526020018481526020018381526020018281526020019550505050505060405180910390a1505050565b6000600560149054906101000a900460ff168015613e5c5750613e5b615742565b5b905090565b602060009054906101000a900460ff1681565b600360009054906101000a900473ffffffffffffffffffffffffffffffffffffffff1673ffffffffffffffffffffffffffffffffffffffff163373ffffffffffffffffffffffffffffffffffffffff16141515613ed057600080fd5b602060009054906101000a900460ff16151515613eec57600080fd5b8060218190555050565b60185481565b6000828211151515613f0a57fe5b818303905092915050565b600c5481565b6000613f25611cc6565b1515613f3057600080fd5b613f39826150cc565b9050919050565b60135481565b6000613f50611cc6565b1515613f5b57600080fd5b613f6433613b64565b1515613f6f57600080fd5b613fb7600d60003373ffffffffffffffffffffffffffffffffffffffff1673ffffffffffffffffffffffffffffffffffffffff168152602001908152602001600020546150cc565b5081613fc233613726565b10158015613fd1575060008214155b1515613fdc57600080fd5b614024600d60008573ffffffffffffffffffffffffffffffffffffffff1673ffffffffffffffffffffffffffffffffffffffff168152602001908152602001600020546150cc565b5061406e600160003373ffffffffffffffffffffffffffffffffffffffff1673ffffffffffffffffffffffffffffffffffffffff1681526020019081526020016000205483613efc565b600160003373ffffffffffffffffffffffffffffffffffffffff1673ffffffffffffffffffffffffffffffffffffffff168152602001908152602001600020819055506140fa600160008573ffffffffffffffffffffffffffffffffffffffff1673ffffffffffffffffffffffffffffffffffffffff1681526020019081526020016000205483614cfd565b600160008573ffffffffffffffffffffffffffffffffffffffff1673ffffffffffffffffffffffffffffffffffffffff168152602001908152602001600020819055508273ffffffffffffffffffffffffffffffffffffffff163373ffffffffffffffffffffffffffffffffffffffff167fddf252ad1be2c89b69c2b068fc378daa952ba7f163c4a11628f55a4df523b3ef846040518082815260200191505060405180910390a36001905092915050565b600080600d60003373ffffffffffffffffffffffffffffffffffffffff1673ffffffffffffffffffffffffffffffffffffffff168152602001908152602001600020546141f881614b10565b151561420357600080fd5b600d60003373ffffffffffffffffffffffffffffffffffffffff1673ffffffffffffffffffffffffffffffffffffffff168152602001908152602001600020549150600e600083815260200190815260200160002060040154431180156142a2575060028081111561427157fe5b600e600084815260200190815260200160002060060160009054906101000a900460ff1660028111156142a057fe5b145b156142e0576001600e600084815260200190815260200160002060060160006101000a81548160ff021916908360028111156142da57fe5b02179055505b600160028111156142ed57fe5b600e600084815260200190815260200160002060060160009054906101000a900460ff16600281111561431c57fe5b14151561432857600080fd5b6000600e600084815260200190815260200160002060060160006101000a81548160ff0219169083600281111561435b57fe5b02179055506143ab600160003073ffffffffffffffffffffffffffffffffffffffff1673ffffffffffffffffffffffffffffffffffffffff16815260200190815260200160002054602254613efc565b600160003073ffffffffffffffffffffffffffffffffffffffff1673ffffffffffffffffffffffffffffffffffffffff168152602001908152602001600020819055506143f7826150cc565b50614443600160003373ffffffffffffffffffffffffffffffffffffffff1673ffffffffffffffffffffffffffffffffffffffff16815260200190815260200160002054602254614cfd565b600160003373ffffffffffffffffffffffffffffffffffffffff1673ffffffffffffffffffffffffffffffffffffffff168152602001908152602001600020819055506000600e6000848152602001908152602001600020600501819055506000600e6000848152602001908152602001600020600401819055503373ffffffffffffffffffffffffffffffffffffffff163073ffffffffffffffffffffffffffffffffffffffff167fddf252ad1be2c89b69c2b068fc378daa952ba7f163c4a11628f55a4df523b3ef6022546040518082815260200191505060405180910390a360019250505090565b600360009054906101000a900473ffffffffffffffffffffffffffffffffffffffff1673ffffffffffffffffffffffffffffffffffffffff163373ffffffffffffffffffffffffffffffffffffffff1614151561458a57600080fd5b600560149054906101000a900460ff161515156145a657600080fd5b6145af8161574b565b6145b7613664565b50565b6000614604600d60008473ffffffffffffffffffffffffffffffffffffffff1673ffffffffffffffffffffffffffffffffffffffff1681526020019081526020016000205461253b565b9050919050565b60165481565b600061461c82614b10565b151561462757600080fd5b600e600083815260200190815260200160002060060160009054906101000a900460ff169050600e60008381526020019081526020016000206004015443118015614687575060028081111561467957fe5b81600281111561468557fe5b145b1561469157600190505b809050919050565b60008054905090565b60006146ac611cc6565b15156146b757600080fd5b6146ff600d60003373ffffffffffffffffffffffffffffffffffffffff1673ffffffffffffffffffffffffffffffffffffffff168152602001908152602001600020546150cc565b905090565b600b5481565b60125481565b60008082840290506000841480614731575082848281151561472e57fe5b04145b151561473957fe5b8091505092915050565b600560009054906101000a900473ffffffffffffffffffffffffffffffffffffffff1681565b60225481565b600460009054906101000a900473ffffffffffffffffffffffffffffffffffffffff1681565b61479d613e3a565b15156147a857600080fd5b60008173ffffffffffffffffffffffffffffffffffffffff16141515156147ce57600080fd5b600960009054906101000a900473ffffffffffffffffffffffffffffffffffffffff1673ffffffffffffffffffffffffffffffffffffffff163373ffffffffffffffffffffffffffffffffffffffff1614151561482a57600080fd5b60048081111561483657fe5b61483e613a4e565b600481111561484957fe5b1415151561485657600080fd5b80600a60006101000a81548173ffffffffffffffffffffffffffffffffffffffff021916908373ffffffffffffffffffffffffffffffffffffffff160217905550600a60009054906101000a900473ffffffffffffffffffffffffffffffffffffffff1673ffffffffffffffffffffffffffffffffffffffff166361d3d7a66040518163ffffffff167c0100000000000000000000000000000000000000000000000000000000028152600401602060405180830381600087803b151561491c57600080fd5b5af1151561492957600080fd5b50505060405180519050151561493e57600080fd5b600054600a60009054906101000a900473ffffffffffffffffffffffffffffffffffffffff1673ffffffffffffffffffffffffffffffffffffffff16634b2ba0dd6040518163ffffffff167c0100000000000000000000000000000000000000000000000000000000028152600401602060405180830381600087803b15156149c657600080fd5b5af115156149d357600080fd5b505050604051805190501415156149e957600080fd5b7f7845d5aa74cc410e35571258d954f23b82276e160fe8c188fa80566580f279cc600a60009054906101000a900473ffffffffffffffffffffffffffffffffffffffff16604051808273ffffffffffffffffffffffffffffffffffffffff1673ffffffffffffffffffffffffffffffffffffffff16815260200191505060405180910390a150565b600d6020528060005260406000206000915090505481565b6000600260008473ffffffffffffffffffffffffffffffffffffffff1673ffffffffffffffffffffffffffffffffffffffff16815260200190815260200160002060008373ffffffffffffffffffffffffffffffffffffffff1673ffffffffffffffffffffffffffffffffffffffff16815260200190815260200160002054905092915050565b60008082118015614b235750601b548211155b8015614b7c57506000600e600084815260200190815260200160002060000160009054906101000a900473ffffffffffffffffffffffffffffffffffffffff1673ffffffffffffffffffffffffffffffffffffffff1614155b8015614bfc575081600d6000600e600086815260200190815260200160002060000160009054906101000a900473ffffffffffffffffffffffffffffffffffffffff1673ffffffffffffffffffffffffffffffffffffffff1673ffffffffffffffffffffffffffffffffffffffff16815260200190815260200160002054145b9050919050565b614c0b6158bb565b614c136158bb565b600080601b54604051805910614c265750595b9080825280602002602001820160405250925060009150600190505b601b5481111515614cf457614c5681614b10565b8015614c785750600e6000828152602001908152602001600020600401544311155b8015614cbc5750600280811115614c8b57fe5b600e600083815260200190815260200160002060060160009054906101000a900460ff166002811115614cba57fe5b145b15614ce757808383815181101515614cd057fe5b906020019060200201818152505081806001019250505b8080600101915050614c42565b82935050505090565b6000808284019050838110151515614d1157fe5b8091505092915050565b6000809050614d28611cc6565b15614d4257602454601f544203811515614d3e57fe5b0490505b80905090565b600360009054906101000a900473ffffffffffffffffffffffffffffffffffffffff1673ffffffffffffffffffffffffffffffffffffffff163373ffffffffffffffffffffffffffffffffffffffff16141515614da457600080fd5b80600460006101000a81548173ffffffffffffffffffffffffffffffffffffffff021916908373ffffffffffffffffffffffffffffffffffffffff16021790555050565b60008173ffffffffffffffffffffffffffffffffffffffff1614151515614e0e57600080fd5b600960009054906101000a900473ffffffffffffffffffffffffffffffffffffffff1673ffffffffffffffffffffffffffffffffffffffff163373ffffffffffffffffffffffffffffffffffffffff16141515614e6a57600080fd5b80600960006101000a81548173ffffffffffffffffffffffffffffffffffffffff021916908373ffffffffffffffffffffffffffffffffffffffff16021790555050565b600360009054906101000a900473ffffffffffffffffffffffffffffffffffffffff1673ffffffffffffffffffffffffffffffffffffffff163373ffffffffffffffffffffffffffffffffffffffff16141515614f0a57600080fd5b601b548311151515614f1b57600080fd5b614f2482613acd565b151515614f3057600080fd5b614f3983614b10565b151515614f4557600080fd5b81600e600085815260200190815260200160002060000160006101000a81548173ffffffffffffffffffffffffffffffffffffffff021916908373ffffffffffffffffffffffffffffffffffffffff16021790555082600d60008473ffffffffffffffffffffffffffffffffffffffff1673ffffffffffffffffffffffffffffffffffffffff16815260200190815260200160002081905550614fe7836157e8565b80600e60008581526020019081526020016000206001018190555061500a614d1b565b600e6000858152602001908152602001600020600201819055507f5fd6d0b7e707fe344bd2a1887f9d0eeea8bfcac6f339ba4200e74f0647f101c08284604051808373ffffffffffffffffffffffffffffffffffffffff1673ffffffffffffffffffffffffffffffffffffffff1681526020018281526020019250505060405180910390a16000600e600085815260200190815260200160002060060160006101000a81548160ff021916908360028111156150c257fe5b0217905550505050565b60008060008060006150dd86614b10565b15615294576150ea614d1b565b935083600e600088815260200190815260200160002060020154141580156151295750600c54600e600088815260200190815260200160002060020154105b1561529357600e600087815260200190815260200160002060000160009054906101000a900473ffffffffffffffffffffffffffffffffffffffff169250600160008473ffffffffffffffffffffffffffffffffffffffff1673ffffffffffffffffffffffffffffffffffffffff1681526020019081526020016000205491506151b560005483613efc565b6000819055506151c586856152a2565b905080600160008573ffffffffffffffffffffffffffffffffffffffff1673ffffffffffffffffffffffffffffffffffffffff1681526020019081526020016000208190555061521760005482614cfd565b60008190555083600e6000888152602001908152602001600020600201819055508273ffffffffffffffffffffffffffffffffffffffff1660007fddf252ad1be2c89b69c2b068fc378daa952ba7f163c4a11628f55a4df523b3ef8484036040518082815260200191505060405180910390a360019450615299565b5b600094505b50505050919050565b60008060008060008060008060016000600e60008d815260200190815260200160002060000160009054906101000a900473ffffffffffffffffffffffffffffffffffffffff1673ffffffffffffffffffffffffffffffffffffffff1673ffffffffffffffffffffffffffffffffffffffff168152602001908152602001600020549650600c54891061533757600c54615339565b885b95506001600e60008c8152602001908152602001600020600201540194505b85851115156153ef5761536a8561257b565b93506001601e5485020392506001840360020a600e60008c81526020019081526020016000206003015481151561539d57fe5b0491508490505b8281111580156153b45750858111155b156153e7576153d887600260215401600a0a8985028115156153d257fe5b04614cfd565b965080806001019150506153a4565b809450615358565b8697505050505050505092915050565b600080600d60008573ffffffffffffffffffffffffffffffffffffffff1673ffffffffffffffffffffffffffffffffffffffff1681526020019081526020016000205461544b81614b10565b151561545657600080fd5b61545e611cc6565b151561546957600080fd5b61547284613acd565b15151561547e57600080fd5b600d60008673ffffffffffffffffffffffffffffffffffffffff1673ffffffffffffffffffffffffffffffffffffffff1681526020019081526020016000205491506154c9826150cc565b5083600e600084815260200190815260200160002060000160006101000a81548173ffffffffffffffffffffffffffffffffffffffff021916908373ffffffffffffffffffffffffffffffffffffffff16021790555081600d60008673ffffffffffffffffffffffffffffffffffffffff1673ffffffffffffffffffffffffffffffffffffffff168152602001908152602001600020819055506000600d60008773ffffffffffffffffffffffffffffffffffffffff1673ffffffffffffffffffffffffffffffffffffffff168152602001908152602001600020819055506000600e6000848152602001908152602001600020600101819055506155cc614d1b565b600e6000848152602001908152602001600020600201819055506000600e6000848152602001908152602001600020600401819055506000600e6000848152602001908152602001600020600501819055507ffb7aaa2ec871044b8cde9fee0cd727b02c8d6caf7aeb7f5fa2e02ffdfe164334828686604051808481526020018373ffffffffffffffffffffffffffffffffffffffff1673ffffffffffffffffffffffffffffffffffffffff1681526020018273ffffffffffffffffffffffffffffffffffffffff1673ffffffffffffffffffffffffffffffffffffffff168152602001935050505060405180910390a160019250505092915050565b600560009054906101000a900473ffffffffffffffffffffffffffffffffffffffff1673ffffffffffffffffffffffffffffffffffffffff163373ffffffffffffffffffffffffffffffffffffffff1614151561572557600080fd5b6001600560146101000a81548160ff021916908315150217905550565b60006001905090565b600360009054906101000a900473ffffffffffffffffffffffffffffffffffffffff1673ffffffffffffffffffffffffffffffffffffffff163373ffffffffffffffffffffffffffffffffffffffff161415156157a757600080fd5b602060009054906101000a900460ff161515156157c357600080fd5b6001602060006101000a81548160ff02191690831515021790555080601f8190555050565b806157f281614b10565b15156157fd57600080fd5b6001601b5403601c54601d5403600184030281151561581857fe5b04601d5403600e6000848152602001908152602001600020600301819055505050565b828054600181600116156101000203166002900490600052602060002090601f016020900481019282601f1061587c57805160ff19168380011785556158aa565b828001600101855582156158aa579182015b828111156158a957825182559160200191906001019061588e565b5b5090506158b791906158cf565b5090565b602060405190810160405280600081525090565b6158f191905b808211156158ed5760008160009055506001016158d5565b5090565b905600a165627a7a723058205dc760d4164a07f9cd49cc25d64cfa999c2435973d1b8a93d29471fe961667e00029",
  "source": "pragma solidity ^0.4.13; \n\nimport \"./StandardToken.sol\"; \nimport \"./UpgradeableToken.sol\"; \nimport \"./ReleasableToken.sol\"; \nimport \"./MintableToken.sol\";\nimport \"./SafeMathLib.sol\"; \n\n/**\n * A crowdsale token.\n *\n * An ERC-20 token designed specifically for crowdsales with investor protection and \n * further development path.\n *\n * - The token transfer() is disabled until the crowdsale is over\n * - The token contract gives an opt-in upgrade path to a new contract\n * - The same token can be part of several crowdsales through approve() mechanism\n * - The token can be capped (supply set in the constructor) \n *   or uncapped (crowdsale contract can mint new tokens)\n */\ncontract DayToken is  ReleasableToken, MintableToken, UpgradeableToken {\n\n    enum sellingStatus {NOTONSALE, EXPIRED, ONSALE}\n\n    /** Basic structure for a contributor with a minting Address\n     * adr address of the contributor\n     * initialContributionDay initial contribution of the contributor in wei\n     * lastUpdatedOn day count from Minting Epoch when the account balance was last updated\n     * mintingPower Initial Minting power of the address\n     * expiryBlockNumber Variable to mark end of Minting address sale. Set by user\n     * minPriceInDay minimum price of Minting address in Day tokens. Set by user\n     * status Selling status Variable for transfer Minting address.\n     * sellingPriceInDay Variable for transfer Minting address. Price at which the address is actually sold\n     */ \n    struct Contributor {\n        address adr;\n        uint256 initialContributionDay;\n        uint256 lastUpdatedOn; //Day from Minting Epoch\n        uint256 mintingPower;\n        uint expiryBlockNumber;\n        uint256 minPriceInDay;\n        sellingStatus status;\n    }\n\n    /* Stores maximum days for which minting will happen since minting epoch */\n    uint256 public maxMintingDays = 1095;\n\n    /* Mapping to store id of each minting address */\n    mapping (address => uint) public idOf;\n    /* Mapping from id of each minting address to their respective structures */\n    mapping (uint256 => Contributor) public contributors;\n    /* mapping to store unix timestamp of when the minting address is issued to each team member */\n    mapping (address => uint256) public teamIssuedTimestamp;\n    mapping (address => bool) public soldAddresses;\n    mapping (address => uint256) public sellingPriceInDayOf;\n\n    /* Stores the id of the first  contributor */\n    uint256 public firstContributorId;\n    /* Stores total Pre + Post ICO TimeMints */\n    uint256 public totalNormalContributorIds;\n    /* Stores total Normal TimeMints allocated */\n    uint256 public totalNormalContributorIdsAllocated = 0;\n    \n    /* Stores the id of the first team TimeMint */\n    uint256 public firstTeamContributorId;\n    /* Stores the total team TimeMints */\n    uint256 public totalTeamContributorIds;\n    /* Stores total team TimeMints allocated */\n    uint256 public totalTeamContributorIdsAllocated = 0;\n\n    /* Stores the id of the first Post ICO contributor (for auctionable TimeMints) */\n    uint256 public firstPostIcoContributorId;\n    /* Stores total Post ICO TimeMints (for auction) */\n    uint256 public totalPostIcoContributorIds;\n    /* Stores total Auction TimeMints allocated */\n    uint256 public totalPostIcoContributorIdsAllocated = 0;\n\n    /* Maximum number of address */\n    uint256 public maxAddresses;\n\n    /* Min Minting power with 19 decimals: 0.5% : 5000000000000000000 */\n    uint256 public minMintingPower;\n    /* Max Minting power with 19 decimals: 1% : 10000000000000000000 */\n    uint256 public maxMintingPower;\n    /* Halving cycle in days (88) */\n    uint256 public halvingCycle; \n    /* Unix timestamp when minting is to be started */\n    uint256 public initialBlockTimestamp;\n    /* Flag to prevent setting initialBlockTimestamp more than once */\n    bool public isInitialBlockTimestampSet;\n    /* number of decimals in minting power */\n    uint256 public mintingDec; \n\n    /* Minimum Balance in Day tokens required to sell a minting address */\n    uint256 public minBalanceToSell;\n    /* Team address lock down period from issued time, in seconds */\n    uint256 public teamLockPeriodInSec;  //Initialize and set function\n    /* Duration in secs that we consider as a day. (For test deployment purposes, \n       if we want to decrease length of a day. default: 84600)*/\n    uint256 public DayInSecs;\n\n    event UpdatedTokenInformation(string newName, string newSymbol); \n    event MintingAdrTransferred(uint id, address from, address to);\n    event ContributorAdded(address adr, uint id);\n    event TimeMintOnSale(uint id, address seller, uint minPriceInDay, uint expiryBlockNumber);\n    event TimeMintSold(uint id, address buyer, uint offerInDay);\n    event PostInvested(address investor, uint weiAmount, uint tokenAmount, uint customerId, uint contributorId);\n    \n    event TeamAddressAdded(address teamAddress, uint id);\n    // Tell us invest was success\n    event Invested(address receiver, uint weiAmount, uint tokenAmount, uint customerId, uint contributorId);\n\n    modifier onlyContributor(uint id){\n        require(isValidContributorId(id));\n        _;\n    }\n\n    string public name; \n\n    string public symbol; \n\n    uint8 public decimals; \n\n    /**\n        * Construct the token.\n        *\n        * This token must be created through a team multisig wallet, so that it is owned by that wallet.\n        *\n        * @param _name Token name\n        * @param _symbol Token symbol - should be all caps\n        * @param _initialSupply How many tokens we start with\n        * @param _decimals Number of decimal places\n        * _mintable Are new tokens created over the crowdsale or do we distribute only the initial supply?\n        */\n    function DayToken(string _name, string _symbol, uint _initialSupply, uint8 _decimals, \n        bool _mintable, uint _maxAddresses, uint _firstTeamContributorId, uint _totalTeamContributorIds, \n        uint _totalPostIcoContributorIds, uint256 _minMintingPower, uint256 _maxMintingPower, uint _halvingCycle, \n        uint256 _minBalanceToSell, uint256 _dayInSecs, uint256 _teamLockPeriodInSec) \n        UpgradeableToken(msg.sender) {\n        \n        // Create any address, can be transferred\n        // to team multisig via changeOwner(),\n        // also remember to call setUpgradeMaster()\n        owner = msg.sender; \n        name = _name; \n        symbol = _symbol;  \n        totalSupply = _initialSupply; \n        decimals = _decimals; \n        // Create initially all balance on the team multisig\n        balances[owner] = totalSupply; \n        maxAddresses = _maxAddresses;\n        require(maxAddresses > 1); // else division by zero will occur in setInitialMintingPowerOf\n        \n        firstContributorId = 1;\n        totalNormalContributorIds = maxAddresses - _totalTeamContributorIds - _totalPostIcoContributorIds;\n\n        // check timeMint total is sane\n        require(totalNormalContributorIds >= 1);\n\n        firstTeamContributorId = _firstTeamContributorId;\n        totalTeamContributorIds = _totalTeamContributorIds;\n        totalPostIcoContributorIds = _totalPostIcoContributorIds;\n        \n        // calculate first contributor id to be auctioned post ICO\n        firstPostIcoContributorId = maxAddresses - totalPostIcoContributorIds + 1;\n        minMintingPower = _minMintingPower;\n        maxMintingPower = _maxMintingPower;\n        halvingCycle = _halvingCycle;\n        // setting future date far far away, year 2020, \n        // call setInitialBlockTimestamp to set proper timestamp\n        initialBlockTimestamp = 1577836800;\n        isInitialBlockTimestampSet = false;\n        // use setMintingDec to change this\n        mintingDec = 19;\n        minBalanceToSell = _minBalanceToSell;\n        DayInSecs = _dayInSecs;\n        teamLockPeriodInSec = _teamLockPeriodInSec;\n        \n        if (totalSupply > 0) {\n            Minted(owner, totalSupply); \n        }\n\n        if (!_mintable) {\n            mintingFinished = true; \n            require(totalSupply != 0); \n        }\n    }\n\n    /**\n    * Used to set timestamp at which minting power of TimeMints is activated\n    * Can be called only by owner\n    * @param _initialBlockTimestamp timestamp to be set.\n    */\n    function setInitialBlockTimestamp(uint _initialBlockTimestamp) internal onlyOwner {\n        require(!isInitialBlockTimestampSet);\n        isInitialBlockTimestampSet = true;\n        initialBlockTimestamp = _initialBlockTimestamp;\n    }\n\n    /**\n    * check if mintining power is activated and Day token and Timemint transfer is enabled\n    */\n    function isDayTokenActivated() constant returns (bool isActivated) {\n        return (block.timestamp >= initialBlockTimestamp);\n    }\n\n\n    /**\n    * to check if an id is a valid contributor\n    * @param _id contributor id to check.\n    */\n    function isValidContributorId(uint _id) constant returns (bool isValidContributor) {\n        return (_id > 0 && _id <= maxAddresses && contributors[_id].adr != 0 \n            && idOf[contributors[_id].adr] == _id); // cross checking\n    }\n\n    /**\n    * to check if an address is a valid contributor\n    * @param _address  contributor address to check.\n    */\n    function isValidContributorAddress(address _address) constant returns (bool isValidContributor) {\n        return isValidContributorId(idOf[_address]);\n    }\n\n\n    /**\n    * In case of Team address check if lock-in period is over (returns true for all non team addresses)\n    * @param _address team address to check lock in period for.\n    */\n    function isTeamLockInPeriodOverIfTeamAddress(address _address) constant returns (bool isLockInPeriodOver) {\n        isLockInPeriodOver = true;\n        if (teamIssuedTimestamp[_address] != 0) {\n                if (block.timestamp - teamIssuedTimestamp[_address] < teamLockPeriodInSec)\n                    isLockInPeriodOver = false;\n        }\n\n        return isLockInPeriodOver;\n    }\n\n    /**\n    * Used to set mintingDec\n    * Can be called only by owner\n    * @param _mintingDec bounty to be set.\n    */\n    function setMintingDec(uint256 _mintingDec) onlyOwner {\n        require(!isInitialBlockTimestampSet);\n        mintingDec = _mintingDec;\n    }\n\n    /**\n        * When token is released to be transferable, enforce no new tokens can be created.\n        */\n    function releaseTokenTransfer() public onlyOwner {\n        require(isInitialBlockTimestampSet);\n        mintingFinished = true; \n        super.releaseTokenTransfer(); \n    }\n\n    /**\n        * Allow upgrade agent functionality kick in only if the crowdsale was success.\n        */\n    function canUpgrade() public constant returns(bool) {\n        return released && super.canUpgrade(); \n    }\n\n    /**\n        * Owner can update token information here\n        */\n    function setTokenInformation(string _name, string _symbol) onlyOwner {\n        name = _name; \n        symbol = _symbol; \n        UpdatedTokenInformation(name, symbol); \n    }\n\n    /**\n        * Returns the current phase.  \n        * Note: Phase starts with 1\n        * @param _day Number of days since Minting Epoch\n        */\n    function getPhaseCount(uint _day) public constant returns (uint phase) {\n        phase = (_day/halvingCycle) + 1; \n        return (phase); \n    }\n    /**\n        * Returns current day number since minting epoch \n        * or zero if initialBlockTimestamp is in future or its DayZero.\n        */\n    function getDayCount() public constant returns (uint daySinceMintingEpoch) {\n        daySinceMintingEpoch = 0;\n        if (isDayTokenActivated())\n            daySinceMintingEpoch = (block.timestamp - initialBlockTimestamp)/DayInSecs; \n\n        return daySinceMintingEpoch; \n    }\n    /**\n        * Calculates and Sets the minting power of a particular id.\n        * Called before Minting Epoch by constructor\n        * @param _id id of the address whose minting power is to be set.\n        */\n    function setInitialMintingPowerOf(uint256 _id) internal onlyContributor(_id) {\n        contributors[_id].mintingPower = \n            (maxMintingPower - ((_id-1) * (maxMintingPower - minMintingPower)/(maxAddresses-1))); \n    }\n\n    /**\n        * Returns minting power of a particular id.\n        * @param _id Contribution id whose minting power is to be returned\n        */\n    function getMintingPowerById(uint _id) public constant returns (uint256 mintingPower) {\n        return contributors[_id].mintingPower/(2**(getPhaseCount(getDayCount())-1)); \n    }\n\n    /**\n        * Returns minting power of a particular address.\n        * @param _adr Address whose minting power is to be returned\n        */\n    function getMintingPowerByAddress(address _adr) public constant returns (uint256 mintingPower) {\n        return getMintingPowerById(idOf[_adr]);\n    }\n\n\n    /**\n        * Calculates and returns the balance based on the minting power, day and phase.\n        * Can only be called internally\n        * Can calculate balance based on last updated.\n        * @param _id id whose balnce is to be calculated\n        * @param _dayCount day count upto which balance is to be updated\n        */\n    function availableBalanceOf(uint256 _id, uint _dayCount) internal returns (uint256) {\n        uint256 balance = balances[contributors[_id].adr]; \n        uint maxUpdateDays = _dayCount < maxMintingDays ? _dayCount : maxMintingDays;\n        uint i = contributors[_id].lastUpdatedOn + 1;\n        while(i <= maxUpdateDays) {\n             uint phase = getPhaseCount(i);\n             uint phaseEndDay = phase * halvingCycle - 1; // as first day is 0\n             uint constantFactor = contributors[_id].mintingPower / 2**(phase-1);\n\n            for (uint j = i; j <= phaseEndDay && j <= maxUpdateDays; j++) {\n                balance = safeAdd( balance, constantFactor * balance / 10**(mintingDec + 2) );\n            }\n\n            i = j;\n            \n        } \n        return balance; \n    }\n\n    /**\n        * Updates the balance of the specified id in its structure and also in the balances[] mapping.\n        * returns true if successful.\n        * Only for internal calls. Not public.\n        * @param _id id whose balance is to be updated.\n        */\n    function updateBalanceOf(uint256 _id) internal returns (bool success) {\n        // check if its contributor\n        if (isValidContributorId(_id)) {\n            uint dayCount = getDayCount();\n            // proceed only if not already updated today\n            if (contributors[_id].lastUpdatedOn != dayCount && contributors[_id].lastUpdatedOn < maxMintingDays) {\n                address adr = contributors[_id].adr;\n                uint oldBalance = balances[adr];\n                totalSupply = safeSub(totalSupply, oldBalance);\n                uint newBalance = availableBalanceOf(_id, dayCount);\n                balances[adr] = newBalance;\n                totalSupply = safeAdd(totalSupply, newBalance);\n                contributors[_id].lastUpdatedOn = dayCount;\n                Transfer(0, adr, newBalance - oldBalance);\n                return true; \n            }\n        }\n        return false;\n    }\n\n\n    /**\n        * Standard ERC20 function overridden.\n        * Returns the balance of the specified address.\n        * Calculates the balance on fly only if it is a minting address else \n        * simply returns balance from balances[] mapping.\n        * For public calls.\n        * @param _adr address whose balance is to be returned.\n        */\n    function balanceOf(address _adr) constant returns (uint balance) {\n        uint id = idOf[_adr];\n        if (id != 0)\n            return balanceById(id);\n        else \n            return balances[_adr]; \n    }\n\n\n    /**\n        * Standard ERC20 function overridden.\n        * Returns the balance of the specified id.\n        * Calculates the balance on fly only if it is a minting address else \n        * simply returns balance from balances[] mapping.\n        * For public calls.\n        * @param _id address whose balance is to be returned.\n        */\n    function balanceById(uint _id) public constant returns (uint256 balance) {\n        address adr = contributors[_id].adr; \n        if (isDayTokenActivated()) {\n            if (isValidContributorId(_id)) {\n                return ( availableBalanceOf(_id, getDayCount()) );\n            }\n        }\n        return balances[adr]; \n    }\n\n    /**\n        * Returns totalSupply of DAY tokens.\n        */\n    function getTotalSupply() public constant returns (uint) {\n        return totalSupply;\n    }\n\n    /** Function to update balance of a Timemint\n        * returns true if balance updated, false otherwise\n        * @param _id TimeMint to update\n        */\n    function updateTimeMintBalance(uint _id) public returns (bool) {\n        require(isDayTokenActivated());\n        return updateBalanceOf(_id);\n    }\n\n    /** Function to update balance of sender's Timemint\n        * returns true if balance updated, false otherwise\n        */\n    function updateMyTimeMintBalance() public returns (bool) {\n        require(isDayTokenActivated());\n        return updateBalanceOf(idOf[msg.sender]);\n    }\n\n    /**\n        * Standard ERC20 function overidden.\n        * Used to transfer day tokens from caller's address to another\n        * @param _to address to which Day tokens are to be transferred\n        * @param _value Number of Day tokens to be transferred\n        */\n    function transfer(address _to, uint _value) public returns (bool success) {\n        require(isDayTokenActivated());\n        // if Team address, check if lock-in period is over\n        require(isTeamLockInPeriodOverIfTeamAddress(msg.sender));\n\n        updateBalanceOf(idOf[msg.sender]);\n\n        // Check sender account has enough balance and transfer amount is non zero\n        require ( balanceOf(msg.sender) >= _value && _value != 0 ); \n        \n        updateBalanceOf(idOf[_to]);\n\n        balances[msg.sender] = safeSub(balances[msg.sender], _value); \n        balances[_to] = safeAdd(balances[_to], _value); \n        Transfer(msg.sender, _to, _value);\n\n        return true;\n    }\n    \n\n    /**\n        * Standard ERC20 Standard Token function overridden. Added Team address vesting period lock. \n        */\n    function transferFrom(address _from, address _to, uint _value) public returns (bool success) {\n        require(isDayTokenActivated());\n\n        // if Team address, check if lock-in period is over\n        require(isTeamLockInPeriodOverIfTeamAddress(_from));\n\n        uint _allowance = allowed[_from][msg.sender];\n\n        updateBalanceOf(idOf[_from]);\n\n        // Check from account has enough balance, transfer amount is non zero \n        // and _value is allowed to be transferred\n        require ( balanceOf(_from) >= _value && _value != 0  &&  _value <= _allowance); \n\n        updateBalanceOf(idOf[_to]);\n\n        allowed[_from][msg.sender] = safeSub(_allowance, _value);\n        balances[_from] = safeSub(balances[_from], _value);\n        balances[_to] = safeAdd(balances[_to], _value);\n    \n        Transfer(_from, _to, _value);\n        \n        return true;\n    }\n\n\n    /** \n        * Add any contributor structure (For every kind of contributors: Team/Pre-ICO/ICO/Test)\n        * @param _adr Address of the contributor to be added  \n        * @param _initialContributionDay Initial Contribution of the contributor to be added\n        */\n  function addContributor(uint contributorId, address _adr, uint _initialContributionDay) internal onlyOwner {\n        require(contributorId <= maxAddresses);\n        //address should not be an existing contributor\n        require(!isValidContributorAddress(_adr));\n        //TimeMint should not be already allocated\n        require(!isValidContributorId(contributorId));\n        contributors[contributorId].adr = _adr;\n        idOf[_adr] = contributorId;\n        setInitialMintingPowerOf(contributorId);\n        contributors[contributorId].initialContributionDay = _initialContributionDay;\n        contributors[contributorId].lastUpdatedOn = getDayCount();\n        ContributorAdded(_adr, contributorId);\n        contributors[contributorId].status = sellingStatus.NOTONSALE;\n    }\n\n\n    /** Function to be called by minting addresses in order to sell their address\n        * @param _minPriceInDay Minimum price in DAY tokens set by the seller\n        * @param _expiryBlockNumber Expiry Block Number set by the seller\n        */\n    function sellMintingAddress(uint256 _minPriceInDay, uint _expiryBlockNumber) public returns (bool) {\n        require(isDayTokenActivated());\n        require(_expiryBlockNumber > block.number);\n\n        // if Team address, check if lock-in period is over\n        require(isTeamLockInPeriodOverIfTeamAddress(msg.sender));\n\n        uint id = idOf[msg.sender];\n        require(contributors[id].status == sellingStatus.NOTONSALE);\n\n        // update balance of sender address before checking for minimum required balance\n        updateBalanceOf(id);\n        require(balances[msg.sender] >= minBalanceToSell);\n        contributors[id].minPriceInDay = _minPriceInDay;\n        contributors[id].expiryBlockNumber = _expiryBlockNumber;\n        contributors[id].status = sellingStatus.ONSALE;\n        balances[msg.sender] = safeSub(balances[msg.sender], minBalanceToSell);\n        balances[this] = safeAdd(balances[this], minBalanceToSell);\n        Transfer(msg.sender, this, minBalanceToSell);\n        TimeMintOnSale(id, msg.sender, contributors[id].minPriceInDay, contributors[id].expiryBlockNumber);\n        return true;\n    }\n\n\n    /** Function to be called by minting address in order to cancel the sale of their TimeMint\n        */\n    function cancelSaleOfMintingAddress() onlyContributor(idOf[msg.sender]) public {\n        uint id = idOf[msg.sender];\n        // TimeMint should be on sale\n        require(contributors[id].status == sellingStatus.ONSALE);\n        contributors[id].status = sellingStatus.EXPIRED;\n    }\n\n\n    /** Function to be called by any user to get a list of all On Sale TimeMints\n        */\n    function getOnSaleIds() constant public returns(uint[]) {\n        uint[] memory idsOnSale = new uint[](maxAddresses);\n        uint j = 0;\n        for(uint i=1; i <= maxAddresses; i++) {\n\n            if ( isValidContributorId(i) &&\n                block.number <= contributors[i].expiryBlockNumber && \n                contributors[i].status == sellingStatus.ONSALE ) {\n                    idsOnSale[j] = i;\n                    j++;     \n            }\n            \n        }\n        return idsOnSale;\n    }\n\n\n    /** Function to be called by any user to get status of a Time Mint.\n        * returns status 0 - Not on sale, 1 - Expired, 2 - On sale,\n        * @param _id ID number of the Time Mint \n        */\n    function getSellingStatus(uint _id) constant public returns(sellingStatus status) {\n        require(isValidContributorId(_id));\n        status = contributors[_id].status;\n        if ( block.number > contributors[_id].expiryBlockNumber && \n                status == sellingStatus.ONSALE )\n            status = sellingStatus.EXPIRED;\n\n        return status;\n    }\n\n    /** Function to be called by any user to buy a onsale address by offering an amount\n        * @param _offerId ID number of the address to be bought by the buyer\n        * @param _offerInDay Offer given by the buyer in number of DAY tokens\n        */\n    function buyMintingAddress(uint _offerId, uint256 _offerInDay) public returns(bool) {\n        if (contributors[_offerId].status == sellingStatus.ONSALE \n            && block.number > contributors[_offerId].expiryBlockNumber)\n        {\n            contributors[_offerId].status = sellingStatus.EXPIRED;\n        }\n        address soldAddress = contributors[_offerId].adr;\n        require(contributors[_offerId].status == sellingStatus.ONSALE);\n        require(_offerInDay >= contributors[_offerId].minPriceInDay);\n\n        // prevent seller from cancelling sale in between\n        contributors[_offerId].status = sellingStatus.NOTONSALE;\n\n        // first get the offered DayToken in the token contract & \n        // then transfer the total sum (minBalanceToSend+_offerInDay) to the seller\n        balances[msg.sender] = safeSub(balances[msg.sender], _offerInDay);\n        balances[this] = safeAdd(balances[this], _offerInDay);\n        Transfer(msg.sender, this, _offerInDay);\n        if(transferMintingAddress(contributors[_offerId].adr, msg.sender)) {\n            //mark the offer as sold & let seller pull the proceed to their own account.\n            sellingPriceInDayOf[soldAddress] = _offerInDay;\n            soldAddresses[soldAddress] = true; \n            TimeMintSold(_offerId, msg.sender, _offerInDay);  \n        }\n        return true;\n    }\n\n\n    /**\n        * Transfer minting address from one user to another\n        * Gives the transfer-to address, the id of the original address\n        * returns true if successful and false if not.\n        * @param _to address of the user to which minting address is to be tranferred\n        */\n    function transferMintingAddress(address _from, address _to) internal onlyContributor(idOf[_from]) returns (bool) {\n        require(isDayTokenActivated());\n\n        // _to should be non minting address\n        require(!isValidContributorAddress(_to));\n        \n        uint id = idOf[_from];\n        // update balance of from address before transferring minting power\n        updateBalanceOf(id);\n\n        contributors[id].adr = _to;\n        idOf[_to] = id;\n        idOf[_from] = 0;\n        contributors[id].initialContributionDay = 0;\n        // needed as id is assigned to new address\n        contributors[id].lastUpdatedOn = getDayCount();\n        contributors[id].expiryBlockNumber = 0;\n        contributors[id].minPriceInDay = 0;\n        MintingAdrTransferred(id, _from, _to);\n        return true;\n    }\n\n\n    /** Function to allow seller to get back their deposited amount of day tokens(minBalanceToSell) and \n        * offer made by buyer after successful sale.\n        * Throws if sale is not successful\n        */\n    function fetchSuccessfulSaleProceed() public  returns(bool) {\n        require(soldAddresses[msg.sender] == true);\n        // to prevent re-entrancy attack\n        soldAddresses[msg.sender] = false;\n        uint saleProceed = safeAdd(minBalanceToSell, sellingPriceInDayOf[msg.sender]);\n        balances[this] = safeSub(balances[this], saleProceed);\n        balances[msg.sender] = safeAdd(balances[msg.sender], saleProceed);\n        Transfer(this, msg.sender, saleProceed);\n        return true;\n                \n    }\n\n    /** Function that lets a seller get their deposited day tokens (minBalanceToSell) back, if no buyer turns up.\n        * Allowed only after expiryBlockNumber\n        * Throws if any other state other than EXPIRED\n        */\n    function refundFailedAuctionAmount() onlyContributor(idOf[msg.sender]) public returns(bool){\n        uint id = idOf[msg.sender];\n        if(block.number > contributors[id].expiryBlockNumber && contributors[id].status == sellingStatus.ONSALE)\n        {\n            contributors[id].status = sellingStatus.EXPIRED;\n        }\n        require(contributors[id].status == sellingStatus.EXPIRED);\n        // reset selling status\n        contributors[id].status = sellingStatus.NOTONSALE;\n        balances[this] = safeSub(balances[this], minBalanceToSell);\n        // update balance of seller address before refunding\n        updateBalanceOf(id);\n        balances[msg.sender] = safeAdd(balances[msg.sender], minBalanceToSell);\n        contributors[id].minPriceInDay = 0;\n        contributors[id].expiryBlockNumber = 0;\n        Transfer(this, msg.sender, minBalanceToSell);\n        return true;\n    }\n\n\n    /** Function to add a team address as a contributor and store it's time issued to calculate vesting period\n        * Called by owner\n        */\n    function addTeamTimeMints(address _adr, uint _id, uint _tokens, bool _isTest) public onlyOwner {\n        //check if Id is in range of team Ids\n        require(_id >= firstTeamContributorId && _id < firstTeamContributorId + totalTeamContributorIds);\n        require(totalTeamContributorIdsAllocated < totalTeamContributorIds);\n        addContributor(_id, _adr, 0);\n        totalTeamContributorIdsAllocated++;\n        // enforce lockin period if not test address\n        if(!_isTest) teamIssuedTimestamp[_adr] = block.timestamp;\n        mint(_adr, _tokens);\n        TeamAddressAdded(_adr, _id);\n    }\n\n\n    /** Function to add reserved aution TimeMints post-ICO. Only by owner\n        * @param _receiver Address of the minting to be added\n        * @param _customerId Server side id of the customer\n        * @param _id contributorId\n        */\n    function postAllocateAuctionTimeMints(address _receiver, uint _customerId, uint _id) public onlyOwner {\n\n        //check if Id is in range of Auction Ids\n        require(_id >= firstPostIcoContributorId && _id < firstPostIcoContributorId + totalPostIcoContributorIds);\n        require(totalPostIcoContributorIdsAllocated < totalPostIcoContributorIds);\n        \n        require(released == true);\n        addContributor(_id, _receiver, 0);\n        totalPostIcoContributorIdsAllocated++;\n        PostInvested(_receiver, 0, 0, _customerId, _id);\n    }\n\n\n    /** Function to add all contributors except team, test and Auctions TimeMints. Only by owner\n        * @param _receiver Address of the minting to be added\n        * @param _customerId Server side id of the customer\n        * @param _id contributor id\n        * @param _tokens day tokens to allocate\n        * @param _weiAmount ether invested in wei\n        */\n    function allocateNormalTimeMints(address _receiver, uint _customerId, uint _id, uint _tokens, uint _weiAmount) public onlyOwner {\n        // check if Id is in range of Normal Ids\n        require(_id >= firstContributorId && _id <= totalNormalContributorIds);\n        require(totalNormalContributorIdsAllocated < totalNormalContributorIds);\n        addContributor(_id, _receiver, _tokens);\n        totalNormalContributorIdsAllocated++;\n        mint(_receiver, _tokens);\n        Invested(_receiver, _weiAmount, _tokens, _customerId, _id);\n        \n    }\n\n\n    /** Function to release token\n        * Called by owner\n        */\n    function releaseToken(uint _initialBlockTimestamp) public onlyOwner {\n        require(!released); // check not already released\n        \n        setInitialBlockTimestamp(_initialBlockTimestamp);\n\n        // Make token transferable\n        releaseTokenTransfer();\n    }\n    \n}\n",
  "sourcePath": "/home/logan/Work/v2/chronos/chronologic/contracts/DayToken.sol",
  "compiler": {
    "name": "solc",
    "version": "0.4.21+commit.dfe3193c.Emscripten.clang"
  },
  "schemaVersion": "2.0.0",
  "updatedAt": "2018-05-15T13:38:54.610Z"
}