{
  "contractName": "InteractiveConditional",
  "abi": [
    {
      "constant": true,
      "inputs": [],
      "name": "checkValid",
      "outputs": [
        {
          "name": "",
          "type": "bool"
        }
      ],
      "payable": false,
      "stateMutability": "view",
      "type": "function"
    },
    {
      "constant": false,
      "inputs": [
        {
          "name": "_valid",
          "type": "bool"
        }
      ],
      "name": "setValid",
      "outputs": [],
      "payable": false,
      "stateMutability": "nonpayable",
      "type": "function"
    }
  ],
  "bytecode": "0x606060405260008060006101000a81548160ff021916908315150217905550341561002957600080fd5b60f8806100376000396000f3006060604052600436106049576000357c0100000000000000000000000000000000000000000000000000000000900463ffffffff1680631b98744414604e5780636c64edee146078575b600080fd5b3415605857600080fd5b605e609a565b604051808215151515815260200191505060405180910390f35b3415608257600080fd5b60986004808035151590602001909190505060b0565b005b60008060009054906101000a900460ff16905090565b806000806101000a81548160ff021916908315150217905550505600a165627a7a72305820931e332f1da0d0359e52a3aee58d64bd7f9266addb78cd9c257b7ccf164aad370029",
  "source": "pragma solidity 0.4.21;\n\ncontract InteractiveConditional {\n    bool valid = false;\n\n    function checkValid()\n        public view returns (bool)\n    {\n        return valid;\n    }\n\n    function setValid(bool _valid)\n        public\n    {\n        valid = _valid;\n    }\n}",
  "sourcePath": "/home/logan/Work/v2/chronos/contracts/helpers/InteractiveConditional.sol",
  "compiler": {
    "name": "solc",
    "version": "0.4.21+commit.dfe3193c.Emscripten.clang"
  },
  "schemaVersion": "2.0.0",
  "updatedAt": "2018-05-15T13:38:54.637Z"
}