{
  "contractName": "IPFS",
  "abi": [
    {
      "constant": true,
      "inputs": [
        {
          "name": "_data",
          "type": "bytes"
        }
      ],
      "name": "generateHash",
      "outputs": [
        {
          "name": "sha256HashOfData",
          "type": "bytes32"
        }
      ],
      "payable": false,
      "stateMutability": "view",
      "type": "function"
    },
    {
      "constant": true,
      "inputs": [
        {
          "name": "_length",
          "type": "uint256"
        }
      ],
      "name": "lengthEncode",
      "outputs": [
        {
          "name": "",
          "type": "bytes"
        }
      ],
      "payable": false,
      "stateMutability": "view",
      "type": "function"
    },
    {
      "constant": true,
      "inputs": [
        {
          "name": "_in",
          "type": "bytes32"
        }
      ],
      "name": "toBytes",
      "outputs": [
        {
          "name": "",
          "type": "bytes"
        }
      ],
      "payable": false,
      "stateMutability": "pure",
      "type": "function"
    },
    {
      "constant": true,
      "inputs": [
        {
          "name": "_x",
          "type": "uint256"
        }
      ],
      "name": "bin",
      "outputs": [
        {
          "name": "",
          "type": "bytes"
        }
      ],
      "payable": false,
      "stateMutability": "view",
      "type": "function"
    },
    {
      "constant": true,
      "inputs": [
        {
          "name": "_byteArray",
          "type": "bytes"
        },
        {
          "name": "_byteArray2",
          "type": "bytes"
        }
      ],
      "name": "concat",
      "outputs": [
        {
          "name": "",
          "type": "bytes"
        }
      ],
      "payable": false,
      "stateMutability": "pure",
      "type": "function"
    }
  ],
  "bytecode": "0x6060604052341561000f57600080fd5b610b708061001e6000396000f30060606040526004361061006c576000357c0100000000000000000000000000000000000000000000000000000000900463ffffffff168062cc15b014610071578063326cf61c1461010d57806354f0cbac146101ad5780635f3376f314610226578063c4802eb51461033f575b600080fd5b341561007c57600080fd5b61009260048080359060200190919050506103db565b6040518080602001828103825283818151815260200191508051906020019080838360005b838110156100d25780820151818401526020810190506100b7565b50505050905090810190601f1680156100ff5780820380516001836020036101000a031916815260200191505b509250505060405180910390f35b341561011857600080fd5b610132600480803560001916906020019091905050610438565b6040518080602001828103825283818151815260200191508051906020019080838360005b83811015610172578082015181840152602081019050610157565b50505050905090810190601f16801561019f5780820380516001836020036101000a031916815260200191505b509250505060405180910390f35b34156101b857600080fd5b610208600480803590602001908201803590602001908080601f0160208091040260200160405190810160405280939291908181526020018383808284378201915050505050509190505061050d565b60405180826000191660001916815260200191505060405180910390f35b341561023157600080fd5b6102c4600480803590602001908201803590602001908080601f0160208091040260200160405190810160405280939291908181526020018383808284378201915050505050509190803590602001908201803590602001908080601f01602080910402602001604051908101604052809392919081815260200183838082843782019150505050505091905050610865565b6040518080602001828103825283818151815260200191508051906020019080838360005b838110156103045780820151818401526020810190506102e9565b50505050905090810190601f1680156103315780820380516001836020036101000a031916815260200191505b509250505060405180910390f35b341561034a57600080fd5b6103606004808035906020019091905050610a29565b6040518080602001828103825283818151815260200191508051906020019080838360005b838110156103a0578082015181840152602081019050610385565b50505050905090810190601f1680156103cd5780820380516001836020036101000a031916815260200191505b509250505060405180910390f35b6103e3610b30565b60808210156103fc576103f582610a29565b9050610433565b6104306104166080808581151561040f57fe5b0601610a29565b61042b60808581151561042557fe5b04610a29565b610865565b90505b919050565b610440610b30565b610448610b30565b600060206040518059106104595750595b9080825280601f01601f19166020018201604052509150600090505b60208160ff16101561050357838160ff1660208110151561049257fe5b1a7f010000000000000000000000000000000000000000000000000000000000000002828260ff168151811015156104c657fe5b9060200101907effffffffffffffffffffffffffffffffffffffffffffffffffffffffffffff1916908160001a9053508080600101915050610475565b8192505050919050565b6000610517610b30565b61051f610b30565b61052984516103db565b915061053e82516002026004865101016103db565b905060026040805190810160405280600181526020017f0a00000000000000000000000000000000000000000000000000000000000000815250826040805190810160405280600381526020017f080212000000000000000000000000000000000000000000000000000000000081525085886040805190810160405280600181526020017f1800000000000000000000000000000000000000000000000000000000000000815250886040518088805190602001908083835b60208310151561061d57805182526020820191506020810190506020830392506105f8565b6001836020036101000a03801982511681845116808217855250505050505090500187805190602001908083835b602083101515610670578051825260208201915060208101905060208303925061064b565b6001836020036101000a03801982511681845116808217855250505050505090500186805190602001908083835b6020831015156106c3578051825260208201915060208101905060208303925061069e565b6001836020036101000a03801982511681845116808217855250505050505090500185805190602001908083835b60208310151561071657805182526020820191506020810190506020830392506106f1565b6001836020036101000a03801982511681845116808217855250505050505090500184805190602001908083835b6020831015156107695780518252602082019150602081019050602083039250610744565b6001836020036101000a03801982511681845116808217855250505050505090500183805190602001908083835b6020831015156107bc5780518252602082019150602081019050602083039250610797565b6001836020036101000a03801982511681845116808217855250505050505090500182805190602001908083835b60208310151561080f57805182526020820191506020810190506020830392506107ea565b6001836020036101000a0380198251168184511680821785525050505050509050019750505050505050506020604051808303816000865af1151561085357600080fd5b50506040518051905092505050919050565b61086d610b30565b610875610b30565b600083518551016040518059106108895750595b9080825280601f01601f19166020018201604052509150600090505b84518161ffff16101561095e57848161ffff168151811015156108c457fe5b9060200101517f010000000000000000000000000000000000000000000000000000000000000090047f010000000000000000000000000000000000000000000000000000000000000002828261ffff1681518110151561092157fe5b9060200101907effffffffffffffffffffffffffffffffffffffffffffffffffffffffffffff1916908160001a90535080806001019150506108a5565b5b83518551018161ffff161015610a1e578385518261ffff160381518110151561098457fe5b9060200101517f010000000000000000000000000000000000000000000000000000000000000090047f010000000000000000000000000000000000000000000000000000000000000002828261ffff168151811015156109e157fe5b9060200101907effffffffffffffffffffffffffffffffffffffffffffffffffffffffffffff1916908160001a905350808060010191505061095f565b819250505092915050565b610a31610b30565b6000610a3b610b30565b6000841415610a6f576000604051805910610a535750595b9080825280601f01601f19166020018201604052509250610b29565b61010084811515610a7c57fe5b067f01000000000000000000000000000000000000000000000000000000000000000291506001604051805910610ab05750595b9080825280601f01601f1916602001820160405250905081816000815181101515610ad757fe5b9060200101907effffffffffffffffffffffffffffffffffffffffffffffffffffffffffffff1916908160001a905350610b26610b2061010086811515610b1a57fe5b04610a29565b82610865565b92505b5050919050565b6020604051908101604052806000815250905600a165627a7a723058207205423af7c90a589152223213e4dadb5234eecdcca8d1bca2319b0323e303e80029",
  "source": "pragma solidity ^0.4.19;\n\n/**\n * @title IPFS\n * Contract to verify IPFS hashes on chain.\n * Cribbed from https://github.com/MrChico/verifyIPFS/blob/master/contracts/verifyIPFS.sol\n */\ncontract IPFS {\n    // struct MultiHash {\n    //     bytes32 digest;\n    //     uint8 hashFunction;\n    //     uint8 size;\n    // }\n\n    bytes constant Prefix1 = hex\"0a\";\n    bytes constant Prefix2 = hex\"080212\";\n    bytes constant Postfix = hex\"18\";\n    bytes constant Sha256MultiHashPrefix = hex\"12\";\n    bytes constant LengthPrefix = hex\"20\";\n    bytes constant ALPHABET = '123456789ABCDEFGHJKLMNPQRSTUVWXYZabcdefghijkmnopqrstuvwxyz';\n\n    function generateHash(bytes _data) \n        public constant returns (bytes32 sha256HashOfData)//(bytes b58Hash)\n    {\n        // Convert the string to bytes explicitly.\n        // bytes memory data = _data;\n        //\n        bytes memory len1 = lengthEncode(_data.length);\n        bytes memory len2 = lengthEncode(_data.length + 4 + 2*len1.length);\n        return sha256(Prefix1, len2, Prefix2, len1, _data, Postfix, len1);\n        // return concat(concat(Sha256MultiHashPrefix, LengthPrefix), toBytes(sha256(Prefix1, len2, Prefix2, len1, data, Postfix, len1)));\n        // return base58(concat(concat(Sha256MultiHashPrefix, LengthPrefix), toBytes(sha256(\n        //     Prefix1, len2, Prefix2, len1, data, Postfix, len1\n        // ))));\n    }\n\n    function lengthEncode(uint256 _length)\n        public constant returns (bytes)\n    {\n        if (_length < 128) {\n            return bin(_length);\n        } else {\n            return concat(bin(_length % 128 + 128), bin(_length / 128));\n        }\n    }\n\n    // function base58(bytes _source)\n    //     public pure returns (bytes)\n    // {\n    //     if (_source.length == 0) {\n    //         return new bytes(0);\n    //     }\n    //     uint8[] memory digits = new uint8[](40);\n    //     digits[0] = 0;\n    //     uint8 digitLength = 1;\n    //     for (uint i = 0; i < _source.length; i++) {\n    //         uint carry = uint8(_source[i]);\n    //         for (uint j = 0; j < digitLength; j++) {\n    //             carry += uint(digits[j]) * 256;\n    //             digits[j] = uint8(carry % 58);\n    //             carry = carry / 58;\n    //         }\n\n    //         while (carry > 0) {\n    //             digits[digitLength] = uint8(carry % 58);\n    //             digitLength++;\n    //             // carry = carry / 58; // this line throws the invalid opcode\n    //             carry = 0; // this fixes it\n    //         }\n    //     }\n    //     return _source; // this is for testing\n    //     // return toAlphabet(reverse(truncate(digits, digitLength)));\n    // }\n\n    // function truncate(uint8[] _array, uint8 _length)\n    //     public pure returns (uint8[])\n    // {\n    //     uint8[] memory out = new uint8[](_length);\n    //     for (uint i = 0; i < _length; i++) {\n    //         out[i] = _array[i];\n    //     }\n    //     return out;\n    // }\n\n    // function reverse(uint8[] _in)\n    //     public pure returns (uint8[])\n    // {\n    //     uint8[] memory out = new uint8[](_in.length);\n    //     for (uint i = 0; i < _in.length; i++) {\n    //         out[i] = _in[_in.length-1-i];\n    //     }\n    //     return out;\n    // }\n\n    // function toAlphabet(uint8[] _indices)\n    //     public pure returns (bytes)\n    // {\n    //     bytes memory out = new bytes(_indices.length);\n    //     for (uint i = 0; i < _indices.length; i++) {\n    //         out[i] = ALPHABET[_indices[i]];\n    //     }\n    //     return out;\n    // }\n\n    function toBytes(bytes32 _in)\n        public pure returns (bytes)\n    {\n        bytes memory out = new bytes(32);\n        for (uint8 i = 0; i < 32; i++) {\n            out[i] = _in[i];\n        }\n        return out;\n    }\n\n    function bin(uint256 _x) \n        public view returns (bytes)\n    {\n        if (_x == 0) {\n            return new bytes(0);\n        } else {\n            byte s = byte(_x % 256);\n            bytes memory res = new bytes(1);\n            res[0] = s;\n            return concat(bin(_x / 256), res);\n        }\n    }\n\n    function concat(bytes _byteArray, bytes _byteArray2)\n        public pure returns (bytes)\n    {\n        bytes memory resArray = new bytes(_byteArray.length + _byteArray2.length);\n        for (uint16 i = 0; i < _byteArray.length; i++) {\n            resArray[i] = _byteArray[i];\n        }\n        for (i; i < (_byteArray.length + _byteArray2.length); i++) {\n            resArray[i] = _byteArray2[i - _byteArray.length];\n        }\n        return resArray;\n    }\n}",
  "sourcePath": "/home/logan/Work/v2/chronos/contracts/IPFS.sol",
  "compiler": {
    "name": "solc",
    "version": "0.4.21+commit.dfe3193c.Emscripten.clang"
  },
  "schemaVersion": "2.0.0",
  "updatedAt": "2018-05-15T13:39:33.317Z"
}