{
  "contractName": "PriorityQueue",
  "abi": [
    {
      "constant": true,
      "inputs": [],
      "name": "awaitingConfirm",
      "outputs": [
        {
          "name": "",
          "type": "address"
        }
      ],
      "payable": false,
      "stateMutability": "view",
      "type": "function"
    },
    {
      "constant": false,
      "inputs": [
        {
          "name": "_newAuthorized",
          "type": "address"
        }
      ],
      "name": "transferAuth",
      "outputs": [
        {
          "name": "",
          "type": "bool"
        }
      ],
      "payable": false,
      "stateMutability": "nonpayable",
      "type": "function"
    },
    {
      "constant": false,
      "inputs": [],
      "name": "acceptAuth",
      "outputs": [
        {
          "name": "",
          "type": "bool"
        }
      ],
      "payable": false,
      "stateMutability": "nonpayable",
      "type": "function"
    },
    {
      "constant": true,
      "inputs": [],
      "name": "authorized",
      "outputs": [
        {
          "name": "",
          "type": "address"
        }
      ],
      "payable": false,
      "stateMutability": "view",
      "type": "function"
    },
    {
      "anonymous": false,
      "inputs": [
        {
          "indexed": false,
          "name": "id",
          "type": "bytes8"
        },
        {
          "indexed": false,
          "name": "val",
          "type": "uint256"
        }
      ],
      "name": "Enter",
      "type": "event"
    },
    {
      "anonymous": false,
      "inputs": [
        {
          "indexed": false,
          "name": "id",
          "type": "bytes8"
        },
        {
          "indexed": false,
          "name": "val",
          "type": "uint256"
        }
      ],
      "name": "Exit",
      "type": "event"
    },
    {
      "anonymous": false,
      "inputs": [
        {
          "indexed": false,
          "name": "val",
          "type": "uint256"
        },
        {
          "indexed": false,
          "name": "addr",
          "type": "address"
        }
      ],
      "name": "Pop",
      "type": "event"
    },
    {
      "constant": true,
      "inputs": [],
      "name": "isEmpty",
      "outputs": [
        {
          "name": "",
          "type": "bool"
        }
      ],
      "payable": false,
      "stateMutability": "view",
      "type": "function"
    },
    {
      "constant": true,
      "inputs": [],
      "name": "queueSize",
      "outputs": [
        {
          "name": "",
          "type": "uint256"
        }
      ],
      "payable": false,
      "stateMutability": "view",
      "type": "function"
    },
    {
      "constant": true,
      "inputs": [],
      "name": "firstNode",
      "outputs": [
        {
          "name": "",
          "type": "bytes8"
        }
      ],
      "payable": false,
      "stateMutability": "view",
      "type": "function"
    },
    {
      "constant": true,
      "inputs": [],
      "name": "lastNode",
      "outputs": [
        {
          "name": "",
          "type": "bytes8"
        }
      ],
      "payable": false,
      "stateMutability": "view",
      "type": "function"
    },
    {
      "constant": true,
      "inputs": [
        {
          "name": "_timeNode",
          "type": "bytes8"
        }
      ],
      "name": "getTimenode",
      "outputs": [
        {
          "name": "id",
          "type": "bytes8"
        },
        {
          "name": "left",
          "type": "bytes8"
        },
        {
          "name": "right",
          "type": "bytes8"
        },
        {
          "name": "at",
          "type": "address"
        },
        {
          "name": "bond",
          "type": "uint256"
        }
      ],
      "payable": false,
      "stateMutability": "view",
      "type": "function"
    },
    {
      "constant": true,
      "inputs": [],
      "name": "peek",
      "outputs": [
        {
          "name": "",
          "type": "uint256"
        },
        {
          "name": "",
          "type": "address"
        }
      ],
      "payable": false,
      "stateMutability": "view",
      "type": "function"
    },
    {
      "constant": true,
      "inputs": [
        {
          "name": "_idx",
          "type": "bytes8"
        }
      ],
      "name": "getAtIndex",
      "outputs": [
        {
          "name": "",
          "type": "uint256"
        },
        {
          "name": "",
          "type": "address"
        }
      ],
      "payable": false,
      "stateMutability": "view",
      "type": "function"
    },
    {
      "constant": true,
      "inputs": [],
      "name": "snapShotQueue",
      "outputs": [
        {
          "name": "length",
          "type": "uint256"
        },
        {
          "name": "ids",
          "type": "bytes8[]"
        },
        {
          "name": "lefts",
          "type": "bytes8[]"
        },
        {
          "name": "rights",
          "type": "bytes8[]"
        },
        {
          "name": "bonds",
          "type": "uint256[]"
        }
      ],
      "payable": false,
      "stateMutability": "view",
      "type": "function"
    },
    {
      "constant": true,
      "inputs": [
        {
          "name": "_previousNode",
          "type": "bytes8"
        },
        {
          "name": "_priority",
          "type": "uint256"
        }
      ],
      "name": "validateInsertPosition",
      "outputs": [
        {
          "name": "",
          "type": "bool"
        }
      ],
      "payable": false,
      "stateMutability": "view",
      "type": "function"
    },
    {
      "constant": false,
      "inputs": [
        {
          "name": "_previousNode",
          "type": "bytes8"
        },
        {
          "name": "_priority",
          "type": "uint256"
        },
        {
          "name": "_tn",
          "type": "address"
        }
      ],
      "name": "insert",
      "outputs": [
        {
          "name": "",
          "type": "bool"
        }
      ],
      "payable": false,
      "stateMutability": "nonpayable",
      "type": "function"
    },
    {
      "constant": false,
      "inputs": [],
      "name": "pop",
      "outputs": [
        {
          "name": "retVal",
          "type": "uint256"
        },
        {
          "name": "retAddr",
          "type": "address"
        }
      ],
      "payable": false,
      "stateMutability": "nonpayable",
      "type": "function"
    },
    {
      "constant": true,
      "inputs": [
        {
          "name": "_bond",
          "type": "uint256"
        }
      ],
      "name": "getInsertPosition",
      "outputs": [
        {
          "name": "_previousNode",
          "type": "bytes8"
        }
      ],
      "payable": false,
      "stateMutability": "view",
      "type": "function"
    },
    {
      "constant": true,
      "inputs": [
        {
          "name": "_bond",
          "type": "uint256"
        }
      ],
      "name": "percUp",
      "outputs": [
        {
          "name": "_previousNode",
          "type": "bytes8"
        }
      ],
      "payable": false,
      "stateMutability": "view",
      "type": "function"
    },
    {
      "constant": true,
      "inputs": [
        {
          "name": "_bond",
          "type": "uint256"
        }
      ],
      "name": "percDown",
      "outputs": [
        {
          "name": "_previousNode",
          "type": "bytes8"
        }
      ],
      "payable": false,
      "stateMutability": "view",
      "type": "function"
    }
  ],
  "bytecode": "0x6060604052336000806101000a81548173ffffffffffffffffffffffffffffffffffffffff021916908373ffffffffffffffffffffffffffffffffffffffff1602179055506131c0806100536000396000f3006060604052600436106100fc576000357c0100000000000000000000000000000000000000000000000000000000900463ffffffff16806318044b9a14610101578063200fc3ff1461015657806329fc1419146101b55780632a0c0dbb146102225780632eeb1326146102a05780633a652d27146102f1578063456cb7c61461031e578063549ffbd91461037357806359e02dd7146103f8578063681fe70c1461045457806370d2392914610481578063a4ece52c146105bd578063a5eae8c114610619578063ab70da8e14610678578063b52a5d76146106d7578063bae6c2ad14610820578063be51986214610849578063c2571a0a146108b6575b600080fd5b341561010c57600080fd5b610114610923565b604051808273ffffffffffffffffffffffffffffffffffffffff1673ffffffffffffffffffffffffffffffffffffffff16815260200191505060405180910390f35b341561016157600080fd5b610169610949565b604051808277ffffffffffffffffffffffffffffffffffffffffffffffff191677ffffffffffffffffffffffffffffffffffffffffffffffff1916815260200191505060405180910390f35b34156101c057600080fd5b6101d6600480803590602001909190505061097b565b604051808277ffffffffffffffffffffffffffffffffffffffffffffffff191677ffffffffffffffffffffffffffffffffffffffffffffffff1916815260200191505060405180910390f35b341561022d57600080fd5b610286600480803577ffffffffffffffffffffffffffffffffffffffffffffffff191690602001909190803590602001909190803573ffffffffffffffffffffffffffffffffffffffff16906020019091905050610a38565b604051808215151515815260200191505060405180910390f35b34156102ab57600080fd5b6102d7600480803573ffffffffffffffffffffffffffffffffffffffff1690602001909190505061129a565b604051808215151515815260200191505060405180910390f35b34156102fc57600080fd5b610304611341565b604051808215151515815260200191505060405180910390f35b341561032957600080fd5b61033161140b565b604051808273ffffffffffffffffffffffffffffffffffffffff1673ffffffffffffffffffffffffffffffffffffffff16815260200191505060405180910390f35b341561037e57600080fd5b6103af600480803577ffffffffffffffffffffffffffffffffffffffffffffffff1916906020019091905050611430565b604051808381526020018273ffffffffffffffffffffffffffffffffffffffff1673ffffffffffffffffffffffffffffffffffffffff1681526020019250505060405180910390f35b341561040357600080fd5b61040b611590565b604051808381526020018273ffffffffffffffffffffffffffffffffffffffff1673ffffffffffffffffffffffffffffffffffffffff1681526020019250505060405180910390f35b341561045f57600080fd5b6104676116c3565b604051808215151515815260200191505060405180910390f35b341561048c57600080fd5b6104bd600480803577ffffffffffffffffffffffffffffffffffffffffffffffff19169060200190919050506116d2565b604051808677ffffffffffffffffffffffffffffffffffffffffffffffff191677ffffffffffffffffffffffffffffffffffffffffffffffff191681526020018577ffffffffffffffffffffffffffffffffffffffffffffffff191677ffffffffffffffffffffffffffffffffffffffffffffffff191681526020018477ffffffffffffffffffffffffffffffffffffffffffffffff191677ffffffffffffffffffffffffffffffffffffffffffffffff191681526020018373ffffffffffffffffffffffffffffffffffffffff1673ffffffffffffffffffffffffffffffffffffffff1681526020018281526020019550505050505060405180910390f35b34156105c857600080fd5b6105d061190c565b604051808381526020018273ffffffffffffffffffffffffffffffffffffffff1673ffffffffffffffffffffffffffffffffffffffff1681526020019250505060405180910390f35b341561062457600080fd5b61065e600480803577ffffffffffffffffffffffffffffffffffffffffffffffff1916906020019091908035906020019091905050611a24565b604051808215151515815260200191505060405180910390f35b341561068357600080fd5b61068b611d06565b604051808277ffffffffffffffffffffffffffffffffffffffffffffffff191677ffffffffffffffffffffffffffffffffffffffffffffffff1916815260200191505060405180910390f35b34156106e257600080fd5b6106ea611d38565b6040518086815260200180602001806020018060200180602001858103855289818151815260200191508051906020019060200280838360005b8381101561073f578082015181840152602081019050610724565b50505050905001858103845288818151815260200191508051906020019060200280838360005b83811015610781578082015181840152602081019050610766565b50505050905001858103835287818151815260200191508051906020019060200280838360005b838110156107c35780820151818401526020810190506107a8565b50505050905001858103825286818151815260200191508051906020019060200280838360005b838110156108055780820151818401526020810190506107ea565b50505050905001995050505050505050505060405180910390f35b341561082b57600080fd5b6108336121c0565b6040518082815260200191505060405180910390f35b341561085457600080fd5b61086a60048080359060200190919050506121cd565b604051808277ffffffffffffffffffffffffffffffffffffffffffffffff191677ffffffffffffffffffffffffffffffffffffffffffffffff1916815260200191505060405180910390f35b34156108c157600080fd5b6108d760048080359060200190919050506123e1565b604051808277ffffffffffffffffffffffffffffffffffffffffffffffff191677ffffffffffffffffffffffffffffffffffffffffffffffff1916815260200191505060405180910390f35b600160009054906101000a900473ffffffffffffffffffffffffffffffffffffffff1681565b6000600260000160089054906101000a9004780100000000000000000000000000000000000000000000000002905090565b6000806002600301548311156109af5760007801000000000000000000000000000000000000000000000000029150610a32565b6002800154831115156109ee57600260000160089054906101000a90047801000000000000000000000000000000000000000000000000029150610a32565b6002806002015460026003015403811515610a0557fe5b04905082600280015482011115610a2657610a1f836123e1565b9150610a32565b610a2f836121cd565b91505b50919050565b60008060008060009054906101000a900473ffffffffffffffffffffffffffffffffffffffff1673ffffffffffffffffffffffffffffffffffffffff163373ffffffffffffffffffffffffffffffffffffffff16141515610a9857600080fd5b610aa28686611a24565b1515610aad57600080fd5b838542604051808473ffffffffffffffffffffffffffffffffffffffff1673ffffffffffffffffffffffffffffffffffffffff166c010000000000000000000000000281526014018381526020018281526020019350505050604051809103902091506000600260040160008477ffffffffffffffffffffffffffffffffffffffffffffffff191677ffffffffffffffffffffffffffffffffffffffffffffffff1916815260200190815260200160002060000160009054906101000a900473ffffffffffffffffffffffffffffffffffffffff1673ffffffffffffffffffffffffffffffffffffffff16141515610ba157fe5b60007801000000000000000000000000000000000000000000000000028677ffffffffffffffffffffffffffffffffffffffffffffffff19161415610c1257600260000160009054906101000a90047801000000000000000000000000000000000000000000000000029050610c8a565b600260040160008777ffffffffffffffffffffffffffffffffffffffffffffffff191677ffffffffffffffffffffffffffffffffffffffffffffffff1916815260200190815260200160002060010160089054906101000a900478010000000000000000000000000000000000000000000000000290505b60a0604051908101604052808573ffffffffffffffffffffffffffffffffffffffff1681526020018377ffffffffffffffffffffffffffffffffffffffffffffffff191681526020018777ffffffffffffffffffffffffffffffffffffffffffffffff191681526020018277ffffffffffffffffffffffffffffffffffffffffffffffff1916815260200186815250600260040160008477ffffffffffffffffffffffffffffffffffffffffffffffff191677ffffffffffffffffffffffffffffffffffffffffffffffff1916815260200190815260200160002060008201518160000160006101000a81548173ffffffffffffffffffffffffffffffffffffffff021916908373ffffffffffffffffffffffffffffffffffffffff16021790555060208201518160000160146101000a81548167ffffffffffffffff021916908378010000000000000000000000000000000000000000000000009004021790555060408201518160010160006101000a81548167ffffffffffffffff021916908378010000000000000000000000000000000000000000000000009004021790555060608201518160010160086101000a81548167ffffffffffffffff0219169083780100000000000000000000000000000000000000000000000090040217905550608082015181600201559050506002600101600081548092919060010191905055506000780100000000000000000000000000000000000000000000000002600260040160008477ffffffffffffffffffffffffffffffffffffffffffffffff191677ffffffffffffffffffffffffffffffffffffffffffffffff1916815260200190815260200160002060010160009054906101000a900478010000000000000000000000000000000000000000000000000277ffffffffffffffffffffffffffffffffffffffffffffffff1916141515610fd25781600260040160008877ffffffffffffffffffffffffffffffffffffffffffffffff191677ffffffffffffffffffffffffffffffffffffffffffffffff1916815260200190815260200160002060010160086101000a81548167ffffffffffffffff021916908378010000000000000000000000000000000000000000000000009004021790555061101b565b81600260000160006101000a81548167ffffffffffffffff0219169083780100000000000000000000000000000000000000000000000090040217905550846002600301819055505b6000780100000000000000000000000000000000000000000000000002600260040160008477ffffffffffffffffffffffffffffffffffffffffffffffff191677ffffffffffffffffffffffffffffffffffffffffffffffff1916815260200190815260200160002060010160089054906101000a900478010000000000000000000000000000000000000000000000000277ffffffffffffffffffffffffffffffffffffffffffffffff19161415156111d0578160026004016000600260040160008677ffffffffffffffffffffffffffffffffffffffffffffffff191677ffffffffffffffffffffffffffffffffffffffffffffffff1916815260200190815260200160002060010160089054906101000a900478010000000000000000000000000000000000000000000000000277ffffffffffffffffffffffffffffffffffffffffffffffff191677ffffffffffffffffffffffffffffffffffffffffffffffff1916815260200190815260200160002060010160006101000a81548167ffffffffffffffff0219169083780100000000000000000000000000000000000000000000000090040217905550611218565b81600260000160086101000a81548167ffffffffffffffff02191690837801000000000000000000000000000000000000000000000000900402179055508460028001819055505b7f929d6b4043c9fd9060e58506916e0cf11f4b277614e1a03a4c61cde6e284880e8286604051808377ffffffffffffffffffffffffffffffffffffffffffffffff191677ffffffffffffffffffffffffffffffffffffffffffffffff191681526020018281526020019250505060405180910390a16001925050509392505050565b60008060009054906101000a900473ffffffffffffffffffffffffffffffffffffffff1673ffffffffffffffffffffffffffffffffffffffff163373ffffffffffffffffffffffffffffffffffffffff161415156112f757600080fd5b81600160006101000a81548173ffffffffffffffffffffffffffffffffffffffff021916908373ffffffffffffffffffffffffffffffffffffffff16021790555060019050919050565b6000600160009054906101000a900473ffffffffffffffffffffffffffffffffffffffff1673ffffffffffffffffffffffffffffffffffffffff163373ffffffffffffffffffffffffffffffffffffffff1614151561139f57600080fd5b600160006101000a81549073ffffffffffffffffffffffffffffffffffffffff0219169055336000806101000a81548173ffffffffffffffffffffffffffffffffffffffff021916908373ffffffffffffffffffffffffffffffffffffffff1602179055506001905090565b6000809054906101000a900473ffffffffffffffffffffffffffffffffffffffff1681565b6000806000600260040160008577ffffffffffffffffffffffffffffffffffffffffffffffff191677ffffffffffffffffffffffffffffffffffffffffffffffff1916815260200190815260200160002060000160009054906101000a900473ffffffffffffffffffffffffffffffffffffffff1673ffffffffffffffffffffffffffffffffffffffff1614156114c65761158b565b600260040160008477ffffffffffffffffffffffffffffffffffffffffffffffff191677ffffffffffffffffffffffffffffffffffffffffffffffff1916815260200190815260200160002060020154600260040160008577ffffffffffffffffffffffffffffffffffffffffffffffff191677ffffffffffffffffffffffffffffffffffffffffffffffff1916815260200190815260200160002060000160009054906101000a900473ffffffffffffffffffffffffffffffffffffffff16915091505b915091565b60008061159b6116c3565b1515156115a757600080fd5b60026004016000600260000160009054906101000a900478010000000000000000000000000000000000000000000000000277ffffffffffffffffffffffffffffffffffffffffffffffff191677ffffffffffffffffffffffffffffffffffffffffffffffff191681526020019081526020016000206002015460026004016000600260000160009054906101000a900478010000000000000000000000000000000000000000000000000277ffffffffffffffffffffffffffffffffffffffffffffffff191677ffffffffffffffffffffffffffffffffffffffffffffffff1916815260200190815260200160002060000160009054906101000a900473ffffffffffffffffffffffffffffffffffffffff16915091509091565b60008060026001015414905090565b6000806000806000600260040160008777ffffffffffffffffffffffffffffffffffffffffffffffff191677ffffffffffffffffffffffffffffffffffffffffffffffff1916815260200190815260200160002060000160149054906101000a9004780100000000000000000000000000000000000000000000000002600260040160008877ffffffffffffffffffffffffffffffffffffffffffffffff191677ffffffffffffffffffffffffffffffffffffffffffffffff1916815260200190815260200160002060010160009054906101000a9004780100000000000000000000000000000000000000000000000002600260040160008977ffffffffffffffffffffffffffffffffffffffffffffffff191677ffffffffffffffffffffffffffffffffffffffffffffffff1916815260200190815260200160002060010160089054906101000a9004780100000000000000000000000000000000000000000000000002600260040160008a77ffffffffffffffffffffffffffffffffffffffffffffffff191677ffffffffffffffffffffffffffffffffffffffffffffffff1916815260200190815260200160002060000160009054906101000a900473ffffffffffffffffffffffffffffffffffffffff16600260040160008b77ffffffffffffffffffffffffffffffffffffffffffffffff191677ffffffffffffffffffffffffffffffffffffffffffffffff19168152602001908152602001600020600201549450945094509450945091939590929450565b6000806000809054906101000a900473ffffffffffffffffffffffffffffffffffffffff1673ffffffffffffffffffffffffffffffffffffffff163373ffffffffffffffffffffffffffffffffffffffff1614151561196a57600080fd5b611972611590565b80925081935050506119ad600260000160009054906101000a90047801000000000000000000000000000000000000000000000000026125eb565b15156119b557fe5b7f8175128bf72be3b46137e66611ba18df872ce4e830958a09bffce026b9902ab58282604051808381526020018273ffffffffffffffffffffffffffffffffffffffff1673ffffffffffffffffffffffffffffffffffffffff1681526020019250505060405180910390a19091565b60008060007801000000000000000000000000000000000000000000000000028477ffffffffffffffffffffffffffffffffffffffffffffffff1916141515611c085782600260040160008677ffffffffffffffffffffffffffffffffffffffffffffffff191677ffffffffffffffffffffffffffffffffffffffffffffffff191681526020019081526020016000206002015410151515611ac557600080fd5b600260000160089054906101000a900478010000000000000000000000000000000000000000000000000277ffffffffffffffffffffffffffffffffffffffffffffffff19168477ffffffffffffffffffffffffffffffffffffffffffffffff1916141515611c0357600260040160008577ffffffffffffffffffffffffffffffffffffffffffffffff191677ffffffffffffffffffffffffffffffffffffffffffffffff1916815260200190815260200160002060010160089054906101000a9004780100000000000000000000000000000000000000000000000002905082600260040160008377ffffffffffffffffffffffffffffffffffffffffffffffff191677ffffffffffffffffffffffffffffffffffffffffffffffff1916815260200190815260200160002060020154101515611c0257600080fd5b5b611cfb565b6000780100000000000000000000000000000000000000000000000002600260000160009054906101000a900478010000000000000000000000000000000000000000000000000277ffffffffffffffffffffffffffffffffffffffffffffffff1916141515611cfa578260026004016000600260000160009054906101000a900478010000000000000000000000000000000000000000000000000277ffffffffffffffffffffffffffffffffffffffffffffffff191677ffffffffffffffffffffffffffffffffffffffffffffffff1916815260200190815260200160002060020154101515611cf957600080fd5b5b5b600191505092915050565b6000600260000160009054906101000a9004780100000000000000000000000000000000000000000000000002905090565b6000611d4261316c565b611d4a61316c565b611d5261316c565b611d5a613180565b611d6261316c565b611d6a61316c565b611d7261316c565b611d7a613180565b600080600260010154604051805910611d905750595b90808252806020026020018201604052509550600260010154604051805910611db65750595b90808252806020026020018201604052509450600260010154604051805910611ddc5750595b90808252806020026020018201604052509350600260010154604051805910611e025750595b90808252806020026020018201604052509250600260000160009054906101000a90047801000000000000000000000000000000000000000000000000029150600090505b60026001015481101561219f57600260040160008377ffffffffffffffffffffffffffffffffffffffffffffffff191677ffffffffffffffffffffffffffffffffffffffffffffffff1916815260200190815260200160002060000160149054906101000a90047801000000000000000000000000000000000000000000000000028682815181101515611ed757fe5b9060200190602002019077ffffffffffffffffffffffffffffffffffffffffffffffff1916908177ffffffffffffffffffffffffffffffffffffffffffffffff191681525050600260040160008377ffffffffffffffffffffffffffffffffffffffffffffffff191677ffffffffffffffffffffffffffffffffffffffffffffffff1916815260200190815260200160002060010160009054906101000a90047801000000000000000000000000000000000000000000000000028582815181101515611fa057fe5b9060200190602002019077ffffffffffffffffffffffffffffffffffffffffffffffff1916908177ffffffffffffffffffffffffffffffffffffffffffffffff191681525050600260040160008377ffffffffffffffffffffffffffffffffffffffffffffffff191677ffffffffffffffffffffffffffffffffffffffffffffffff1916815260200190815260200160002060010160089054906101000a9004780100000000000000000000000000000000000000000000000002848281518110151561206957fe5b9060200190602002019077ffffffffffffffffffffffffffffffffffffffffffffffff1916908177ffffffffffffffffffffffffffffffffffffffffffffffff191681525050600260040160008377ffffffffffffffffffffffffffffffffffffffffffffffff191677ffffffffffffffffffffffffffffffffffffffffffffffff1916815260200190815260200160002060020154838281518110151561210d57fe5b9060200190602002018181525050600260040160008377ffffffffffffffffffffffffffffffffffffffffffffffff191677ffffffffffffffffffffffffffffffffffffffffffffffff1916815260200190815260200160002060010160089054906101000a900478010000000000000000000000000000000000000000000000000291508080600101915050611e47565b600260010154868686869a509a509a509a509a505050505050509091929394565b6000600260010154905090565b6000806000600260000160009054906101000a90047801000000000000000000000000000000000000000000000000029150600090505b6002600101548110156123d95760007801000000000000000000000000000000000000000000000000028277ffffffffffffffffffffffffffffffffffffffffffffffff1916141561228257600260000160089054906101000a900478010000000000000000000000000000000000000000000000000292506123da565b83600260040160008477ffffffffffffffffffffffffffffffffffffffffffffffff191677ffffffffffffffffffffffffffffffffffffffffffffffff1916815260200190815260200160002060020154101561235557600260040160008377ffffffffffffffffffffffffffffffffffffffffffffffff191677ffffffffffffffffffffffffffffffffffffffffffffffff1916815260200190815260200160002060010160009054906101000a900478010000000000000000000000000000000000000000000000000292506123da565b600260040160008377ffffffffffffffffffffffffffffffffffffffffffffffff191677ffffffffffffffffffffffffffffffffffffffffffffffff1916815260200190815260200160002060010160089054906101000a900478010000000000000000000000000000000000000000000000000291508080600101915050612204565b5b5050919050565b600080600060026004016000600260000160089054906101000a900478010000000000000000000000000000000000000000000000000277ffffffffffffffffffffffffffffffffffffffffffffffff191677ffffffffffffffffffffffffffffffffffffffffffffffff1916815260200190815260200160002060010160009054906101000a90047801000000000000000000000000000000000000000000000000029150600280600101540390505b60008111156125e35760007801000000000000000000000000000000000000000000000000028277ffffffffffffffffffffffffffffffffffffffffffffffff191614156124fe57600078010000000000000000000000000000000000000000000000000292506125e4565b83600260040160008477ffffffffffffffffffffffffffffffffffffffffffffffff191677ffffffffffffffffffffffffffffffffffffffffffffffff191681526020019081526020016000206002015410151561255e578192506125e4565b600260040160008377ffffffffffffffffffffffffffffffffffffffffffffffff191677ffffffffffffffffffffffffffffffffffffffffffffffff1916815260200190815260200160002060010160009054906101000a90047801000000000000000000000000000000000000000000000000029150808060019003915050612492565b5b5050919050565b60008060007801000000000000000000000000000000000000000000000000028377ffffffffffffffffffffffffffffffffffffffffffffffff191614156126365760019150613166565b600260040160008477ffffffffffffffffffffffffffffffffffffffffffffffff191677ffffffffffffffffffffffffffffffffffffffffffffffff191681526020019081526020016000206002015490506000780100000000000000000000000000000000000000000000000002600260040160008577ffffffffffffffffffffffffffffffffffffffffffffffff191677ffffffffffffffffffffffffffffffffffffffffffffffff1916815260200190815260200160002060010160009054906101000a900478010000000000000000000000000000000000000000000000000277ffffffffffffffffffffffffffffffffffffffffffffffff191614156129d757600260040160008477ffffffffffffffffffffffffffffffffffffffffffffffff191677ffffffffffffffffffffffffffffffffffffffffffffffff1916815260200190815260200160002060010160089054906101000a9004780100000000000000000000000000000000000000000000000002600260000160006101000a81548167ffffffffffffffff021916908378010000000000000000000000000000000000000000000000009004021790555060026004016000600260040160008677ffffffffffffffffffffffffffffffffffffffffffffffff191677ffffffffffffffffffffffffffffffffffffffffffffffff1916815260200190815260200160002060010160089054906101000a900478010000000000000000000000000000000000000000000000000277ffffffffffffffffffffffffffffffffffffffffffffffff191677ffffffffffffffffffffffffffffffffffffffffffffffff1916815260200190815260200160002060020154600260030181905550600078010000000000000000000000000000000000000000000000000260026004016000600260040160008777ffffffffffffffffffffffffffffffffffffffffffffffff191677ffffffffffffffffffffffffffffffffffffffffffffffff1916815260200190815260200160002060010160089054906101000a900478010000000000000000000000000000000000000000000000000277ffffffffffffffffffffffffffffffffffffffffffffffff191677ffffffffffffffffffffffffffffffffffffffffffffffff1916815260200190815260200160002060010160006101000a81548167ffffffffffffffff0219169083780100000000000000000000000000000000000000000000000090040217905550612b48565b600260040160008477ffffffffffffffffffffffffffffffffffffffffffffffff191677ffffffffffffffffffffffffffffffffffffffffffffffff1916815260200190815260200160002060010160089054906101000a900478010000000000000000000000000000000000000000000000000260026004016000600260040160008777ffffffffffffffffffffffffffffffffffffffffffffffff191677ffffffffffffffffffffffffffffffffffffffffffffffff1916815260200190815260200160002060010160009054906101000a900478010000000000000000000000000000000000000000000000000277ffffffffffffffffffffffffffffffffffffffffffffffff191677ffffffffffffffffffffffffffffffffffffffffffffffff1916815260200190815260200160002060010160086101000a81548167ffffffffffffffff02191690837801000000000000000000000000000000000000000000000000900402179055505b6000780100000000000000000000000000000000000000000000000002600260040160008577ffffffffffffffffffffffffffffffffffffffffffffffff191677ffffffffffffffffffffffffffffffffffffffffffffffff1916815260200190815260200160002060010160089054906101000a900478010000000000000000000000000000000000000000000000000277ffffffffffffffffffffffffffffffffffffffffffffffff19161415612e9657600260040160008477ffffffffffffffffffffffffffffffffffffffffffffffff191677ffffffffffffffffffffffffffffffffffffffffffffffff1916815260200190815260200160002060010160009054906101000a9004780100000000000000000000000000000000000000000000000002600260000160086101000a81548167ffffffffffffffff021916908378010000000000000000000000000000000000000000000000009004021790555060026004016000600260040160008677ffffffffffffffffffffffffffffffffffffffffffffffff191677ffffffffffffffffffffffffffffffffffffffffffffffff1916815260200190815260200160002060010160009054906101000a900478010000000000000000000000000000000000000000000000000277ffffffffffffffffffffffffffffffffffffffffffffffff191677ffffffffffffffffffffffffffffffffffffffffffffffff19168152602001908152602001600020600201546002800181905550600078010000000000000000000000000000000000000000000000000260026004016000600260040160008777ffffffffffffffffffffffffffffffffffffffffffffffff191677ffffffffffffffffffffffffffffffffffffffffffffffff1916815260200190815260200160002060010160009054906101000a900478010000000000000000000000000000000000000000000000000277ffffffffffffffffffffffffffffffffffffffffffffffff191677ffffffffffffffffffffffffffffffffffffffffffffffff1916815260200190815260200160002060010160086101000a81548167ffffffffffffffff0219169083780100000000000000000000000000000000000000000000000090040217905550613007565b600260040160008477ffffffffffffffffffffffffffffffffffffffffffffffff191677ffffffffffffffffffffffffffffffffffffffffffffffff1916815260200190815260200160002060010160009054906101000a900478010000000000000000000000000000000000000000000000000260026004016000600260040160008777ffffffffffffffffffffffffffffffffffffffffffffffff191677ffffffffffffffffffffffffffffffffffffffffffffffff1916815260200190815260200160002060010160089054906101000a900478010000000000000000000000000000000000000000000000000277ffffffffffffffffffffffffffffffffffffffffffffffff191677ffffffffffffffffffffffffffffffffffffffffffffffff1916815260200190815260200160002060010160006101000a81548167ffffffffffffffff02191690837801000000000000000000000000000000000000000000000000900402179055505b600260040160008477ffffffffffffffffffffffffffffffffffffffffffffffff191677ffffffffffffffffffffffffffffffffffffffffffffffff19168152602001908152602001600020600080820160006101000a81549073ffffffffffffffffffffffffffffffffffffffff02191690556000820160146101000a81549067ffffffffffffffff02191690556001820160006101000a81549067ffffffffffffffff02191690556001820160086101000a81549067ffffffffffffffff021916905560028201600090555050600260010160008154809291906001900391905055507f99aa1dd495a32ebf4bc11bd7117f3b34467068008b748a7b8683c95dba2366458382604051808377ffffffffffffffffffffffffffffffffffffffffffffffff191677ffffffffffffffffffffffffffffffffffffffffffffffff191681526020018281526020019250505060405180910390a1600191505b50919050565b602060405190810160405280600081525090565b6020604051908101604052806000815250905600a165627a7a72305820edf2e3517e17dc6a479618e22bb461876c1b2d62f9a718cb61c256ac90948c630029",
  "source": "pragma solidity ^0.4.21;\n\nimport \"./Auth.sol\";\n\n/**\n * PriorityQueue\n * Cribbed from https://github.com/omisego/plasma-mvp/blob/master/plasma/root_chain/contracts/DataStructures/PriorityQueue.sol\n * Changed to be max value heap instead of min value, and use the `Timenode` struct.\n */\n\ncontract PriorityQueue is Auth {\n\n    struct Timenode {\n        address at;\n        bytes8 id;\n        bytes8 left;\n        bytes8 right;\n        uint256 bond;\n    }\n\n    struct Queue {\n        bytes8 first;\n        bytes8 last;\n        uint256 size;\n        uint256 minBond;\n        uint256 maxBond;\n        mapping( bytes8=>Timenode ) timeNodes;\n    }\n\n    Queue heap;\n\n    event Enter(bytes8 id, uint256 val);\n    event Exit(bytes8 id, uint256 val);\n    event Pop(uint256 val, address addr);\n\n    // function PriorityQueue() public {}\n\n    /**\n\t * isEmpty()\n\t * Returns <bool> true if the PriorityQueue is empty.\n\t */\n    function isEmpty()\n        public view returns (bool)\n    {\n        return heap.size == 0;\n    }\n\n    /**\n\t * queueSize()\n\t * Returns <uint256> number of nodes in the PriorityQueue.\n\t */\n    function queueSize()\n        public view returns (uint256)\n    {\n      return heap.size;\n    }\n\n\t/**\n\t * firstNode()\n\t * Returns <bytes8> UUID of the next node in the PriorityQueue.\n\t */\n    function firstNode()\n        public view returns (bytes8)\n    {\n      return heap.first;\n    }\n\n\t/**\n\t * lastNode()\n\t * Returns <bytes8> UUID of the last node in the PriorityQueue.\n\t */\n    function lastNode()\n        public view returns (bytes8)\n    {\n      return heap.last;\n    }\n\n\t/**\n\t * getTimenode()\n\t * Returns <(bytes8, bytes8, bytes8, address, uint256)> tuple containing the UUID,\n\t * left node, right node, address of, and bond value of the Timenode.\n\t */\n    function getTimenode (bytes8 _timeNode)\n        public view returns (bytes8 id, bytes8 left, bytes8 right, address at, uint256 bond)\n    {\n        return (heap.timeNodes[_timeNode].id, heap.timeNodes[_timeNode].left, heap.timeNodes[_timeNode].right, heap.timeNodes[_timeNode].at, heap.timeNodes[_timeNode].bond);\n    }\n\n    /**\n\t * peek()\n\t * Returns <(uint256, address)> tuple containing the bond value and address of the\n\t * first Timenode in the PriorityQueue.\n\t */\n    function peek()\n        public view returns (uint256, address)\n    {\n        require(!isEmpty());\n        return (heap.timeNodes[heap.first].bond, heap.timeNodes[heap.first].at);\n    }\n\n\t/**\n\t * getAtIndex(<bytes8>)\n\t * Returns <(uint256, address)> tuple containg the bond value and address\n\t * of the node at index `_idx`.\n\t */\n    function getAtIndex(bytes8 _idx)\n        public view returns (uint256, address)\n    {\n        if (heap.timeNodes[_idx].at == 0x0) return;\n        return (heap.timeNodes[_idx].bond, heap.timeNodes[_idx].at);\n    }\n\n    function snapShotQueue()\n        public view returns (uint256 length,bytes8[] ids,bytes8[] lefts,bytes8[] rights,uint256[] bonds)\n    {\n        bytes8[] memory _ids = new bytes8[](heap.size);\n        bytes8[] memory _lefts = new bytes8[](heap.size);\n        bytes8[] memory _rights = new bytes8[](heap.size);\n        uint256[] memory _bonds = new uint256[](heap.size);\n        bytes8 active = heap.first;\n        for( uint i=0; i<heap.size; i++) {\n          _ids[i] = heap.timeNodes[active].id;\n          _lefts[i] = heap.timeNodes[active].left;\n          _rights[i] = heap.timeNodes[active].right;\n          _bonds[i] = heap.timeNodes[active].bond;\n          active = heap.timeNodes[active].right;\n        }\n        return (heap.size, _ids, _lefts, _rights, _bonds);\n    }\n\n\t/**\n\t * validateInsertPosition(<bytes8, uint256>)\n\t * Returns <bool> True if the this is the correct insert placement of the _priority value.\n\t */\n    function validateInsertPosition(bytes8 _previousNode, uint256 _priority)\n        public view returns (bool)\n     {\n        if (_previousNode != 0x0) {\n    \t\t\t// If trying to insert at position not at index 0, require _priority <= previous bond value.\n    \t\t\trequire(heap.timeNodes[_previousNode].bond >= _priority);\n    \t\t\tif (_previousNode != heap.last) {\n    \t\t\t\tbytes8 rightNode = heap.timeNodes[_previousNode].right;\n    \t\t\t\t// Always place a new insert behind the ones before it by requiring the _priority\n    \t\t\t\t// is greater than the right node's bond value.\n    \t\t\t\trequire(heap.timeNodes[rightNode].bond < _priority);\n    \t\t\t}\n        } else { // if _previousNode === 0x0, i.e. try insert at index 0.\n    \t\t\tif(heap.first != 0x0) {\n    \t\t\t\t //Ensure older nodes, with same bond value remain at the top of the line.\n    \t\t\t\trequire(heap.timeNodes[heap.first].bond < _priority);\n    \t\t\t}\n        }\n        return true;\n    }\n\n\t/**\n\t * insert(<bytes8, uint256, address>)\n\t * Returns <bool> True if the insert is successful.\n\t */\n    function insert(bytes8 _previousNode, uint256 _priority, address _tn)\n        auth\n        public returns (bool)\n    {\n        require(validateInsertPosition(_previousNode,_priority));\n        bytes8 _idx = bytes8(keccak256(_tn, _priority, block.timestamp));// reduce posibility of overwriting\n\n        assert(heap.timeNodes[_idx].at == 0x0); // Ensure no overwriting\n\n        bytes8 _right;\n        if (_previousNode == 0x0) {\n          _right = heap.first;\n        } else {\n          _right = heap.timeNodes[_previousNode].right;\n        }\n\n        heap.timeNodes[_idx] = Timenode(_tn, _idx, _previousNode, _right, _priority );\n        heap.size++;\n\n        if(heap.timeNodes[_idx].left != 0x0) {\n          heap.timeNodes[_previousNode].right = _idx;\n        } else {\n          heap.first = _idx;\n          heap.maxBond = _priority;\n        }\n\n        if(heap.timeNodes[_idx].right != 0x0) {\n          heap.timeNodes[ heap.timeNodes[_idx].right ].left = _idx;\n        } else {\n          heap.last = _idx;\n          heap.minBond = _priority;\n        }\n        emit Enter(_idx, _priority);\n        return true;\n    }\n\n    function remove(bytes8 _timeNode)\n        internal returns (bool)\n    {\n        if (_timeNode == 0x0) { //TODO should be handled correctly\n          return true;\n        }\n\n        uint256 _priority = heap.timeNodes[_timeNode].bond;\n\n        if (heap.timeNodes[_timeNode].left == 0x0) {\n          heap.first = heap.timeNodes[_timeNode].right;\n          heap.maxBond = heap.timeNodes[ heap.timeNodes[_timeNode].right ].bond;\n          heap.timeNodes[ heap.timeNodes[_timeNode].right ].left = 0x0;\n        } else {\n          heap.timeNodes[ heap.timeNodes[_timeNode].left ].right = heap.timeNodes[_timeNode].right;\n        }\n\n        if (heap.timeNodes[_timeNode].right == 0x0) {\n          heap.last = heap.timeNodes[_timeNode].left;\n          heap.minBond = heap.timeNodes[ heap.timeNodes[_timeNode].left ].bond;\n          heap.timeNodes[ heap.timeNodes[_timeNode].left ].right = 0x0;\n        } else {\n          heap.timeNodes[ heap.timeNodes[_timeNode].right ].left = heap.timeNodes[_timeNode].left;\n        }\n\n        delete(heap.timeNodes[_timeNode]);\n        heap.size--;\n        emit Exit(_timeNode, _priority);\n        return true;\n    }\n\n    function pop()\n        auth\n        public returns (uint256 retVal, address retAddr)\n    {\n        (retVal, retAddr) = peek();\n        assert(remove(heap.first));\n        emit Pop(retVal, retAddr);\n        // retVal returns\n    }\n\n    function getInsertPosition(uint256 _bond)\n        public view returns (bytes8 _previousNode)\n    { //Should only be called from JS using(.call), to ensure maximum gasOptimization\n        if (_bond > heap.maxBond) {\n\t\t\t//highest bond will be inserted in index 0\n          \treturn 0;\n        }\n        if (_bond <= heap.minBond) {\n\t\t\t//lowest bond inserted into last index\n          \treturn heap.last;\n        }\n\n\t\t// find middle\n\t\tuint256 mid = (heap.maxBond - heap.minBond) /2;\n        if ((mid + heap.minBond) > _bond ) {\n          \treturn percUp(_bond);\n        } else {\n          \treturn percDown(_bond);\n        }\n    }\n\n    function percUp (uint256 _bond)\n        public view returns (bytes8 _previousNode)\n    {\n        bytes8 activeNode = heap.timeNodes[heap.last].left;\n        for (uint256 i = heap.size-2; i>0; i--) {\n          \tif(activeNode == 0x0) { //If it reaches the top of the queue, should never happen\n            \treturn 0;\n          \t}\n          \tif (heap.timeNodes[activeNode].bond >= _bond) {\n            \treturn activeNode;\n          \t}\n          \tactiveNode = heap.timeNodes[activeNode].left;\n        }\n    }\n\n    function percDown (uint256 _bond)\n        public view returns (bytes8 _previousNode)\n    {\n      \tbytes8 activeNode = heap.first;\n      \tfor (uint256 i = 0; i < heap.size; i++) {\n    \t\t\tif(activeNode == 0x0) { //If it reaches the end of the queue, should never happen\n    \t\t\t\treturn heap.last;\n    \t\t\t}\n    \t\t\tif (heap.timeNodes[activeNode].bond < _bond) {\n    \t\t\t\treturn heap.timeNodes[activeNode].left;\n    \t\t\t}\n    \t\t\tactiveNode = heap.timeNodes[activeNode].right;\n    \t\t}\n    }\n}\n",
  "sourcePath": "/home/logan/Work/v2/chronos/contracts/PriorityQueue.sol",
  "compiler": {
    "name": "solc",
    "version": "0.4.21+commit.dfe3193c.Emscripten.clang"
  },
  "schemaVersion": "2.0.0",
  "updatedAt": "2018-05-15T13:38:54.630Z"
}