{
  "contractName": "SafeMathLib",
  "abi": [
    {
      "constant": true,
      "inputs": [
        {
          "name": "a",
          "type": "uint256"
        },
        {
          "name": "b",
          "type": "uint256"
        }
      ],
      "name": "safeMul",
      "outputs": [
        {
          "name": "",
          "type": "uint256"
        }
      ],
      "payable": false,
      "stateMutability": "view",
      "type": "function"
    },
    {
      "constant": true,
      "inputs": [
        {
          "name": "a",
          "type": "uint256"
        },
        {
          "name": "b",
          "type": "uint256"
        }
      ],
      "name": "safeSub",
      "outputs": [
        {
          "name": "",
          "type": "uint256"
        }
      ],
      "payable": false,
      "stateMutability": "view",
      "type": "function"
    },
    {
      "constant": true,
      "inputs": [
        {
          "name": "a",
          "type": "uint256"
        },
        {
          "name": "b",
          "type": "uint256"
        }
      ],
      "name": "safeAdd",
      "outputs": [
        {
          "name": "",
          "type": "uint256"
        }
      ],
      "payable": false,
      "stateMutability": "view",
      "type": "function"
    }
  ],
  "bytecode": "0x6060604052341561000f57600080fd5b6101b28061001e6000396000f300606060405260043610610057576000357c0100000000000000000000000000000000000000000000000000000000900463ffffffff168063a293d1e81461005c578063d05c78da1461009c578063e6cb9013146100dc575b600080fd5b341561006757600080fd5b610086600480803590602001909190803590602001909190505061011c565b6040518082815260200191505060405180910390f35b34156100a757600080fd5b6100c66004808035906020019091908035906020019091905050610135565b6040518082815260200191505060405180910390f35b34156100e757600080fd5b6101066004808035906020019091908035906020019091905050610168565b6040518082815260200191505060405180910390f35b600082821115151561012a57fe5b818303905092915050565b60008082840290506000841480610156575082848281151561015357fe5b04145b151561015e57fe5b8091505092915050565b600080828401905083811015151561017c57fe5b80915050929150505600a165627a7a72305820f4b27a7eb3accdbe7dabccf2445ae1d2db1e6ec781f6b3ee4a1ca23fde4a010b0029",
  "source": "pragma solidity ^0.4.13;\n\ncontract SafeMathLib {\n  function safeMul(uint a, uint b) constant returns (uint) {\n    uint c = a * b;\n    assert(a == 0 || c / a == b);\n    return c;\n  }\n\n  function safeSub(uint a, uint b) constant returns (uint) {\n    assert(b <= a);\n    return a - b;\n  }\n\n  function safeAdd(uint a, uint b) constant returns (uint) {\n    uint c = a + b;\n    assert(c>=a);\n    return c;\n  }\n}\n",
  "sourcePath": "/home/logan/Work/v2/chronos/chronologic/contracts/SafeMathLib.sol",
  "compiler": {
    "name": "solc",
    "version": "0.4.21+commit.dfe3193c.Emscripten.clang"
  },
  "schemaVersion": "2.0.0",
  "updatedAt": "2018-05-15T13:38:54.623Z"
}